:020000041000EA
:1000000000B5324B212058609868022188439860DF
:10001000D860186158612E4B002199600221596106
:100020000121F02299502B49196001219960352056
:1000300000F044F80222904214D00621196600F024
:1000400034F8196E01211966002018661A6600F04E
:100050002CF8196E196E196E052000F02FF8012189
:100060000842F9D1002199601B49196000215960AB
:100070001A491B48016001219960EB211966A021F2
:10008000196600F012F800219960164914480160C1
:100090000121996001BC002800D000471248134993
:1000A000086003C880F30888084703B5996A0420EC
:1000B0000142FBD001200142F8D103BD02B5186610
:1000C0001866FFF7F2FF186E186E02BD00000240BE
:1000D000000000180000070000035F00212200005C
:1000E000F4000018222000A00001001008ED00E03C
:1000F00000000000000000000000000074B24E7A12
:1001000000200420F7010010C3010010C5010010F9
:10011000C1010010C1010010C1010010C101001097
:10012000C1010010C1010010C1010010C701001081
:10013000C1010010C1010010C9010010CB01001065
:10014000CD010010CD010010CD010010CD01001037
:10015000CD010010CD010010CD010010CD01001027
:10016000CD010010CD010010CD010010CD01001017
:10017000CD010010CD010010CD010010CD01001007
:10018000CD010010CD010010CD010010CD010010F7
:10019000CD010010CD010010CD010010CD010010E7
:1001A000CD010010CD010010CD010010CD010010D7
:1001B000CD010010CD010010CD010010CD010010C7
:1001C00000BE00BE00BE00BE00BE00BEEFF3058054
:1001D000103800BEF2EB8871909D0710C09D07108B
:1001E0003402001090A31AE700201F49086006C8D7
:1001F00081F3088810471D48006800282FD10DA4FE
:100200000ECC002902D000F012F8F9E71849194A7B
:10021000002000E001C19142FCD1174988471749ED
:1002200088471749884700BEFDE701C901C29A42C5
:10023000FBD37047C09D0710C00000205020002055
:1002400070BD0710000004200000042070BD0710DE
:10025000001004200010042000000000704709482E
:1002600007F08BFF0047000008ED00E0000000D021
:1002700070200020C8D60020C965001019040010A5
:100280008B6700105756000005005250DE65F46879
:1002900070BD0710060052505422A29D6C2303101B
:1002A00006005250861C03027823031006005250A9
:1002B000ABB360538C230310F8B5C046064807491A
:1002C000091A8B10C90FC91810B5491003D0044B77
:1002D000002B00D0984710BD502000205020002057
:1002E00000000000054B10B5002B03D00449054861
:1002F00000E000BFFFF7E2FF10BDC04600000000B5
:1003000008D400203009031080B500AF0023180086
:10031000BD4680BD80B582B000AF7860D0231B069B
:100320007A685A61C046BD4602B080BD80B582B0D1
:1003300000AF7860D0231B067A689A61C046BD463C
:1003400002B080BD80B584B000AF78600A00FB1CAD
:100350001A7001227B689A401300FB60FB1C1B781B
:10036000002B04D0FB681800FFF7D4FF03E0FB6804
:100370001800FFF7DBFFC046BD4604B080BD80B566
:1003800082B000AF7860D0231B067A685A62C046FC
:10039000BD4602B080BD80B582B000AF7860D0238A
:1003A0001B067A689A62C046BD4602B080BD80B521
:1003B00084B000AF78600A00FB1C1A7001227B68D1
:1003C0009A401300FB60FB1C1B78002B04D0FB68D9
:1003D0001800FFF7D4FF03E0FB681800FFF7DBFF0E
:1003E000C046BD4604B080BD80B582B000AF786025
:1003F000FFF78AFF031E05D07B68180000F03EF966
:10040000030005E07B6818002DF046FD0300C046A0
:100410001800BD4602B080BDF0B5A7B002AF0820FD
:1004200002F02CFC01210820FFF7C1FF0121082068
:10043000FFF788FF09F003F900238C22BA18136034
:100440000EE0FA235B00180004F074FC864B1800E1
:1004500008F088FF8C22BB181B680133BA181360A0
:100460008C23FB181B68042BEBDD1C23FB181122CB
:100470001021180000F0EAFA01F02AF800F0DCF987
:1004800003007B6700238822BA1813602AE08821C2
:100490007B181B689B007A6FD3181B781D007B1894
:1004A0001B689B007A6FD3185B781E007B181B6853
:1004B0009B007A6FD3189B781C007B181B689B00ED
:1004C0007A6FD318DB787A18116868480193009422
:1004D00033002A0009F09CF888217B181B6801333F
:1004E0007A1813608823FB181B68032BCFDD1C26AA
:1004F000BB19180000F017FD0400BB19180000F02C
:1005000091FC0500BB19180000F06AFC0300584874
:100510002A00210009F07CF801F07EF903003B6716
:100520003A6F544B1100180009F072F8BB1918000B
:1005300000F0DCFC0400BB19180000F0BCFC030058
:100540001D00BB19180000F09BFC03001022B81816
:100550002A00210000F07CF900238422BA181360DD
:100560006FE000238022BA1813605FE03B1D180083
:100570000A231A00002108F08DFC1023FB188024A8
:100580003A1912689200D2583B493B1D180007F0F7
:100590007DFD0023FB670023BB670023FB663B193F
:1005A0001B68022B14D03B191B68022B13DC3B1970
:1005B0001B68002B04D03B191B68012B03D00AE0F9
:1005C0003023FB6707E03023FB673023BB6702E083
:1005D0003023BB67C0461023FB188022BA1812686C
:1005E0009200D358002B1BDD64243B19BB663A19DB
:1005F000391D4C257B19180000F062F8FB6FD9B249
:10060000BB6FDAB2FB6EDBB2781900F0ABFF7B197F
:10061000180023F097F83B19180000F090F8C04636
:100620008022BB181B680133BA1813608023FB18A3
:100630001B68022B9ADD8422BB181B680133BA1891
:1006400013608423FB181B68032B8ADD002108201C
:10065000FFF778FEFA235B00180004F06BFB002321
:100660001800BD4625B0F0BD300903104009031045
:10067000780903108C090310A809031080B584B011
:1006800000AF78600023FB6002E0FB680133FB6091
:100690007A68FB68D2180B203B18002119703B18B0
:1006A0001900100000F03AF803001A00012353402B
:1006B000DBB2002BE9D1FB681800BD4604B080BD59
:1006C000B0B586B000AFF860B9607A60FC68FB68CE
:1006D000180022F0F7FF01007B681A00200023F0C9
:1006E00043F8BB68002B03D10B4B180022F0B6FF78
:1006F000BB681800FFF778FE0200BB689B187B619F
:100700007A69B968F8682B1C00F041F8FB6818009A
:10071000BD4606B0B0BDC046AC09031080B582B07E
:1007200000AF786039607B681A783B681B78D31A11
:100730005A425341DBB21800BD4602B080BD80B5BD
:1007400082B000AF78607B681800BD4602B080BD03
:1007500080B582B000AF786039607B683A681A6013
:100760007B681800BD4602B080BD80B582B000AF86
:1007700078607B681B68002B04D07B681B681800BE
:1007800022F0C8FF7B681800BD4602B080BD90B55E
:100790008DB000AFF860B9607A603A001370BB6842
:1007A0007B617B68FB627B69C046BB62FB6A7B62E4
:1007B0007A6ABB6AD31AC046FB61FB690F2B13D957
:1007C0001C23F918FB680022180022F085FF0200A4
:1007D000FB681100180022F071FFFA69FB68110034
:1007E000180022F071FF06E0FB683B623B6A1800CC
:1007F00022F068FFC046FA6818243B19110018005F
:10080000FFF7A6FFFB68180022F05AFF7A68BB6862
:10081000190022F089FF3B1900221A60FA69FB686F
:100820001100180022F052FF3B191800FFF79DFF3E
:10083000BD460DB090BD000080B582B000AF034B47
:100840007B607B681800BD4602B080BD00F01F10C1
:10085000B0B5A6B000AFF860B9601900FB1D1A7002
:10086000BB1D0A1C1A70FB1D1A78BB1D1B78B968CA
:100870006B4808F0CDFE38243B19180024231A00D9
:10088000002108F007FBBB1D1A7821007B18DA60F5
:10089000FB1D1B785A1E7B181A61BB68614A9A18A7
:1008A0007B185A617B1818002CF0F2FC02000B0038
:1008B000882179180A604B60FFF7BEFF030084228D
:1008C000BA18136000239422BA1813609CE0942194
:1008D0007B181B689B008422BA181268D318DB7837
:1008E000002B08D17B181B689B00FA68D3180122E3
:1008F00052421A6082E014243B19180024231A0083
:10090000002108F0C7FA94203B181B689B0084253F
:100910007A191268D3181B781A0021007B18DA6044
:1009200004003B191B689B007A191268D3185B7886
:100930005A1E7B181A613B191B689B007A191268B2
:10094000D3189B7864331A007B185A617B181800FF
:100950002CF09EFC02000B00BA67FB67BA6FFB6FBE
:1009600088217918086849682CF0A4FB02000B0064
:100970003A677B6700222C4B386F796F07F0D1FE06
:1009800002000B00BA66FB66BA6EFB6E100019001F
:1009900008F06EF802000B001000190007F058FF75
:1009A00003007B663B191B689B007A191268D318F9
:1009B000DB783B667B6E396E180007F045FC0B0058
:1009C000FB65FB6D002B03DB3A6EFB6DD21A01E079
:1009D000FB6D5A4294203B181B689B00F968CB18AA
:1009E0001A6001007B181B689B00FA68D3181A680C
:1009F0007B1819680D4B180008F00AFE9422BB18EA
:100A00001B680133BA1813609423FB181B68022B70
:100A100000DC5CE7C046C046BD4626B0B0BDC0465F
:100A2000500A031094F8FFFF0018F540780A0310ED
:100A300080B582B000AF78607B6800220121180089
:100A400001F0CEFFC046BD4602B080BD80B584B087
:100A500000AFF860B9607A60FB6800221A70FB682A
:100A600000225A70FB6800229A70FB680022DA703C
:100A7000FB6800221A71FB6800229A60FB68002262
:100A80001A73FB6800225A730E4A0F4B11001800AC
:100A900009F0EEF8BB680321180001F06BFF7B68DA
:100AA0000321180001F066FFBB681800FFF7C0FFC4
:100AB0007B681800FFF7BCFFFB681800BD4604B058
:100AC00080BDC046801A06005818002080B584B04A
:100AD00002AF786008001100FB1C021C1A70BB1CDE
:100AE0000A1C1A707B68FA1C12789A737B680E33A2
:100AF0001A000D48012300930123682109F0B2FA7E
:100B00007B680E331A00FB1C1B780133D218BB1C08
:100B10001B78054800210091682109F097FBC04629
:100B2000BD4602B080BDC0465818002080B582B0D6
:100B300000AF78607B683A22DA767B68DA7E7B6881
:100B40001A767B685B7C0F221340DBB23033DAB25B
:100B50007B68DA757B681B7C1B09DBB23033DAB249
:100B60007B685A767B681B7C0F221340DBB23033E4
:100B7000DAB27B689A767B68DB7B1B09DBB23033A9
:100B8000DAB27B681A777B68DB7B0F221340DBB21B
:100B90003033DAB27B685A777B685B7B002B1ED0E0
:100BA0007B685B7C1B11DBB201221340DBB230336C
:100BB000DAB27B689A757B681B7B002B03D07B685D
:100BC0005022DA7702E07B684122DA777B682022C4
:100BD0004D2199547B682122002199540DE07B68B6
:100BE0005B7C1B11DBB203221340DBB23033DAB281
:100BF0007B689A757B6800229A77C046BD4602B032
:100C000080BD000080B584B000AF78600023FB6039
:100C10000023BB607B6827222E2199547B68272202
:100C2000995C7B68242299547B682C22002199547A
:100C30007B68DB7C1B09DBB23033D9B27B682222B4
:100C400099547B68DB7C0F221340DBB23033D9B27E
:100C50007B68232299547B681B7D1B09DBB23033F0
:100C6000D9B27B68252299547B681B7D0F221340E3
:100C7000DBB23033D9B27B68262299547B689B68FB
:100C8000FB6007E0BB680133BB60FB68204A944609
:100C90006344FB60FA68FA239B009A42F2DABB686D
:100CA000DBB23033D9B27B68282299540023BB6071
:100CB00005E0BB680133BB60FB68643BFB60FB681D
:100CC000632BF6DCBB68DBB23033D9B27B682922F8
:100CD00099540023BB6005E0BB680133BB60FB682F
:100CE0000A3BFB60FB68092BF6DCBB68DBB23033E8
:100CF000D9B27B682A229954FB68DBB23033D9B26F
:100D00007B682B229954C046BD4604B080BDC046C6
:100D100018FCFFFF80B582B000AF78600A00FB1CB2
:100D20001A70FB1C1B781B09DBB21A1C9200D3182B
:100D3000DB18DAB2FB1C1B780F210B40DBB2D31897
:100D4000DBB21800BD4602B080BD80B582B000AFF6
:100D500078607B685B7C1A00402313405A1E9341E5
:100D6000DAB27B685A737B685B7B002B1FD07B6891
:100D70005B7C1A00202313405A1E9341DAB27B6831
:100D80001A737B685B7C1B11DBB201221340DBB260
:100D90001A1C9200D318DB18DAB27B685B7C0F2137
:100DA0000B40DBB2D318DAB27B689A7014E07B6830
:100DB0005B7C1B11DBB203221340DBB21A1C9200D6
:100DC000D318DB18DAB27B685B7C0F210B40DBB2F7
:100DD000D318DAB27B689A70C046BD4602B080BDB7
:100DE00090B587B002AF78607B6811229A737B68F8
:100DF0000E331A000A48012300930123682109F0E9
:100E000031F90F243A190648002300930123682181
:100E100009F01CFA3B191B781800BD4605B090BDBF
:100E20005818002080B582B000AF78607B68072238
:100E300000211800FFF74AFE7B68DA7B7B6811000F
:100E40001800FFF767FF03001A007B681A707B68C1
:100E50001A7C7B6811001800FFF75CFF03001A0082
:100E60007B685A707B681800FFF76FFF7B6818007B
:100E7000FFF75CFE7B6816331800BD4602B080BDEC
:100E800080B582B000AF78607B6801220421180031
:100E9000FFF71CFE7B68DA7C7B6811001800FFF707
:100EA00039FF03001A007B68DA707B68DB78180072
:100EB000BD4602B080BD80B582B000AF78607B686F
:100EC000012205211800FFF701FE7B681A7D7B686F
:100ED00011001800FFF71EFF03001A007B681A714B
:100EE0007B681B791800BD4602B080BD80B582B01A
:100EF00000AF78607B68012206211800FFF7E6FD4D
:100F00007B685A7D7B6811001800FFF703FF030020
:100F1000FA22D2009A187B689A607B689B68180056
:100F2000BD4602B080BD80B582B000AF78607B68FE
:100F3000072200211800FFF7C9FD7B68DA7C7B6877
:100F400011001800FFF7E6FE03001A007B68DA7054
:100F50007B681A7D7B6811001800FFF7DBFE030039
:100F60001A007B681A717B685A7D7B681100180033
:100F7000FFF7D0FE0300FA22D2009A187B689A602D
:100F80007B681800FFF73EFE7B6822331800BD46E1
:100F900002B080BD80B582B000AF7860C046BD466B
:100FA00002B080BD80B582B000AF7860C046BD465B
:100FB00002B080BD80B582B000AF786039607B68D8
:100FC000DB68054A1A403B689B021A437B68DA607B
:100FD000C046BD4602B080BDFF83FFFF80B584B030
:100FE00000AFF860B9601900FB1D1A70BB1D0A1C28
:100FF0001A70FB68DB68DB00DA08BB685B071A4322
:10100000FB68DA60FB685B68074A1A40FB1D1B78C7
:101010009B071A43BB1D1B785B071A43FB685A608A
:10102000C046BD4604B080BDFFFFFF9F80B582B0C3
:1010300000AF786008001100BB1C021C1A807B1CEA
:101040000A1C1A707B1C1B781A02BB1C1B881B0411
:101050001A437B681A60C046BD4602B080BD80B5A9
:1010600084B000AFF860B9607A60F86807F032FECB
:1010700003009AB2BB681A80BB681B88002B03D19F
:101080007B6800221A7017E0BB681B88180007F005
:10109000F9FD031C191CF86807F0D3FD031C872118
:1010A000C905181C07F0E7FD031C181C07F012FE09
:1010B0000300DAB27B681A70C046BD4604B080BD3A
:1010C000B0B584B000AF786039600D243A190E25B0
:1010D00079193B68181CFFF7C2FF7B1919883B1967
:1010E0001A787B681800FFF7A1FFC046BD4604B020
:1010F000B0BD000080B584B000AFF860B9607A6020
:10110000FB685B68064A1A40BB68DB011A437B68D0
:101110001B031A43FB685A60C046BD4604B080BD3D
:101120007F00FEFF90B585B000AFF86008001100A9
:101130007B600B243B19021C1A700A203B180A1C06
:101140001A70FB689B680B4A1A403B191B789B047A
:101150001A433B181B781B041A437B681905F823B4
:101160005B040B401A43FB689A60C046BD4605B05D
:1011700090BDC046FFFF0AFE90B585B000AFF86095
:10118000080011007B600B243B19021C1A700A2016
:101190003B180A1C1A70FB689B680B4A1A403B19E3
:1011A0001B78DB041A433B181B785B041A437B68EB
:1011B0005906F8239B050B401A43FB689A60C0460A
:1011C000BD4605B090BDC046FFFFF5C180B582B0F9
:1011D00000AF78600A00FB1C1A707B689B689B005C
:1011E0009A08FB1C1B789B071A437B689A60C046D1
:1011F000BD4602B080BD80B582B000AF78607B682C
:10120000180010231A00002107F044FE7B6800221A
:1012100001211800FFF70AFF7B681F220021180038
:10122000FFF768FF7868202300220121FFF77AFF8B
:101230007868202300220121FFF79EFFC0467868CE
:10124000BD4602B080BD000080B582B000AF7860BE
:1012500039607B681800FFF7A5FE7B68074A934258
:1012600001D1062300E007233A681900100001F0BD
:1012700081FBC046BD4602B080BDC0460000205084
:1012800080B584B000AFF860B960FB1D1A70FB68D0
:101290001800FFF787FEBB681800FFF77BFEFB68AE
:1012A0001B680121BA6891400A00D2431A40FB1D15
:1012B0001978BB6899400B001A43FB681A60C04656
:1012C000BD4604B080BD80B584B000AFF860B960A1
:1012D0007A60FB681800FFF765FEBB681800FFF72F
:1012E00059FEFB68BA68043292007968D150C04652
:1012F000BD4604B080BD80B582B000AF7860396073
:101300007B681800FFF74EFE3B681800FFF742FEAF
:101310007B685B683A681032012191400A001340F3
:101320005A1E9341DBB21800BD4602B080BD80B5A5
:1013300084B000AFF860B9607A60FB681800FFF70E
:1013400031FEBB681800FFF725FE00E0C046BA6812
:10135000FB6811001800FFF7CEFF031EF6D17A6874
:10136000B968FB681800FFF7AEFFC046BD4604B081
:1013700080BD80B582B000AF786039607B681800AE
:10138000FFF739FF3B68DA1C39687B681800FFF704
:10139000B1FE7868002300220121FFF71FFEC0463E
:1013A0007868BD4602B080BDB0B58CB002AFF860C1
:1013B000B9607A603B603A68FB6811001800FFF77B
:1013C00043FF3A68B968F8680123009301231FF0CE
:1013D000BAF910243B197A6811001800FFF7C9FF09
:1013E0003A683B1911001800FFF7E4FD3C23FB1895
:1013F0001B78002B01D0202300E01823102578193A
:1014000001220021FFF7B8FE7B1901211800FFF728
:10141000DDFE0A237B62052004F062FF0300180052
:1014200007F030FC041C786A07F032FC031CB96B2F
:10143000181C07F020FC031C191C201C07F007FCDB
:10144000031C3B623A6A7B19111C1800FFF738FE37
:101450007B197A68B968F8681FF014FAB968FB68F4
:1014600001221800FFF70CFFC046BD460AB0B0BD10
:1014700080B582B000AF78607B681B0204481A0018
:101480000021FFF754FFC046BD4602B080BDC046F4
:101490000000205090B583B000AF04000800110098
:1014A000FB1D221C1A70BB1D021C1A707B1D0A1C1E
:1014B0001A70FB1D1B781A02BB1D1B781B041A43F4
:1014C0007B1D1B7813431800BD4603B090BD000080
:1014D00080B586B002AF0D4BFB600023BB600C4AA9
:1014E000FB68110018001FF03BF803007B60B9682F
:1014F0007A68F86800230193064B00931223FFF7E4
:1015000053FFC046BD4604B080BDC0460000205019
:101510009C0A03100050434980B582B000AF0023FD
:101520007B6015E000233B600CE00D4B7A68D10036
:101530003A688A189200D3581800FFF799FF3B6861
:1015400001333B603B68072BEFDD7B6801337B6039
:101550007B68072BE6DDC046C046BD4602B080BDB5
:10156000E02F002090B58DB000AF78600C00100027
:101570001900FB1C221C1A70BB1C021C1A707B1C5D
:101580000A1C1A707B68180022F0E8F80300BB619F
:10159000BB69002B00D19CE00023FB6291E001239A
:1015A000BB621AE000237B6211E0BB6A5A1E4B4B00
:1015B000796AC800B96A41188900C958474B786AE6
:1015C000C00082189200D1507B6A01337B627B6A33
:1015D000072BEADDBB6A0133BB62BB6A072BE1DD87
:1015E000FB6A002B00DA0733DB101A007B6811005E
:1015F000180022F0B5F8020023217B1812781A7027
:101600000A00BB181B78002B02D1BB1820221A70CD
:101610002322BB181B785BB2002B02DABB182E22E8
:101620001A70FB6A2E4A134004D5013B082252422D
:10163000134301337B612323FB181B78203BDB0022
:101640007A69D3183B61274A3B69D3181A780F236C
:10165000FB181A700023FB6128E00F23FB180022FF
:101660009A56FB699A40130080221A400E203B18BC
:10167000511E8A411A703B181B78002B0AD07B1C24
:101680001A78BB1C1978FB1C1B781800FFF702FFA7
:10169000020000E00022FB690721CB1A0F495B0121
:1016A000CB181C331A60FB690133FB61FB69072B04
:1016B000D3DDFFF731FF642003F03CFBFB6A01330D
:1016C000FB62BB690133DB00FA6A9A4200DA66E723
:1016D00000E0C046BD460DB090BDC046E02F0020E2
:1016E000070000808497071080B582B000AF386093
:1016F00079603A687B6810001900BD4602B080BD71
:1017000080B584B000AFF8603A607B603A687B686F
:10171000002B05DA074B084A08483F2105F03EF840
:10172000F9683A687B680A604B60C046BD4604B001
:1017300080BDC046A40A0310280B0310C00A031082
:1017400080B584B000AF786003F0A8FB02000B0006
:10175000082179180800FFF7D3FF7968BA68FB6899
:101760000A604B607868BD4604B080BDB0B58AB0F1
:1017700000AFF8603A607B603A687B68100019003F
:10178000FFF7B2FF02000B00BA61FB61BB6B1C00EC
:1017900000231D00FA22920000232000290007F0F8
:1017A00033FA02000B0010001900BA69FB69121825
:1017B0004B413A627B623A6A7B6A002B04DA01226F
:1017C0005242094B3A627B623A6A7B6A102179186D
:1017D0000800FFF795FFF9683A697B690A604B607A
:1017E000F868BD460AB0B0BDFFFFFF7F80B586B088
:1017F00002AF786039600823FB181800FFF7A0FFDC
:101800007868BA68FB6839680091FFF7AFFF7868BD
:10181000BD4604B080BD000090B59DB000AF19F08A
:1018200083FB031E05D01F4B180007F09BFD01230F
:1018300033E01D4BFB660023BB661C4AB96EFB6E92
:10184000180019F0D7FA1A4BBB651A4BFB655C23DD
:10185000FA18582439190C23FB18180000F040FC22
:101860003A193B1D1100180000F08EFE21F076FEA3
:1018700000F0ACFE01F000F819F01AFB6023FB1831
:10188000FA22920011001800FFF7B0FF3A6E7B6E4B
:101890001000190019F018FBEEE71800BD461DB046
:1018A00090BDC046040B03101C0B03100400400045
:1018B000C0A80401FFFFFF0080B582B000AF386010
:1018C00079603A687B6810001900BD4602B080BD9F
:1018D00080B584B000AFF8603A607B603A687B689E
:1018E000002B05DA074B084A08483F2104F056FF51
:1018F000F9683A687B680A604B60C046BD4604B030
:1019000080BDC046400B0310F40B03105C0B0310AA
:1019100080B584B000AF786003F0C0FA02000B001D
:10192000082179180800FFF7D3FF7968BA68FB68C7
:101930000A604B607868BD4604B080BD80B582B057
:1019400000AF3860796079680A0000210B0011004F
:1019500019430AD038687968FA229200002306F009
:10196000D9FC02000B00130006E03B68FA2291004C
:10197000180006F091FC03001800BD4602B080BDBF
:1019800080B584B000AF386079603A687B68100039
:101990001900FFF791FF02000B00BA60FB60BA6804
:1019A000FB6810001900FFF7C9FF03001800BD46CF
:1019B00004B080BD80B582B000AF3B001800FFF7D7
:1019C000A7FF3A687B6810001900FFF7D9FF0300F2
:1019D0001800BD4602B080BD80B584B000AFF8608D
:1019E000B9607A6013F05EFF0200FB681A60FB6862
:1019F0001B68002B02D10C235B4207E0FB681B68CD
:101A0000BA687968180013F0F7FE00231800BD4685
:101A100004B080BD80B582B000AF78600A00BB1C06
:101A20001A807B681868BB1C1A88044B190013F0D5
:101A3000EDFD03001800BD4602B080BD6C540310DC
:101A4000B0B58AB002AFF860B9607A603B603A68BE
:101A500080235B029A4201D3304B3B603B689BB2D0
:101A6000A0229200190036200BF0A8F80300BB61F9
:101A7000BB69002B02D10C235B424AE0BB695B6867
:101A80003A687968180007F00BFA3B6B1A063B6B53
:101A90001902FF231B040B401A433B6B190AFF2357
:101AA0001B020B401A433B6B1B0E13437B61BB684D
:101AB000002B11D0FB6818681F23FC183423FB1877
:101AC0001D881423FA18B969BB6800932B0013F022
:101AD000D9FB030023700DE0FB6818681F23FC1876
:101AE0003423FB181B881422BA18B96913F06CFB55
:101AF00003002370BB6918000BF056FB1F22BB18B4
:101B00001B785BB2002B03D0BB181B785BB200E0E4
:101B10003B681800BD4608B0B0BDC046FFFF0000DE
:101B200080B584B000AF78600A00FB1C1A700023F7
:101B3000FB6014E0FB687A68D3181B78FA1C1278F3
:101B40009A4203D1FB687A68D31814E0FB6801332A
:101B50007A68D3181B780233FA68D318FB60FA68E6
:101B60009A235B009A4205DAFB687A68D3181B78DF
:101B7000FF2BDFD100231800BD4604B080BD80B527
:101B800086B000AFF8607A603B600B203B180A1CFF
:101B90001A70FB681B687B617B695A1C7A613A1872
:101BA00012781A707B695A1C7A617A68D2B21A70FC
:101BB0007A6839687B69180007F072F97A697B687E
:101BC000D218FB681A60C046BD4606B080BD80B51D
:101BD00084B000AF786008001100FB1C021C1A7072
:101BE000BB1C0A1C1A707B681B68FB60FB685A1CD4
:101BF000FA60FA1C12781A70FB685A1CFA6001220B
:101C00001A70FB685A1CFA60BA1C12781A707B684A
:101C1000FA681A60C046BD4604B080BD80B586B083
:101C200000AFF8607A600B203B180A1C1A70FB6842
:101C30001B687B617B695A1C7A613A1812781A70AA
:101C40007B695A1C7A6104221A707B68190E7B69C1
:101C50005A1C7A61CAB21A707B68190C7B695A1CCB
:101C60007A61CAB21A707B68190A7B695A1C7A6158
:101C7000CAB21A707B695A1C7A617A68D2B21A7039
:101C8000FB687A691A60C046BD4606B080BD000098
:101C9000F0B5D6464F464646C0B5754CA54408AF8C
:101CA000F860B9607A603B60FB689524A4003A193B
:101CB00013607B681B89F22B00D8E6E189239A0028
:101CC00018257919786800230BF09AFC03009422F8
:101CD0009200B9180B60BB181B68F22B00D8D6E134
:101CE000644B982189005B18DB1902221A703B199A
:101CF0001A68604B5B18DB191033110004221800BE
:101D000007F0CEF87B19EC337B617B6904337B6190
:101D10007B6935211800FFF703FF0300932292002F
:101D2000B9180B60BB181B68002B00D1B1E1BB18C0
:101D30001B6802331B78012B03D0032B00D19FE0DB
:101D4000B2E1082397229200BA181360002396226A
:101D50009200BA1813606AE09624A4003B191B682D
:101D60000133DB0095229200BA181268D0181823AC
:101D7000FB181C33062219002BF026F8031E06D18F
:101D80003B191B6897229200BA18136055E09724FC
:101D9000A4003B191B68082B42D19625AD007B1986
:101DA0001B680133DB0095229200BA181268D31821
:101DB0003149062218002BF007F8031E03D17B19C6
:101DC0001B683A1913609525AD007B191A68962493
:101DD000A4003B191B680133DB00D31806331B88B2
:101DE0001B04264A13439026B600BA191360FFF766
:101DF000E1FD0200BB191B689B1A11D53B191B683A
:101E00000133DB007A191268D3180622002118006A
:101E100007F040F83B191B6897229200BA1813602C
:101E200096229200BB181B680133BA1813609623E0
:101E30009B00FB181B68072B8EDD97229200BB18B6
:101E40001B68082B00D126E1BB181B68DBB21033DE
:101E5000DAB2084B982189005B18DB19DA74142375
:101E6000FB18022235211800FFF7B1FEC7E0C0467B
:101E700080FDFFFFB8FDFFFFA00B0310FFFF000078
:101E80007B6932211800FFF74BFE03009224A40067
:101E90003A1913603B191B68002B00D1FDE03B1978
:101EA0001B6802339525AD007A19116803221800CA
:101EB0002AF08AFF031E00D0F1E03B191B680533AE
:101EC0001A78804C3B19103A1A703B191B78072B73
:101ED00000D9E6E03B191B780133DB007A19126860
:101EE000D0181826BB191C33062219002AF06CFFE3
:101EF000031E1BD03B191B780133DB007A191268D3
:101F0000D3187149062218002AF05EFF031E00D084
:101F1000C9E03B191B780133DB007A191268D0182D
:101F2000BB191C330622190006F0BAFFFFF742FD69
:101F30000300664A944663441A0C62483B181B78B7
:101F400091B295229200BA1812680133DB00D318BF
:101F500006330A1C1A803B181B781033DAB25C4B2C
:101F60009824A4001B19DB19DA741423FB1805222A
:101F700035211800FFF72BFE554B20001B18DB19ED
:101F80001B7F9846524B1B18DB195B7F9946504BC1
:101F90001B18DB199B7F9A464D4B1B18DB19DB7F07
:101FA00019004B4B1B18DB1920229B5C1C00484B73
:101FB0001B18DB1921229B5C1A00454B1B18DB19EF
:101FC0001B7C1D00424B1B18DB195B7C1E00404B29
:101FD0001B18DB199B7C9C463D4B1B18DB19DB7CDB
:101FE0003C48069363460593049603950292019438
:101FF000009153464A46414607F00AFBC0469524E5
:10200000A4003B191B681425781904223621FFF718
:10201000B6FD3B191B680433781904220121FFF730
:10202000AEFD3B191B68781904220321FFF7A7FDB9
:102030003B191B68781904220621FFF7A0FD264AE8
:102040007B1933211800FFF7E9FD7B695A1C7A617F
:10205000FF221A70214B5B688F2189007A18136068
:102060003B191B68483318007A6918257B19D31A65
:102070001C007A197B1819684423019301235B42E1
:1020800000932300FFF7DCFC0EE0C0460CE0C046E6
:102090000AE0C04608E0C04606E0C04604E0C0468C
:1020A00002E0C04600E0C0467B6818000BF07CF8F8
:1020B000C046BD4698239B009D44E0BCBA46B1464D
:1020C000A846F0BD47020000A00B0310005C2605E7
:1020D000B8FDFFFFA80B031080510100E839002074
:1020E00080B584B000AFF860B9607A60BB681A68E8
:1020F000FB681A607B681A68FB685A60FB680833E3
:1021000040220021180006F0C5FEFB684833094A4A
:10211000F9681800FFF760FC031E06D1FB6848331E
:1021200043211800FFF776FC00E0C046BD4604B02E
:1021300080BDC046911C001080B584B000AFF8602F
:10214000B9607A6013F0AEFB0200FB681A60FB68AE
:102150001B68002B02D10C235B4207E0FB681B6865
:10216000BA687968180013F047FB00231800BD46D1
:1021700004B080BDB0B586B000AFF860B960BB1DDB
:102180001A80BB681A06BB681902FF231B040B40A8
:102190001A43BB68190AFF231B020B401A43BB6892
:1021A0001B0E13433B61FB68186817257C19BB1D88
:1021B0001A881023FB18190013F028FA0300237063
:1021C0007B191B785BB2002B0ED0BB1D19887B19C5
:1021D00000229A56084B180007F01AFA074B084AD3
:1021E0000848382104F0DAFA1723FB181B785BB291
:1021F0001800BD4606B0B0BD0C0C0310300C031027
:10220000C40C0310380C0310B0B586B000AFF860F2
:10221000B9607A603B607A6880235B029A4201D39E
:10222000214B7B607B689BB2A02292001900362074
:102230000AF0C4FC03007B617B69002B06D11B4BB9
:10224000180007F08FF80C235B4229E07B695B687C
:102250007A68B968180006F023FEFB681868132531
:102260007C192823FB181B883A68796912F0ACFFA7
:10227000030023707B6918000AF096FF7B191B7816
:102280005BB2002B0BD07B1900229A56084B110031
:10229000180007F0BDF97B191B785BB200E07B6882
:1022A0001800BD4606B0B0BDFFFF0000780C03105B
:1022B000A40C0310F0B5DBB002AFF860B9607A602F
:1022C0003B60FB68AC225200BA18136010257B19E2
:1022D000AA2464003A19136096235A007919786881
:1022E00000230BF08DF90300A8225200B9180B60EF
:1022F000B9180B680B2B00D830E1260039190B6890
:102300005B88A72149007C18180009F087F90300B1
:102310002380B81903689B88A6267600BC1918008C
:1023200009F07CF903002380A72149007B181B8852
:10233000DB0B9BB21A000123134000D010E17B1885
:102340001B88DB0A9BB21A000F23134000D009E15F
:10235000BB191B88002B00D106E17B190C33A4218B
:102360004900781803607A19A8235B00FB181B68E2
:10237000D318A2225200BA1813607B181B68AE2231
:102380005200BA18136024E0AE225200BB181B683A
:102390001B78002B05D1BB181B680133BA181360DA
:1023A00021E0AE2149007B181B685A1C7818026096
:1023B0001B78A0225200B8180360BB181B683F2B83
:1023C00000DDD3E0BB181B687A181268D3187A189E
:1023D0001360AE235B00FB181A68A2235B00FB1896
:1023E0001B689A42D0D3AE2149007B181A68A424F6
:1023F00064003B191B68D31AFF2B00DDB8E07B1883
:102400001B6804337A1813607B181B689E204000F9
:102410003A1813603B181B685A1C39180A60C0220E
:102420001A701026BB193A191268D11A3B181B688A
:102430005A1C3C182260CAB21A703B181B685A1CFE
:10244000040039180A6000221A703B191B685A1CD4
:1024500039190A6001221A703B191B685A1C391974
:102460000A6000221A703B191B685A1C39190A604D
:1024700001221A703B191B685A1C39190A60002284
:102480001A703B191B685A1C39190A6000221A700D
:102490003B191B685A1C39190A6000221A703B1933
:1024A0001B685A1C39190A603C221A703B191B68B8
:1024B0005A1C39190A6000221A703B191B685A1CF1
:1024C00039190A6004221A70AC235B00FA181368E9
:1024D000191D3A1913680422180006F0E1FC3A1994
:1024E000136804333A191360264B180009F096F864
:1024F00003001A00AA256D0079190B685A80012083
:1025000009F08CF803001A0079190B689A800120F1
:1025100009F084F803001A0079190B68DA807A1937
:10252000136800221A817A19136800225A81AC2399
:102530005B00FB181868BB193A191268D31A1C0003
:102540003A68B919B8235B0008255B19DB191B88A9
:10255000009313002200FFF757FE0AE0C04608E090
:10256000C04606E0C04604E0C04602E0C04600E0C7
:10257000C0467B6818000AF017FEC046BD4659B039
:10258000F0BDC0468084000080B582B000AF7860A6
:1025900039607B680C4A79681800FFF7CDFD031E8F
:1025A0000CD17B68352200211800FFF7E3FD031EE4
:1025B00006D13B681A687B685A6002E0C04600E0BA
:1025C000C046BD4602B080BDB522001080B582B0C5
:1025D00000AF00237B6010E00E4B7A689200D35866
:1025E00018002BF059FC0300082B03D90A4B1800E4
:1025F00004F002F97B6801337B607B68012BEBD927
:102600000449064B0222180020F0C8FFC046BD4610
:1026100002B080BD300100201C0D0310C10000205D
:1026200080B582B000AF786039601F4A3B68110006
:1026300018002BF09FFB031E01D0002330E03B6805
:10264000180006F08FFE7B6814220021180006F0A7
:1026500021FCB8235B00180009F0C4FD02007B6870
:10266000DA607B68DB68002B1AD07B68DA680F4B76
:1026700010001900B8235B001A0006F011FC7B68FB
:10268000DA687B681A607B687022FF325A607B6868
:102690005A687B689A607B6801221A740123FFE7FD
:1026A0001800BD4602B080BD4C0D0310740E03101F
:1026B00080B582B000AF78607B68002B0BD07B6860
:1026C000DB68002B07D07B68DB68180009F0B4FDDD
:1026D0007B680022DA60C046BD4602B080BD0000C3
:1026E00080B584B000AFF860B9607A601A00BB1C96
:1026F0001A801A4B180006F035FEBA68184B110004
:10270000180006F085FF7A68164B1100180006F0D5
:102710007FFFBB1C1A88144B1100180006F078FFCD
:10272000124B180006F074FFFA69114B11001800E3
:1027300006F06EFF2023FB181A880E4B11001800BC
:1027400006F066FF7A6A0C4B1100180006F060FF75
:1027500000231800BD4604B080BDC046640D0310C0
:10276000800D03108C0D0310A00D0310B80D031085
:10277000CC0D0310E00D0310F80D031080B586B0EA
:1027800000AF786039603B685B891A001F4B11000D
:10279000180006F03DFF1723FB18FA221A707B6819
:1027A000002B23D03B68002B20D0194B180006F0DB
:1027B0002FFF3B685B68FB6000233B6109E03B69DE
:1027C000FA68D3181B78180006F0B8FD3B6901338E
:1027D0003B613B685B891A003B699342EFDB0A204F
:1027E00006F0ACFD1723FB1800221A703B68002B83
:1027F00003D03B6818000AF0D7FC1723FB181B789E
:102800005BB21800BD4606B080BDC0460C0E03107A
:10281000380E031080B584B000AFF860B960BB1DFE
:102820001A80074B180006F09DFDBB1D1A8805494C
:10283000BB6818002AF0E0FBC046BD4604B080BD6E
:10284000480E0310640E031080B584B000AFF8602A
:10285000B9607A603B607B681A683B681B68B9683E
:10286000034806F0D5FE034B1800BD4604B080BDFA
:10287000E40F03102410031080B500AF034B0121B7
:10288000180020F0C5FEC046BD4680BD40100310B4
:1028900080B582B000AF7860C046BD4602B080BD52
:1028A00080B582B000AF7860D0231B067A685A6189
:1028B000C046BD4602B080BD80B582B000AF786032
:1028C000D0231B067A689A61C046BD4602B080BD1F
:1028D00080B584B000AF78600A00FB1C1A7001223A
:1028E0007B689A401300FB60FB1C1B78002B04D014
:1028F000FB681800FFF7D4FF03E0FB681800FFF740
:10290000DBFFC046BD4604B080BD80B582B000AFDD
:102910007860D0231B067A685A62C046BD4602B072
:1029200080BD80B582B000AF7860D0231B067A6886
:102930009A62C046BD4602B080BD80B584B000AF8B
:1029400078600A00FB1C1A7001227B689A40130011
:10295000FB60FB1C1B78002B04D0FB681800FFF702
:10296000D4FF03E0FB681800FFF7DBFFC046BD465D
:1029700004B080BD80B588B000AF78600A00FB1C51
:102980001A707B681800FFF783FF7B689B00124A70
:1029900094466344FB614023BB61C0237B61FB69B8
:1029A0001A68BB6953407A691340FA693A61FB605F
:1029B0003B69802252011343FA681A60C046C04640
:1029C0000649FB1C1A787B68DB00CB1804331A60BD
:1029D000C046BD4608B080BD04C001400040014073
:1029E00080B588B000AF786008001100FB1C021CA5
:1029F0001A70BB1C0A1C1A707B681800FFF748FF8E
:102A00007B689B00144A9918FB1C1B78002B01D093
:102A1000082200E00022BB1C1B78002B01D00423FD
:102A200000E000231343F961BB610C237B61FB6968
:102A30001A68BB6953407A691340FA693A61FB60CE
:102A40003B69802252011343FA681A60C046C046AF
:102A5000C046BD4608B080BD04C0014080B586B008
:102A600000AF78600A00FB1C1A707B681800FFF743
:102A70000FFFFB1C1B78002B0ED07B689B00104ABD
:102A8000944663447B6102233B617B69802292010F
:102A900013433A691A600EE07B689B00084A94462B
:102AA0006344FB600223BB60FB68C02292011343B6
:102AB000BA681A60C046C046BD4606B080BDC04672
:102AC00004C0014080B58AB000AFF860B9603B60D7
:102AD000FB1D1A70BA68FB681100180000F0B2F80C
:102AE000FB68DB089B003A68D3187B62FB6807220F
:102AF00013409B00BA689A401300BB60FB1D1B7813
:102B0000002B0AD07B6A3B62BB68FB613B6A802278
:102B100092011343FA691A600AE07B6ABB61BB68E1
:102B20007B61BB69C022920113437A691A60C04677
:102B3000C046BD460AB080BD90B587B000AFF86012
:102B4000B960FB1D1A70D0231B061B68002B01D037
:102B5000074B00E0074B7B617C69FB1D1A78B96865
:102B6000F8682300FFF7AEFFC046BD4607B090BD32
:102B7000304101400041014080B584B000AFF860B1
:102B8000B960FB1D1A70D0231B061A68104B920007
:102B9000D358FA68134005D00E4B0F4A0F48CC218A
:102BA00003F0FCFDD0231B061B68094A99008958D5
:102BB000FA681143064A9B009950FB1D1A78BB68BE
:102BC00019000D2000F0D4FBC046BD4604B080BD06
:102BD00034D4002048100310E010031074100310C8
:102BE00080B582B000AF78603960D0231B061A68C8
:102BF000104B9200D3587A68134005D10E4B0F4A00
:102C00000F48D62103F0CAFD3B6819000D2000F0E3
:102C10001BFDD0231B061B68064A99008A58796859
:102C2000C9431140034A9B009950C046BD4602B0BB
:102C300080BDC04634D40020B4100310141103101A
:102C40007410031080B582B000AF786039607B6883
:102C50001800FFF71DFE7B68072213409A00064804
:102C60007B68DB08396891400A003C339B001A50AE
:102C7000C046BD4602B080BD0040014080B582B074
:102C800000AF78607B6800211800FFF756FE7B6874
:102C900000211800FFF71CFE7B6805211800FFF7D4
:102CA00069FEC046BD4602B080BD000080B500AFE1
:102CB000044B1B68022213405A1E9341DBB21800DA
:102CC000BD4680BD00C0064080B586B000AF0B2376
:102CD0007B607B680F4A944663449B007B61EFF303
:102CE000108372B63B613B69FB607B69BB60C04689
:102CF000BB681B685A425341DBB2002BF8D1BFF3CB
:102D00005F8FC046C046C046FB681800BD4606B08F
:102D100080BDC0464000003480B588B000AF786008
:102D20000B23FB60FB680E4A944663449B00FB61E7
:102D30007B68BB61FB697B61BFF35F8FC046C046A8
:102D40007B6900221A60C046BB693B613B6983F323
:102D50001088C046C046C046BD4608B080BDC046CB
:102D60004000003480B582B000AF786039603B68C5
:102D7000DB087A68D3181B7819003B6807221340D8
:102D800001229A4013000B405A1E9341DBB21800F7
:102D9000BD4602B080BD80B586B000AFF860B960B6
:102DA0007A60FFF791FF03007B61BA68FB6811004E
:102DB0001800FFF7D7FF031E05D0BA687B68110023
:102DC000180003F019FDBB68DB08FA68D3181978FE
:102DD000BB680722134001229A401300DAB2BB6895
:102DE000DB08F868C3180A43D2B21A707B6918006E
:102DF000FFF792FFC046BD4606B080BD80B588B0E3
:102E000000AFF8607A603B600B23FB180A1C1A7055
:102E1000FFF75AFF03007B6101235B42FB617B6884
:102E2000BB6125E0BA69FB6811001800FFF79AFF43
:102E300003001A0001235340DBB2002B15D0BB69FD
:102E4000DB08FA68D3181978BB69072213400122FE
:102E50009A401300DAB2BB69DB08F868C3180A436A
:102E6000D2B21A70BB69FB6106E0BB690133BB617A
:102E7000BA693B689A42D5D97B691800FFF74CFFC5
:102E8000FB69002B08DA0B23FB181B78002B03D0FF
:102E9000BB6A180003F0B0FCFB691800BD4608B01F
:102EA00080BD000080B584B000AF78603960FFF766
:102EB0000BFF0300FB603A687B6811001800FFF706
:102EC00051FF031E05D1114B114A1248332103F063
:102ED00065FC3B68DB087A68D3181A783B680721E1
:102EE0000B40012199400B00DBB2DB43D9B23B68B8
:102EF000DB087868C3180A40D2B21A70FB68180061
:102F0000FFF70AFFC046BD4604B080BD381103106C
:102F1000981103105811031080B584B000AF00233E
:102F2000FB6012E0FB687B607B680C4A944663445C
:102F30009B00BB60BFF35F8FC046C046BB680022EA
:102F40001A60C046FB680133FB60FB681F2BE9D9A0
:102F5000C046C046BD4604B080BDC04640000034F7
:102F600080B582B000AF094B1B785A1CD1B2074A1A
:102F700011707B60054B1B78172B02D9034B102275
:102F80001A707B681800BD4602B080BDAC170020E7
:102F900080B582B000AF7860C046BD4602B080BD4B
:102FA00080B500AF024B9B681800BD4680BDC0468F
:102FB00000ED00E080B582B000AF78607B68012250
:102FC00013431800BD4602B080BD80B582B000AF8B
:102FD00078607B68012293431800BD4602B080BD33
:102FE00080B58AB000AFF860B9607A60FFF7D8FFAB
:102FF0000200FB6810339B00D318BA681A60BFF355
:103000005F8FC04609237B617B690E4A9446634407
:103010009B007B627B683B627B6AFB61BFF35F8FD7
:10302000C046C046FB6900221A60C0463B6ABB61CD
:10303000BB6983F31088C046C046C046BD460AB08F
:1030400080BDC0464000003480B582B000AF7860DB
:103050000A00FB1C1A707B681800FFF799FF012219
:103060007B689A40FB1C1B781900100000F01CF8CC
:10307000C046BD4602B080BD80B582B000AF78606A
:103080007B681800FFF784FF01227B689A40054B9C
:103090001B6813405A1E9341DBB21800BD4602B0B4
:1030A00080BDC04600E100E080B582B000AF78602E
:1030B0000A00FB1C1A70FB1C1B78002B06D0074B68
:1030C0007A681A60064B7A681A6002E0054B7A68E3
:1030D0001A60C046BD4602B080BDC04680E200E036
:1030E00000E100E080E100E080B582B000AF7860F0
:1030F0007A68054BD21A2F21002391425B41DBB243
:103100001800BD4602B080BDB017002080B582B067
:1031100000AF78607B681800FFF73AFFFFF740FFC9
:1031200002007B6810339B00D3181B681800BD4653
:1031300002B080BD80B58AB000AF786039607B682E
:103140001800FFF725FF0923BB60BB681D4A9446A2
:1031500063449B007B627B6ABB61EFF3108372B6B2
:103160007B617B693B61BB69FB60C046FB681B6898
:103170005A425341DBB2002BF8D1BFF35F8FC046F8
:10318000C046C0463B693B627B681800FFF7BEFF44
:103190000300FB61FA690C4B9A4209D0FA693B685B
:1031A0009A4205D0094B0A4A0A48862103F0F6FAEA
:1031B0003A6A39687B681800FFF712FFC046BD46BF
:1031C0000AB080BD40000034CD010010A8110310EA
:1031D000E8130310E011031080B586B000AF7860EB
:1031E00039607B687B613B683B613A697B69D31AD4
:1031F000043BFB60FB680F4A934207DBFB680E4A07
:10320000934203DCFB680122134005D00B4B0C4AB0
:103210000C48A32103F0C2FAFB685B101BB25B05EC
:103220005B0D1BB2084A13431BB29BB21800BD468C
:1032300006B080BD00F8FFFFFE0700001C1203105F
:1032400004140310E011031000E0FFFF80B586B006
:1032500000AF786039607B687B613B683B613A69AD
:103260007B69D31A043B5B08FB60FB68DB0A05D073
:103270000E4B0F4A0F48AB2103F090FAFB68DB0AB4
:103280009BB25B055B0D9BB20B4A13439AB27B6802
:103290001A80FB689AB27B68023308490A4392B2EB
:1032A0001A80C046BD4606B080BDC0464C12031011
:1032B00010140310E011031000F0FFFF00F8FFFFEF
:1032C00080B584B000AF78607B681B88DB0A9BB256
:1032D0001C2B05D00D4B0E4A0E48B12103F05EFAAF
:1032E0007B681B885B05FB60FB68002B02DA0A4ADF
:1032F000944663445B15FB60FB6802335B007A68AD
:10330000D3181800BD4604B080BDC0465C1203103F
:1033100040140310E0110310FFFF1F0080B584B0BC
:1033200000AF78603960084BFB603968FA687B68E9
:103330005B1A5B415A43120DFA607B60FB685BB21B
:103340001800BD4604B080BDAAAA000080B582B0B6
:1033500000AF7860054A7B6811001800FFF7DEFFB8
:1033600003001800BD4602B080BDC046B017002063
:1033700090B59BB000AFF860B960FB1D1A70FB6898
:103380001800FFF705FE09237B637B6BA04A944678
:1033900063449B00BB65BB6D7B64EFF3108372B627
:1033A0003B643B6CFB637B6CBB63C046BB6B1B68C5
:1033B0005A425341DBB2002BF8D1BFF35F8FC046B6
:1033C000C046C046FB6B7B65924B1B785BB2002B03
:1033D00005DA914B914A9248D72103F0DFF98D4BE2
:1033E0001B785BB21A0013005B009B189B008D4A90
:1033F0009B183B654F23FB18864A12781A703B6D69
:1034000006229A56834B1A70FFF7CAFD0200FB682A
:1034100010339B00D3181B687B667B6E1800FFF788
:1034200063FE03001A0001235340DBB2002B31D0AE
:103430007A6E7D4B9A4205D07C4B784A7848DE21E3
:1034400003F0ACF928243B19794A1A803B6D02330A
:10345000784A11001800FFF7BFFE03001A00210090
:103460007B185A807B18744A9A807B18FF229A71C5
:103470007B18FA1D1278DA717B18BA689A603B6D76
:103480007A1813CA13C33B6D1800FFF793FD0300AE
:103490007B66B2E07A6E634BDB43D3180C211800D5
:1034A00004F0FAFE0B1E05D0644B5C4A5C48EA212E
:1034B00003F074F900233B667B6E1800FFF785FD6F
:1034C0000300BB64BB6CFB6511E0FB6D3B66FB6DF1
:1034D0009B795BB2002B11DBFB6D9B795BB21A0011
:1034E00013005B009B189B004E4A9B18FB65FB6D0D
:1034F000DB79FA1D12789A42E7D300E0C0463B6EB2
:10350000002B40D01C217B184D4A1A807B188F223B
:10351000D2015A803B6E9B795BB2002B0EDB3B6D78
:103520001C1D3B6E04331800FFF7CAFE0300190090
:103530002000FFF751FE03001A0000E0414A1C245E
:103540003B199A803B6E06229A563B199A713B1999
:10355000FA1D1278DA713B19BA689A603B6E04332F
:103560003A6D11001800FFF737FE03001A003B6E9A
:103570009A803B6E4F22BA1812789A713B6D3A19B5
:1035800013CA13C339E010243B19294A1A803B6D32
:103590000233284A11001800FFF71EFE03001A002C
:1035A0003B195A803B6D0433BA6C11001800FFF7C9
:1035B00013FE03001A003B199A80BB6C1800FFF73A
:1035C000C5FE03001A003B199A713B19FA1D1278C7
:1035D000DA713B19BA689A603B6D3A1913CA13C382
:1035E000BB6C174A1A80BB6C8F22D2015A803B6D8C
:1035F0001800FFF7DFFC03007B667A6D796EFB68CD
:103600001800FFF7EDFCC046BD461BB090BDC0469C
:1036100040000034BCD6002074120310281403109C
:10362000E0110310B0170020CD0100109C12031010
:1036300000A1FFFFE017002001BDFFFFC41203102F
:103640000148000001BD000090B593B000AF786064
:1036500039600923FB60FB68844A944663449B00FD
:10366000BB63BB6BFB61EFF3108372B6BB61BB69DD
:103670007B61FB693B61C0463B691B685A42534111
:10368000DBB2002BF8D1BFF35F8FC046C046C04607
:103690007B697B63FFF784FC02007B6810339B002F
:1036A000D3181B687B647A6C714B9A4200D1D0E0CE
:1036B0007A6C3B689A4200D1CBE07B6C1800FFF734
:1036C00013FD031E00D1C6E03323FC187B681800ED
:1036D000FFF7D2FC030023707B6800211800FFF77E
:1036E000B3FCBFF35F8FC046EFF30583BB60BB68DD
:1036F000FB62FB6A002B0BD07B681033FA6A9A429C
:1037000006D05C4B5C4A3621FF315C4803F046F83A
:1037100000233B647B6C1800FFF757FC0300BB627F
:10372000BB6AFB6311E0FB6B3B64FB6B9B795BB299
:10373000002B10DBFB6B9B795BB21A0013005B0064
:103740009B189B004E4A9B18FB63FB6B9B683A6877
:103750009A42E8D100E0C046FB6B9B683A689A4207
:1037600067D127217B18FA6B92791A700A00BB186F
:103770001B787F2B38D8BB1800229A5613005B00A9
:103780009B189B003E4A9B183B623B6A9A68FB6B06
:103790009A603B6ADA79FB6BDA713B6A06229A56C9
:1037A000FB6B9A713B6A9B795BB2002B0EDBFB6B68
:1037B0001C1D3B6A04331800FFF782FD030019004B
:1037C0002000FFF709FD03001A0000E02D4AFB6B03
:1037D0009A802D4B00229A563B6A9A712A4B2722D7
:1037E000BA1812781A702BE0FB6A002B19D13B6CC7
:1037F000002B06D03B6CFF229A713B6C234A9A80C7
:1038000001E01B4B7B64204B00229A56FB6B9A71A4
:10381000FB6B1800FFF79AFD03001A001A4B1A7091
:103820000EE0FB6B04331A4A11001800FFF70EFD7F
:1038300006E0184B104A6A21FF31104802F0AEFF33
:103840003323FB181A787B6811001800FFF7FCFB84
:1038500001E0074B7B647A6B796C7B681800FFF79B
:10386000BFFBC046BD4613B090BDC046400000340B
:10387000CD0100103813031050140310E011031091
:10388000B017002001BD0000BCD6002001BDFFFF25
:10389000EA1700206C13031090B595B000AF786064
:1038A0007B681800FFF786FB03007B647B6C1800C5
:1038B000FFF71AFC031E06D15B4B5C4AC721490087
:1038C0005B4802F06BFFEFF305833B633B6B3B64AC
:1038D0003B6C002B06D1574B544A9221FF31544880
:1038E00002F05CFF0923FB61FB69534A9446634481
:1038F0009B00FB63FB6BFB62EFF3108372B6BB6252
:10390000BB6A7B62FB6A3B62C0463B6A1B685A42E9
:103910005341DBB2002BF8D1BFF35F8FC046C046E6
:10392000C0467B6ABB633723FC187B681800FFF72F
:103930000DFD03002370FFF733FB02003B6C9B007F
:10394000D3181B687A6C9A4208D1FFF729FB020052
:103950003B6C9B00D318394A1A6041E04F23FB1897
:1039600000221A700023BB642BE03549BA6C1300A7
:103970005B009B189B00CB1806331B785BB2372289
:10398000BA18127852B29A4218D12D49BA6C130063
:103990005B009B189B00CB180633FF221A70284946
:1039A000BA6C13005B009B189B00CB180433254AAC
:1039B0001A804F23FB1801221A7005E0BB6C0133FB
:1039C000BB64BB6C032BD0D94F23FB181B78002B97
:1039D00006D11D4B154AD1214900154802F0DEFEE3
:1039E0001A4B00229A567B689A71184B3722BA18E4
:1039F00012781A70FB6BBB61BB6B7B61BB693B616F
:103A0000BFF35F8FC046C0463B6900221A60C046C4
:103A10007B69FB60FB6883F31088C046C046C046E4
:103A2000BD4615B090BDC046741303106414031056
:103A3000E01103109C13031040000034CD0100106E
:103A4000B017002001BDFFFFA8130310BCD6002053
:103A500080B584B000AF0B4B7B600B4BFB60002349
:103A6000BB6007E0FB681A1DFA607A681A60BB68E1
:103A70000133BB60BB68072BF4D9C046C046BD46C6
:103A800004B080BD8080808000E400E090B583B009
:103A900000AF786008001100BB1C021C1A803B00BC
:103AA0000A1C1A807C68FFF75BFA030019002000EB
:103AB00000F010F87B68BA1C12889A807B683A0084
:103AC0001288DA80BFF35F8FC046C046C046BD464D
:103AD00003B090BD80B584B000AF786039603B68BA
:103AE000FB60FB68054A944663449B001A007B68B0
:103AF0001A60C046BD4604B080BDC04640000034D8
:103B000090B583B000AF78607C68FFF729FA0300B6
:103B100019002000FFF7DEFF7B68FF221A71BFF358
:103B20005F8FC046C046C046BD4603B090BD90B54D
:103B300083B000AF78607C68FFF712FA03001900C9
:103B40002000FFF7C7FF7B68FF221A717B68002205
:103B50005A71BFF35F8FC046C046C046BD4603B032
:103B600090BD80B582B000AF386079603A687B68FC
:103B700010001900BD4602B080BD000080B584B0C1
:103B800000AFF8603A607B603A687B68002B05DA2A
:103B9000074B084A08483F2102F000FEF9683A68DE
:103BA0007B680A604B60C046BD4604B080BDC0461D
:103BB0009015031028190310AC150310B0B586B08A
:103BC00000AF386079603A687B6810001900FFF731
:103BD000C8FF02000B003A617B617B691C00002377
:103BE0001D002300FB600D4B5B6ABB60BA68FB687D
:103BF0009A420AD3094B9A6A3B699A4203D2BA683D
:103C0000FB689A4201D0012300E000231A1C012323
:103C10001340DBB21800BD4606B0B0BD0040054001
:103C200080B584B000AF786001F038F902000B0075
:103C3000082179180800FFF7A1FF7968BA68FB68C6
:103C40000A604B607868BD4604B080BD80B58AB01C
:103C500000AFF8603A607B603A687B68100019003A
:103C6000FFF77FFF02000B00BA61FB61B869F969D9
:103C70003A6B7B6B12184B413A627B623A6A7B6A01
:103C8000002B04DA01225242094B3A627B623A6A03
:103C90007B6A102179180800FFF770FFF9683A690C
:103CA0007B690A604B60F868BD460AB080BDC046BB
:103CB000FFFFFF7F90B589B002AFF8603A607B608C
:103CC0001023FB181800FFF7ABFFFC68386979690F
:103CD0003A687B680092019302000B002000FFF716
:103CE000B5FFF868BD4607B090BDB0B584B000AF71
:103CF000B860F9603A607B603A687B681000190030
:103D0000FFF72FFF04000D00BA68FB6810001900D0
:103D1000FFF727FF02000B00A41A9D4122002B0091
:103D200010001900BD4604B0B0BD80B588B004AF26
:103D3000B860F9607A603B6000F0B2FABA68FB687C
:103D400018217918097802913968019179680091F0
:103D500000F090FD03001800BD4604B080BD80B5A2
:103D600082B000AF786000F09BFA02007B68190017
:103D7000100000F049FE03001800BD4602B080BDEF
:103D800080B582B000AF78600A00FB1C1A70FB1C83
:103D90001B78002B05D07B681B7BFA1C12789A429B
:103DA00005D9094B094A0A48682102F0F7FC7B68EB
:103DB0001968FB1C1A7813005B009B18033BCB1897
:103DC0001800BD4602B080BDF0150310B4180310F2
:103DD0000C16031080B584B000AF786008001100A5
:103DE000FB1C021C1A70BB1C0A1C1A70FB1C1A78E4
:103DF0007B6811001800FFF7C3FF0300FB60FB1C8A
:103E00001B78002B05D11F4B1F4A20486F2102F061
:103E1000C5FCBB1C1B78002B05D11D4B1A4A1B4847
:103E2000702102F0BBFCFA1CBB1C12781B789A4272
:103E300005D1184B144A1548712102F0AFFCBB1C88
:103E40001A787B6811001800FFF79AFF0300BB6027
:103E5000BB68FA1C12789A70FB681B78002B04D19F
:103E6000FB68BA1C12781A7007E0FB681A78BB6806
:103E70005A70FB68BA1C12781A70C046BD4604B06E
:103E800080BDC04658160310A01803100C1603106E
:103E9000641603107016031090B583B000AF7860FD
:103EA00008001100FB1C021C1A70BB1C0A1C1A70B3
:103EB000FB1C1B78002B02D1BB1C1B7827E0BB1C12
:103EC0001B78002B02D1FB1C1B7820E07B685C6810
:103ED0007B689868BB1C1A78FB1C1B781900A047EC
:103EE000031E0AD0BB1C1A78FB1C19787B681800CB
:103EF000FFF770FFFB1C1B7809E0FB1C1A78BB1C4A
:103F000019787B681800FFF765FFBB1C1B78180049
:103F1000BD4603B090BD80B584B000AF78607B68CB
:103F20009B7B002B01D1002326E00F217B187A68B0
:103F3000927B1A707B181A787B6811001800FFF7C3
:103F40001FFF0300BB60BB685A787B689A737B686D
:103F50009B7B002B02D17B680022DA73BB680022B6
:103F60009A70BB689A78BB685A70BB685A78BB680D
:103F70001A700F23FB181B781800BD4604B080BDD3
:103F800080B584B000AF78600A00FB1C1A70FB1C7F
:103F90001B78002B05D1164B164A1748A52102F0B5
:103FA000FDFBFB1C1A787B6811001800FFF7E8FE88
:103FB0000300FB60FB6800229A70FB689A78FB683C
:103FC0005A70FB685A78FB681A707B68597BFB1C37
:103FD0001A787B681800FFF75FFF03001A007B6800
:103FE0005A737B685B7B1800BD4604B080BDC04639
:103FF00088160310FC1803100C16031080B582B04D
:1040000000AF78607B685B7B1800BD4602B080BD66
:1040100080B582B000AF78600A00FB1C1A707B6824
:104020005B7BFA1C12789A420AD0FB1C1A787B68D8
:1040300011001800FFF7A4FE03009B78002B01D0AD
:10404000012300E000231A1C01231340DBB21800F7
:10405000BD4602B080BD000080B582B000AF786080
:104060000A00FB1C1A70FB1C1B78002B08D0FB1CE1
:104070001A787B6811001800FFF7CAFF031E05D0ED
:10408000174B184A1848F62102F088FB7B68DB7B47
:10409000002B0AD07B68DA7B7B6811001800FFF7E1
:1040A0006FFE0200FB1C1B7853707B689B7B002B10
:1040B0000DD17B68DB7B002B05D00C4B094A0A48ED
:1040C000FB2102F06BFB7B68FA1C12789A737B6809
:1040D000FA1C1278DA73C046BD4602B080BDC046F5
:1040E0008C160310401903100C160310B0160310A1
:1040F00080B500AF034B5B685A1E9341DBB21800DA
:10410000BD4680BD0818002080B582B000AF786041
:104110000A00FB1C1A70FB1C1B78002B06D07B6866
:104120001B681B7BFA1C12789A4205D9094B0A4A74
:104130000A483C2102F032FB7B689A68FB1C1B7822
:1041400007498C4663441B01D3181800BD4602B0D2
:1041500080BDC046C4160310C0180310E816031033
:10416000FFFFFF0F80B582B000AF78600A00FB1C34
:104170001A70FB1C1B78002B06D07B681B681B7B0E
:10418000FA1C12789A4205D9074B084A084841217F
:1041900002F004FB7B68DA68FB1C1B78013BD31838
:1041A0001800BD4602B080BDC4160310501903109C
:1041B000E8160310B0B584B000AF786008001100B5
:1041C000FB1C021C1A70BB1C0A1C1A707B68FB606B
:1041D000FB1C1A78FB6811001800FFF795FF03001D
:1041E0001A685B6810001900FFF7BBFC04000D00A3
:1041F000BB1C1A78FB6811001800FFF785FF03004D
:104200001A685B6810001900FFF7ABFC02000B0096
:104210000121AB4204D801D1A24201D80023191CCC
:10422000CBB21800BD4604B0B0BD80B582B000AFBF
:104230000200FB1D1A70BB1D0A1C1A70FB1D1B78A7
:104240001A02BB1D1B7813431800BD4602B080BD87
:1042500080B500AFFFF74CFF03001A000123534065
:10426000DBB2002B0ED00B4B18680A4B0A4A102108
:1042700001F013FA032000F0FBFD064B03211800A8
:1042800000F0C4FA054B0A211800FFF723FCC046D2
:10429000BD4680BD08180020B541001058D600204A
:1042A00080B500AFFFF724FF031E05D1044B054A7C
:1042B00005485E2102F072FA044B1800BD4680BD2D
:1042C00020170310CC180310E8160310081800205C
:1042D000F0B589B000AFF8603A607B603821082003
:1042E0000B18DB191B78002B1ED0FB681A680B1803
:1042F000DB191B7819001000FFF78AFE03001A0073
:1043000001235340DBB2002B05D1384B384A3948E2
:10431000672102F043FA1F23FB18382208215218A4
:10432000D21912781A7008E0FB681B681F22BC18AB
:104330001800FFF7F0FD030023701F257B191B7881
:10434000002B4BD07B191A78FB6811001800FFF77F
:10435000DBFE0300BB61B9693A687B680A604B60A9
:10436000BB69BA6B9A60BB69FA6BDA60FB681A6862
:104370007B191B7819001000FFF702FE03001A00DA
:104380007B191B78934229D1FB681B7D19001726E6
:10439000BC193A687B68080000F05EFF03002370D8
:1043A000BB191B78002B11D03C2308229B18DB196A
:1043B0001B7801225340DBB2002B07D0FB681A6840
:1043C0007B191B781900100001F0E6FABB6C002B7A
:1043D00004D0BB6C1722BA1812781A701F23FB186E
:1043E0001B781800BD4609B0F0BDC0464417031045
:1043F000E4180310E8160310F0B5AFB006AF78600C
:10440000D94B7A689200D3588C22BA1813601023C3
:10441000FB181800FFF704FC00239822BA18136059
:1044200000220023BA60FB6000239422BA181360B4
:104430009F23FB1800221A708C23FB181B685B68F3
:10444000FB66EFF3108372B6BB66BB6E7B66FB6EDA
:104450003B66C0463B6E1B685A425341DBB2002BA1
:10446000F8D1BFF35F8FC046C046C0467B6E88223E
:10447000BA1813608C26BB191B681B6887257C192A
:104480001800FFF7BBFD030023707B191B78002B7E
:1044900000D17DE07B191A78BB191B681100180048
:1044A000FFF732FE03008022B9180B60BB181B68AF
:1044B0001A685B6838697969FFF717FC02000B001E
:1044C000002B56DC01D1002A53D18C23FB181B682A
:1044D0001B687F257C190021180001F03BFA0300BE
:1044E00023707A198723FB1812781B789A4205D01B
:1044F0009E4B9F4A9F488E2102F050F980217B18E5
:104500001B681A685B68BA60FB600A00BB181B680E
:104510009B68982178180360BB181B68DB6894229D
:10452000BA1813607B181B68002B05D1924B904A78
:104530009048922102F032F98723FB181A788C24D4
:104540003B191B6811001800FFF70CFE02009321B5
:104550007B1812781A707F23FB181A787B181B7847
:1045600011001800FFF761FE02003B191B681A6179
:104570000EE08023FB181B681A685B6879680800E6
:1045800000F06AFE031E03D09F23FB1801221A705D
:104590008C243B191B685B68FB658823FB181B6830
:1045A000BB65FB6D7B65BFF35F8FC046C0467B6D0F
:1045B00000221A60C046BB6D3B653B6D83F31088DB
:1045C000C046C04698257B191B68002B00D111E11D
:1045D0008723FB181A789323FB181B781100180007
:1045E000FFF723FE9423FB181A687B191B68110040
:1045F000984702000B003A677B673B191B685B68B2
:10460000FB64EFF3108372B6BB64BB6C7B64FB6C22
:104610003B64C0463B6C1B685A425341DBB2002BE3
:10462000F8D1BFF35F8FC046C046C0467B6C88227E
:10463000BA1813607B6F002B46DA8C22BB181B68FC
:104640001B69002B40D0BB181B681C698723FB1813
:104650001A789323FB181B7811001800FFF7E5FD6B
:1046600003009C4205D0454B414A4248A12102F03B
:1046700095F83A6F7B6F00200021801A9941020063
:104680000B00100019001823FC18BA68FB68009092
:1046900001912000FFF7DAFABA69FB698C217918D9
:1046A0000868002104910121039187217918097874
:1046B0000291942179180968019198217918096863
:1046C0000091FFF705FE73E07B6F002B05DC7B6F2D
:1046D000002B55D13B6F002B52D08C22BB181B688E
:1046E0001B69002B4CD0BB181B681C698723FB1867
:1046F0001A789323FB181B7811001800FFF795FD1B
:1047000003009C4205D01D4B194A1A48A42102F00F
:1047100045F82023FB181800FFF782FA3A6F7B6FE9
:1047200028217C18386A796A0092019302000B00F4
:104730002000FFF78BFABA6AFB6A8C2179180868A7
:1047400000210491012103918721791809780291B0
:1047500094217918096801919821791809680091C4
:10476000FFF7B6FD24E0C04620D400206C170310EC
:104770000C190310E8160310841703109017031088
:104780008C243B191B681A6887257B191B78190034
:104790001000FFF761FC7B191A783B191B681100A8
:1047A0001800FFF7DFFC03001A780132D2B21A704A
:1047B0008C217B181B6800221A617B181B685B68C0
:1047C000FB638823FB181B68BB63FB6B7B63BFF336
:1047D0005F8FC046C0467B6B00221A60C046BB6B31
:1047E0003B633B6B83F31088C046C0469F23FB1896
:1047F00001221A709F23FB181B78002B00D006E6BD
:10480000C046C046BD4629B0F0BDC04680B584B0A4
:1048100000AF786039603B68180000F0FFFD124A75
:104820003B681100180000F07DFCFEF799FB0300C7
:10483000FB60FB680D4A944663449B001A007B684A
:104840005A603B68DAB27B681A75D0231B061B6876
:10485000DAB27B685A75064B3A6892007968D15093
:10486000C046BD4604B080BDF9430010400000348E
:1048700020D40020B0B59EB006AF7861BA60FB606E
:104880001F23FB1800221A705B23FB1800221A70EA
:104890007B695B687B64EFF3108372B63B643B6CAF
:1048A000FB637B6CBB63C046BB6B1B685A425341C6
:1048B000DBB2002BF8D1BFF35F8FC046C046C046C5
:1048C000FB6B7B6553257C19BA68FB6878691F21EF
:1048D000791804910021039100210291796F0191CF
:1048E000396F0091FFF7F4FC030023707B191B78EC
:1048F000002B0BD07B191A787B6911001800FFF789
:1049000031FC02005B23FB1812781A707B695B682C
:104910007B637B6D3B637B6BFB62BFF35F8FC0464A
:10492000C046FB6A00221A60C0463B6BBB62BB6A92
:1049300083F31088C046C0465323FB181B78002B16
:1049400002D101235B425AE01F23FB181B78002B86
:104950000BD15323FB181A785B23FB181B7811002B
:104960001800FFF762FC030000E00023FB651F2333
:10497000FB181B78002B41D07823FB181B78002BE9
:104980003CD0796FFA6D3B6F1000984702000B0026
:10499000BA64FB64BB6CFA6C134302D10023FB6561
:1049A0002CE0FB6C002B13DABA6CFB6C00200021AE
:1049B000801A994102000B00100019000823FC180E
:1049C000BA68FB68009001912000FFF73FF95BE7B0
:1049D0002023FB181800FFF723F9BA6CFB6C3C008E
:1049E000386A796A0092019302000B002000FFF7F9
:1049F0002DF93A687B68BA60FB6045E7FB6D1800EB
:104A0000BD4618B0B0BD0000F0B58FB000AF786003
:104A100039603B68002B01D1002382E03723FB186B
:104A200000221A707B685B68BB62EFF3108372B67A
:104A30007B627B6A3B62BB6AFB61C046FB691B68A9
:104A40005A425341DBB2002BF8D1BFF35F8FC0460F
:104A5000C046C0463B6A3B632F217B183A681A70F8
:104A60007B681A687B181B7819001000FFF7D0FAD2
:104A7000031E35D07B681B693A689A4206D12B4BDE
:104A80002B4A2C21FF312B4801F088FE3B681A0A83
:104A90002E243B191A702F257B191A787B68110078
:104AA0001800FFF75FFB03001B783A1912789A424F
:104AB0001ED17B681A683726BC197B191B78190030
:104AC000100000F069FF03002370BB191B78002B56
:104AD0000ED1194B164A99214900164801F05EFE85
:104AE0007B681B693A689A4202D17B6800221A618E
:104AF0007B685B68BB613B6B7B61BB693B61BFF300
:104B00005F8FC046C0463B6900221A60C0467B6981
:104B1000FB60FB6883F31088C046C0463723FB1850
:104B20001B781800BD460FB0F0BDC046FC1703103F
:104B300064190310E81603102018031080B58CB018
:104B400000AF786039601C4B1B68BB61EFF31083CA
:104B500072B67B617B693B61BB69FB60C046FB68E9
:104B60001B685A425341DBB2002BF8D1BFF35F8F71
:104B7000C046C046C0463B69FB620F4B1B68BB6228
:104B8000FB6A7B62BB6A3B62BFF35F8FC046C04675
:104B90003B6A00221A60C0467B6AFB61FB6983F3B3
:104BA0001088C046C04640BFC04600220023100007
:104BB0001900BD460CB080BD58D6002080B596B017
:104BC00002AF38607960EFF30583BB63BB6B002BEA
:104BD00003D04A4B180001F00FFE3A687B681000C2
:104BE0001900FEF7BEFF02000B003A647B643A6CCA
:104BF0007B6C06204042C11712184B41BA64FB641B
:104C0000FA6C7B6C9A4207D8FA6C7B6C9A4207D19B
:104C1000BA6C3B6C9A4203D900220023BA64FB644D
:104C2000BA6CFB6C082179180800FEF7A7FF102367
:104C3000FB181800FEF7F4FFBA68FB683869796959
:104C4000FFF753F802000B00002B02DC4BD1002AC7
:104C500049D02B4AB868F968002300930023FFF776
:104C600064F8031E3FDB31E0264B1B687B62EFF3E9
:104C7000108372B63B623B6AFB617B6ABB61C046D4
:104C8000BB691B685A425341DBB2002BF8D1BFF31A
:104C90005F8FC046C046C046FB69FB63194B1B686B
:104CA0007B63FB6B3B637B6BFB62BFF35F8FC04639
:104CB000C046FB6A00221A60C0463B6BBB62BB6AFF
:104CC00083F31088C046C04620BFC046BA68FB6860
:104CD00010001900FEF772FF03001A000123534071
:104CE000DBB2002BC0D13A687B681000190000F0DD
:104CF0003BF9C046BD4614B080BDC04648180310FD
:104D00003D4B001058D6002080B584B000AF38600D
:104D100079600823F9183A687B680800FEF7CAFF33
:104D2000BA68FB6810001900FFF748FFC046BD468F
:104D300004B080BDB0B582B000AF78607B681C0065
:104D400000231D00FA22920000232000290003F016
:104D50005BFF02000B0010001900FFF7D5FFC046F3
:104D6000BD4602B0B0BD000080B586B002AF38606D
:104D70007960EFF30583BB60BB68002B08D0C046A9
:104D80003A687B6810001900FEF718FF030022E064
:104D9000134A38687968002300930023FEF7C5FFA3
:104DA0000300FB60FB68002B08DCC0463A687B68A8
:104DB00010001900FEF702FF03000CE020BFC04600
:104DC000FB681800FEF7CBFF3A687B6810001900FB
:104DD000FEF7F4FE03001800BD4604B080BDC046D7
:104DE0003D4B001080B582B000AF386079603A6802
:104DF0007B6810001900BD4602B080BD80B584B04C
:104E000000AFF8603A607B603A687B68002B05DA97
:104E1000074B084A08483F2101F0C0FCF9683A688E
:104E20007B680A604B60C046BD4604B080BDC0468A
:104E30007C190310781A03109819031080B582B0FA
:104E400000AF7860C046BD4602B080BD80B582B07C
:104E500000AF78607B681F221A40044B012191400B
:104E60000A001A60C046BD4602B080BD80E200E084
:104E700080B582B000AF78607B681800FFF7DEFF76
:104E8000044A7968044B1800FDF785FFC046BD460B
:104E900002B080BDDC190310B6D60020F0B587B093
:104EA00000AF154E766A7E61134EB66A3E61124EB1
:104EB000766AFE607E69B446FE68B44502D0FE683C
:104EC0007E61F1E7C0467E693E6000267E603E68F6
:104ED0003300002632003E69300000263100160003
:104EE000064334000B431D0022002B001000190064
:104EF000BD4607B0F0BDC0460040054080B588B053
:104F000000AF38607960FFF7C9FF02000B003A611B
:104F10007B61386979693A687B6812184B41BA61DC
:104F2000FB617A69FB699A4207D87A69FB699A4200
:104F300008D13A69BB699A4204D901225242D31777
:104F4000BA61FB61BA69FB69082179180800FFF7AB
:104F500055FFBA68FB681000190000F005F8C0465C
:104F6000BD4608B080BD0000B0B588B000AF386065
:104F700079603A687B6810001900FFF733FF020080
:104F80000B003A617B617B691C0000231D0023003C
:104F9000FB600F4B5B6AFB6103E00D4B5B6AFB61DF
:104FA000C046FA69FB689A42F7D303E0084B5B6A94
:104FB000FB61C046FA69FB689A4204D1044B9A6AC5
:104FC0003B699A42F2D3C046BD4608B0B0BDC04668
:104FD0000040054080B582B000AF78607B68180063
:104FE000BD4602B080BD000080B590B000AFEFF3C9
:104FF00005833B613B69103BBB63BB6B1800FFF74C
:105000001DFF0023FB630A237B617B693F4A9446B3
:1050100063449B007B637B6B7B62EFF3108372B610
:105020003B623B6AFB617B6ABB61C046BB691B6834
:105030005A425341DBB2002BF8D1BFF35F8FC04619
:10504000C046C046FB693B63314B0121BA6B9140BE
:105050000A005A630122BB6B9A4013002D4AFA6280
:10506000BB62FB6AC02292011343BA6A1A60C0464F
:10507000294B1B781A00BB6BDA4013000122134046
:1050800024D0234B5A6A254BB96B8900CB589A42DE
:1050900012D3234BBA6B9200D358FB630122BB6B34
:1050A0009A401300DBB2DB43DBB21B4A1278134099
:1050B000DAB2194B1A7009E0154A1549BB6B043373
:1050C0009B009A58BB6B04339B005A507B6BFB6070
:1050D0003B6BBB60FB687B60BFF35F8FC046C04625
:1050E0007B6800221A60C046BB683B603B6883F364
:1050F0001088C046C046FB6B002B03D0BA6BFB6B1D
:1051000010009847C046BD4610B080BD4000003436
:10511000004005403C400540C4D600205CD600203D
:105120007823002080B590B000AF786039607B684C
:105130001800FFF783FE7B681800FFF74BFF0300A2
:10514000FB630A233B623B6A3E4A944663449B00EE
:10515000BB63BB6B3B63EFF3108372B6FB62FB6A0E
:10516000BB623B6B7B62C0467B6A1B685A42534101
:10517000DBB2002BF8D1BFF35F8FC046C046C046FC
:10518000BB6A7B633B68002B26D0FB6B1800FDF7E6
:10519000BDFF02002C4B9A4218D02B4AFB6B11002A
:1051A0001800FDF7C7FFFB6B01211800FDF74CFF4E
:1051B00001227B689A401300244AFA61BB61FB69B3
:1051C000802292011343BA691A60C046204B7A6864
:1051D00092003968D1501CE01D4B7A689200002182
:1051E000D15001227B689A401300DBB2DB43DBB273
:1051F000184A12781340DAB2164B1A70124AFB6B37
:1052000011001800FEF720FAFB6B00211800FDF7D3
:105210001BFFBB6B7B617B6B3B617B69FB60BFF3FF
:105220005F8FC046C046FB6800221A60C0463B69DB
:10523000BB60BB6883F31088C046C046C046BD460D
:1052400010B080BD40000034E94F001038400540E8
:1052500078230020C4D60020B0B596B000AFF86027
:105260003A607B60FFF71AFE02000B00BA64FB6431
:105270003A687B6810001900FFF7B4FD02000B00CC
:105280003A647B647A6CFB6C9A420CD87A6CFB6C47
:105290009A4203D13A6CBB6C9A4204D85723FB184C
:1052A00001221A70A4E05723FB1800221A700A2367
:1052B0003B623B6A524A944663449B00FB63FB6B30
:1052C0003B63EFF3108372B6FB62FB6ABB623B6B1E
:1052D0007B62C0467B6A1B685A425341DBB2002B9B
:1052E000F8D1BFF35F8FC046C046C046BB6ABB6300
:1052F0003723FB18434A12781A700122FB689A4040
:105300001300DAB23F4B1B781343DAB23D4B1A70ED
:105310003D4B0121FA6891400A005A633A493A6CC0
:10532000FB6804339B005A507B6C1C0000231D005B
:105330002100364BFA689200D150334B1B6A012191
:10534000FA6891400A0013400DD12F4B1B6C0121CC
:10535000FA6891400A00134035D12D4B2D4A2E4852
:10536000C52101F01BFAFFF799FD02000B00796CD3
:10537000994228D8796C994202D1396C914222D84D
:105380005723FB1801221A701E4B1B7837243A1939
:1053900012789A4217D01C4B0121FA6891400A00FA
:1053A0001A62194B0121FA6891400A005A63FB689E
:1053B0001800FFF70FFE03001800FFF747FD114B21
:1053C0003A1912781A70FB6BFB61BB6BBB61FB690E
:1053D0007B61BFF35F8FC046C0467B6900221A60C5
:1053E000C046BB693B613B6983F31088C046C04639
:1053F0005723FB181B781800BD4616B0B0BDC04639
:1054000040000034C4D60020004005405CD6002097
:10541000141A0310901A0310381A031080B58EB0B6
:1054200000AF78607B681800FFF708FD0A23FB6077
:10543000FB68254A944663449B007B637B6BFB615E
:10544000EFF3108372B6BB61BB697B61FB693B61A3
:10545000C0463B691B685A425341DBB2002BF8D16E
:10546000BFF35F8FC046C046C0467B693B63174BA6
:1054700001217A6891400A001A6201227B689A40F1
:105480001300DBB2DB43DBB2114A12781340DAB20D
:105490000F4B1A707B6BFB623B6BBB62FB6A7B62E0
:1054A000BFF35F8FC046C0467B6A00221A60C046C9
:1054B000BB6A3B623B6A83F31088C046C046C04665
:1054C000BD460EB080BDC0464000003400400540DF
:1054D000C4D6002080B582B000AF78600A00FB1C03
:1054E0001A70FB1C1B78002B05D07B681B7BFA1CF9
:1054F00012789A4205D9094B094A0A48682101F0F5
:105500004DF97B681968FB1C1A7813005B009B1827
:10551000033BCB181800BD4602B080BDAC1A031087
:10552000481C0310C81A031080B584B000AF78601F
:1055300008001100FB1C021C1A70BB1C0A1C1A700C
:10554000FB1C1A787B6811001800FFF7C3FF0300EB
:10555000FB60FB1C1B78002B05D11F4B1F4A20480A
:105560006F2101F01BF9BB1C1B78002B05D11D4BD3
:105570001A4A1B48702101F011F9FA1CBB1C127861
:105580001B789A4205D1184B144A1548712101F035
:1055900005F9BB1C1A787B6811001800FFF79AFF09
:1055A0000300BB60BB68FA1C12789A70FB681B781A
:1055B000002B04D1FB68BA1C12781A7007E0FB6854
:1055C0001A78BB685A70FB68BA1C12781A70C04609
:1055D000BD4604B080BDC046141B0310341C03102C
:1055E000C81A0310201B03102C1B031090B583B0A6
:1055F00000AF786008001100FB1C021C1A70BB1C75
:105600000A1C1A70FB1C1B78002B02D1BB1C1B78D8
:1056100027E0BB1C1B78002B02D1FB1C1B7820E071
:105620007B685C687B689868BB1C1A78FB1C1B78DD
:105630001900A047031E0AD0BB1C1A78FB1C19785E
:105640007B681800FFF770FFFB1C1B7809E0FB1C50
:105650001A78BB1C19787B681800FFF765FFBB1C24
:105660001B781800BD4603B090BD80B582B000AF76
:1056700078607B685B7B1800BD4602B080BD80B55A
:1056800082B000AF78607B680121180000F062F9F9
:1056900003001800BD4602B080BD80B584B000AFE5
:1056A000F860B9607A603B60BB68DAB2FB681A7375
:1056B000FB687A685A60FB683A689A60FB68180071
:1056C00000F004F8C046BD4604B080BD90B585B07A
:1056D00000AF78607B6800225A737B6801229A735E
:1056E0007B681A7B7B68DA730F23FB1801221A7020
:1056F00013E00F243B191A787B6811001800FFF79C
:10570000E9FE020021007B181B780133DBB25370E5
:105710007B181A787B1801321A707B681B7B0F226A
:10572000BA1812789A42E4D37B681A7B7B6811001E
:105730001800FFF7CFFE030000225A70C046BD4696
:1057400005B090BDF0B585B000AF78600A00FB1CD5
:105750001A70FB1C1B78002B0AD0FB1C1A787B6884
:1057600011001800FFF7B6FE03005B78002B02D192
:10577000FB1C1B784AE00F26BB19FA1C12781A7022
:10578000FB1C1A787B6811001800FFF7A3FE0200CB
:105790000E257B1952781A707B191A787B681100D4
:1057A0001800FFF797FE02000D23FB1852781A70BD
:1057B0007B191A787B6811001800FFF78BFE040034
:1057C00000236370BB191A787B6811001800FFF77B
:1057D00081FE030062785A707B191A78BB19197818
:1057E0007B681800FFF702FF03001C000D23FB1865
:1057F0001A787B6811001800FFF7A4FF03001A0055
:105800007B6821001800FFF7F1FE03001800BD4679
:1058100005B0F0BD90B585B000AF7860080011000C
:10582000FB1C021C1A70BB1C0A1C1A70FB1C1B7888
:10583000002B05D1414B424A4248382100F0AEFFCF
:10584000FB1C1A787B6811001800FFF743FE030069
:105850005B78002B05D03C4B394A3A483A2100F09E
:105860009DFFFB1C1A787B6811001800FFF732FEC1
:1058700003009B78002B05D0344B314A31483B2143
:1058800000F08CFFFB1C1A787B6811001800FFF7F2
:1058900021FE03001A780F23FC187B681100180002
:1058A000FFF750FF03002370BB1C1B78002B24D094
:1058B0007B68DB7B002B0AD07B68DA7B7B6811007E
:1058C0001800FFF707FE0200FB1C1B7853707B6873
:1058D0009B7B002B0DD17B68DB7B002B05D01C4B09
:1058E000174A1848422100F059FF7B68FA1C1278C9
:1058F0009A737B68FA1C1278DA730F22BB181B7834
:10590000002B09D0BB181A787B6811001800FFF72C
:10591000E1FD030000229A70FB1C1A787B681100DD
:105920001800FFF7D7FD030000225A700F23FB1861
:105930001B781800BD4605B090BDC046441B03103F
:10594000541C03104C1B0310841B0310AC1B0310CE
:10595000D01B0310B0B584B000AF78600A00FB1C08
:105960001A700F257C197B681800FFF77EFE030074
:105970002370FB1C1A782C003B1919787B681800DF
:10598000FFF748FF03001A007B685A733B191B7826
:105990001800BD4604B0B0BDB0B588B000AF7860A7
:1059A0000A00FB1C1A70FB1C1B78002B01D1002382
:1059B00090E07B685B7BFA1C12789A4205D17B6889
:1059C0001800FFF75CFE012384E0FB1C1A787B685B
:1059D00011001800FFF77EFD0300BB61BB699B78D7
:1059E000002B01D1002375E0BB699A787B68110018
:1059F0001800FFF76FFD03007B617B691B78FA1CC1
:105A000012789A4204D1BB695A787B691A7035E0E2
:105A10001F23FB187A6912781A701E23FB180022C4
:105A20001A701F23FB181A787B6811001800FFF703
:105A300051FD03003B613B695B78FA1C12789A4286
:105A400008D1BB695A783B695A701E23FB180122A2
:105A50001A7008E01F217B183A6952781A707B1877
:105A60001B78002BDDD11E23FB181B78002B05D1E2
:105A70001A4B1B4A1B486B2100F090FEBB690022A9
:105A80009A70BB699A78BB695A700F257C19FB1C08
:105A900019787B6801221800FFF7BCFE0300237011
:105AA0007B685B7B7A1912789A4205D10E4B0C4ABF
:105AB0000C48712100F072FE7B68597B0F23FB18A4
:105AC0001A787B681800FFF791FD03001A007B68C5
:105AD0005A7301231800BD4608B0B0BDE41B031083
