:020000041000EA
:1000000000B5324B212058609868022188439860DF
:10001000D860186158612E4B002199600221596106
:100020000121F02299502B49196001219960352056
:1000300000F044F80222904214D00621196600F024
:1000400034F8196E01211966002018661A6600F04E
:100050002CF8196E196E196E052000F02FF8012189
:100060000842F9D1002199601B49196000215960AB
:100070001A491B48016001219960EB211966A021F2
:10008000196600F012F800219960164914480160C1
:100090000121996001BC002800D000471248134993
:1000A000086003C880F30888084703B5996A0420EC
:1000B0000142FBD001200142F8D103BD02B5186610
:1000C0001866FFF7F2FF186E186E02BD00000240BE
:1000D000000000180000070000035F00212200005C
:1000E000F4000018222000A00001001008ED00E03C
:1000F00000000000000000000000000074B24E7A12
:1001000000200420F7010010C3010010C5010010F9
:10011000C1010010C1010010C1010010C101001097
:10012000C1010010C1010010C1010010C701001081
:10013000C1010010C1010010C9010010CB01001065
:10014000CD010010CD010010CD010010CD01001037
:10015000CD010010CD010010CD010010CD01001027
:10016000CD010010CD010010CD010010CD01001017
:10017000CD010010CD010010CD010010CD01001007
:10018000CD010010CD010010CD010010CD010010F7
:10019000CD010010CD010010CD010010CD010010E7
:1001A000CD010010CD010010CD010010CD010010D7
:1001B000CD010010CD010010CD010010CD010010C7
:1001C00000BE00BE00BE00BE00BE00BEEFF3058054
:1001D000103800BEF2EB8871DC8400100885001036
:1001E0003402001090A31AE700201F49086006C8D7
:1001F00081F3088810471D48006800282FD10DA4FE
:100200000ECC002902D000F012F8F9E71849194A7B
:10021000002000E001C19142FCD1174988471749ED
:1002200088471749884700BEFDE701C901C29A42C5
:10023000FBD3704708850010C0000020E01B0020A1
:1002400028A00010000004200000042028A00010B6
:10025000001004200010042000000000704709482E
:1002600003F0B0F90047000008ED00E0000000D006
:10027000E01B002030220020B122001041060010B7
:10028000732200105756000006005250ABB3605363
:100290005879001006005250861C0302687900103D
:1002A000060052505422A29D707900100500525051
:1002B000DE65F46828A00010F8B5C0460448054B78
:1002C00010B5834203D0044B002B00D0984710BDDB
:1002D000E01B0020E01B002000000000064807494A
:1002E000091A8B10C90FC91810B5491003D0044B57
:1002F000002B00D0984710BDE01B0020E01B002021
:100300000000000010B5074C2378002B09D1FFF73F
:10031000D5FF054B002B02D0044800E000BF0123AD
:10032000237010BDE01C002000000000D06A001007
:10033000054B10B5002B03D00449054800E000BF71
:10034000FFF7CCFF10BDC04600000000E41C0020F9
:10035000D06A001070B506000D1C081C03F084FD67
:1003600084B2002C12D0200003F056FD011C281C82
:1003700003F031FD8721C90503F047FD03F074FD4B
:10038000C3B21B0224041C43346070BD0023F8E791
:1003900070B504000D001022002103F0DBFD802366
:1003A0005B022360F8235B0263608023DB02A360AF
:1003B000C0231B03A360EB1CED011B031D43656001
:1003C00080239B05E360024B1D406560200070BDEB
:1003D000FFFFFF9FF0B5CE46474680B587B00400CB
:1003E0000D00160098460EAB80CB1B7899462A4B21
:1003F00098424DD00721404600F008FA01230093AF
:1004000042462900200004F083FA310002A8FFF7D9
:10041000BFFF059B214A13404246920213430593B6
:100420004B46002B36D0202204991D4B19408023C7
:100430009B020B435206F82189050A40134304939B
:100440009B009B088022D20513430493052001F0F2
:100450003BFE03F0E1FC80461249381C03F0D5FC5A
:10046000011C404603F0BDFC011C02A8FFF772FF0F
:1004700002AB32002900200004F09CFA236801221C
:10048000AA401343236007B0C0BCB946B046F0BDD4
:100490000621B0E71822C7E700002050FF83FFFFC6
:1004A000FFFFF5C10000204110B5002409E0074915
:1004B000E3009B189B00002058500132072AF6DD0C
:1004C0000134072C01DC0022F8E710BDE81E0020F3
:1004D00000200FE00A49C3009B189B0059580902ED
:1004E000084B5B68DB03FBD4064B19610132072A1A
:1004F000F0DD0130072801DC0022F8E77047C04634
:10050000E81E00200000205010B5FFF7CDFFFFF7D8
:10051000DFFF10BDF0B5C64600B50500436898463C
:10052000002B4BD0002442E0701E264ACB009F19BE
:10053000BF00BF581B189B009F5001310729F3DDF6
:100540000136072E01DC0021F8E7E21707231340EC
:100550001B19DB102A68D35C002B04D05AB2002A86
:1005600002DA2E2300E02023E117490F601807224A
:100570000240521A203BDB009B18134AD056002140
:1005800007E000270722521A0E4B52019B18DF6129
:100590000131072905DC03008B401B06F1D50B4F09
:1005A000F0E7FFF795FF642001F09BF80134434624
:1005B0000133DB00A34201DD0126C2E780BCB8465F
:1005C000F0BDC046E81E0020FC7E001050505000D8
:1005D00070B582B004000E00551A01950F2D0ED88B
:1005E000009420682A00310004F094FA002200925E
:1005F0000199616023685B181A7002B070BD002217
:1006000001A904F05FFA2060019BA360E8E7000005
:1006100070B504000D0003000833036000290AD000
:10062000080006F027F82A18002329002000FFF709
:10063000CFFF200070BD014804F014FAD06A00100A
:1006400030B5A1B003F034FE2A48022103F024FEA5
:1006500029492A4C200004F03FF9020000230193AD
:10066000274B0093022300212000FFF7B3FE00F088
:100670005BF8FFF749FFFA256D00280001F031F81B
:1006800020490BAA05A8FFF7C3FF05A90CA804F091
:1006900073FA0CA8FFF73EFF0CA804F031FA1A4CCD
:1006A0001F232200032103A802F060FF18AA03A958
:1006B00012A8FFF7ADFF12A8FFF72CFF12A804F055
:1006C0001FFA02232200032103A802F04FFF1FAAF2
:1006D00003A919A8FFF79CFF19A8FFF71BFF19A88A
:1006E00004F00EFA280000F0FCFF05A804F008FA58
:1006F000BFE7C046046B0010306B001000002050B4
:10070000005043491C6B00102C6B001078231A001A
:100710000240034205D0782A01D0002002E00120E7
:1007200000E001207047000030B585B003F0C0FD47
:100730002B482C4903F0BEFF0321042000F066F88B
:100740000321052000F062F800220121042000F0BE
:1007500075F800220121052000F070F8224803F00E
:100760006BFD22480522042103F096FD204803F08A
:1007700063FD002417E01F48210003F08DFD16E003
:1007800017480023009301330F226A44290003F025
:10079000BDFF002801DB184810E018480EE018489B
:1007A00003F07AFD01347F2C14DC2307E3D0E5B29B
:1007B0002800FFF7ABFF0028E2D0104803F06CFDE3
:1007C000E217120FA1180F230B409B1A0F2BE6D034
:1007D0000C48E5E70C4803F02FFD002005B030BDC4
:1007E00068130020A08601004C6B00105C6B0010A9
:1007F0007C6B0010B06B0010406B0010BC6B0010E5
:10080000446B0010486B0010B86B001010B58300EB
:10081000084A944663441A68402462408034144075
:100820008022520113431C60C000034B9C4660446D
:10083000416010BD04C001400040014080000B4BEE
:100840009C46604400290DD00823002A0CD00422C5
:100850001343026853400C221A4080235B01034378
:100860001A6070470023F0E70022F1E704C001405E
:10087000034B1B6802201840431E9841C0B27047CA
:1008800000C00640EFF3108072B6034B1B68002BCC
:10089000FBD0BFF35F8F70472C0100D0BFF35F8F99
:1008A000024B00221A6080F3108870472C0100D0A0
:1008B000F8B506000C001500FFF7E4FFE308F71891
:1008C000F15C07222240012393400B4205D1DBB2A9
:1008D0000B433B70FFF7E2FFF8BD2100280001F059
:1008E00063FD0000002307E0054A9A189200BFF359
:1008F0005F8F0021116001331F2BF5D97047C0466F
:1009000040000034054A1078431CDBB21370172BEB
:1009100002D9130010221A707047C046B41200208A
:10092000074B9B68103080001950BFF35F8FBFF3F7
:100930005F8F044B0021196082F310887047C04616
:1009400000ED00E0240100D010B50388DA0A1C2A6B
:1009500005D15B055B1502335B00C01810BD034B6E
:10096000034A0448B12101F087FCC046C86B00105F
:10097000606D0010E06B001010B5091A0B1F0A4AD9
:1009800088180A4A904208D8C90706D45B105B054C
:100990005B0D0748184380B210BD064B064A074856
:1009A000A32101F069FCC046FC070000FE0F000017
:1009B00000E0FFFF1C6C0010546D0010E06B001095
:1009C00010B5091A04394A08090B08D14905490D1F
:1009D000064B0B430380064B1343438010BD054B6E
:1009E000054A0648AB2101F047FCC04600F0FFFF76
:1009F00000F8FFFF4C6C0010286D0010E06B001039
:100A000001238340034A10681840431E9841C0B236
:100A10007047C04600E100E0002904D0034B186095
:100A2000034B18607047034B1860FBE780E200E05F
:100A300000E100E080E100E010B5012383401800F0
:100A4000FFF7EAFF10BD0000024B9B6810308000EA
:100A5000C058704700ED00E070B504000D00EFF3E2
:100A6000108672B60C4B1B68002BFBD0BFF35F8F58
:100A70002000FFF7E9FF094B984201D0A84205D1B9
:100A8000320029002000FFF74BFF70BD044B054AE0
:100A90000548862101F0F0FB240100D0CD010010B3
:100AA0005C6C0010706D0010E06B0010F0B5CE466D
:100AB000474680B583B006000D00EFF3108872B68C
:100AC0004F4B1B68002BFBD0BFF35F8F4D4B9A68D9
:100AD00034001034A300D7584B4B9F4207D0AF428D
:100AE00000D18BE00197494BFB1A2F2B09D94246C5
:100AF00039003000FFF714FF03B0C0BCB946B04660
:100B0000F0BD3000FFF77CFF814600213000FFF789
:100B100093FFBFF35F8FEFF30581002901D08C4273
:100B200011D10123019C9C430020A368AB4212D049
:100B30000622A256002A0DDB53009B189B00334A65
:100B40002000D418F1E7324B324A36213248FF31C7
:100B500001F092FB2000AB4249D106256557002DDC
:100B60002BDB2A4B6A00521992009B189A68A260EC
:100B7000DA79E2719B795BB2A371002B0FDA274817
:100B8000A080224B6A00521992009B18244A1178C7
:100B90009971157049463000FFF74EFFA7E76800CE
:100BA00040198000194BC0180430FFF7CDFE01003A
:100BB000231D1800FFF7E0FEE2E7002912D100280C
:100BC0000ED0FF238371174B838015490B78A371D7
:100BD0000E4A154BA41A644163431B0D0B70D9E7F1
:100BE000094FF2E71149201DFFF7EAFED2E7104B4B
:100BF000084A6A210848FF3101F03EFB024F76E7C0
:100C0000240100D000ED00E0CD010010B81200205A
:100C1000946C0010406D0010E06B001001BD0000EE
:100C20002E22002001BDFFFFAAAA0000F212002020
:100C3000C86C001070B5012202432E4BD31A2F2B23
:100C400028D8EFF30583002B2BD0EFF3108C72B66E
:100C5000294909680029FBD0BFF35F8F254C27493C
:100C600005002D1B6D416943090D4CB2244989686B
:100C70009B00C95891421BD00021032932D81D4B3B
:100C80004A00521892009B189B795BB2A3421FD076
:100C90000131F2E71B4B1C4AC7211C48490001F0F7
:100CA000EBFA1B4B184A92211848FF3101F0E4FA85
:100CB000134A92681749D150174B1A7882711C70E9
:100CC000BFF35F8F0C4B00221A608CF3108870BD4D
:100CD000084B4A005518AD005D19FF26AE710F4A4A
:100CE000AA80E9E70E4B084AD1210848490001F0E3
:100CF000C3FAC046B8120020240100D0AAAA0000FE
:100D000000ED00E0D06C00100C6D0010E06B0010E6
:100D1000F86C0010CD0100102E22002001BDFFFF55
:100D2000046D00100022044B02E0044902C30132AA
:100D3000072AFAD97047C04600E400E0808080802E
:100D4000024B9C46614489000160704740000034BA
:100D500010B50400FFF7D6FD01002000FFF7F0FFFB
:100D6000FF232371BFF35F8F10BD10B50400FFF7A1
:100D7000C9FD01002000FFF7E3FFFF2323710023DB
:100D80006371BFF35F8F10BD084B5B6A994209D84E
:100D9000064A926A824207D2994201D0012002E0BB
:100DA000002000E0002070470120FCE700400540E3
:100DB00010B500290AD003681B7B8B4206D38068DC
:100DC000054B9C4661440901401810BD034B044A81
:100DD00004483C2101F050FAFFFFFF0F3C6E001069
:100DE000BC710010606E0010F8B504001700FFF72A
:100DF000DFFF0668456839002000FFF7D9FF026869
:100E000043680120AB4201D802D00020C0B2F8BD37
:100E1000B242FBD8F9E7000010B5002B02DB0260FC
:100E2000436010BD024B034A03483F2101F024FAFE
:100E3000986E001088710010B46E001010B582B06A
:100E400004000498059912184B41002B09DB6846F1
:100E5000FFF7E2FF009A019B22606360200002B06E
:100E600010BD01225242014BF1E7C046FFFFFF7F58
:100E700010B5002908D0037B8B4205D300684B00D6
:100E80005B18033BC01810BD024B034A034868219E
:100E900001F0F2F9F86E001064710010146F001088
:100EA00010B5437B8B4201D1012010BDFFF7E0FF5D
:100EB0008378002B01D10020F7E70120F5E770B51A
:100EC0000400857B002D01D1280070BD2900FFF7AB
:100ED000CFFF4378A373002B00D1E373002383700B
:100EE00043700370F0E70000F8B506000C00150031
:100EF000FFF7BEFF0700002C0DD0002D11D0AC4233
:100F000015D029003000FFF7B3FF84703B78002B29
:100F100013D13D70F8BD0A4B0A4A0B486F2101F00E
:100F2000ABF90A4B074A0848702101F0A5F9084BB4
:100F3000044A0548712101F09FF943703D70E9E7CB
:100F40005C6F001040710010146F0010686F00108B
:100F5000746F001070B506000D001400002914D045
:100F6000002A14D0436880689847002806D02200E1
:100F700029003000FFF7B8FF280007E02A00210011
:100F80003000FFF7B1FF200000E0100070BD080046
:100F9000FCE7000070B504000D1E0CD0FFF768FFE1
:100FA0000023837043700370617B2A002000FFF7E9
:100FB000D1FF607370BD034B034A0448A52101F0C3
:100FC0005BF9C0468C6F001054710010146F001054
:100FD00070B504000D1E0FD0FFF762FF00280BD183
:100FE000E17B00290ED1A37B002B03D1E37B002BF7
:100FF0000DD1A573E57370BD084B094A0948F62168
:1010000001F03AF92000FFF733FF4570EBE7064B9C
:10101000034A0448FB2101F02FF9C046906F0010ED
:1010200030710010146F0010B46F001010B500295B
:1010300007D003681B7B8B4203D3C068013940187B
:1010400010BD034B034A0448412101F015F9C04685
:101050003C6E00101C710010606E001070B5050031
:101060000C00080000F0C8FC0949200000F008FC52
:10107000FFF748FC074B9C466044800068602C7575
:10108000D0231B061B786B75034BA400E55070BD85
:10109000A911001040000034F41F00200A4B1A6808
:1010A000EFF3108172B61368002BFCD0BFF35F8F93
:1010B000054B1B68BFF35F8F00221A6081F3108815
:1010C00040BF0020002170471022002010B582B0E0
:1010D000040000F097FB02000B006846FFF79CFE3F
:1010E000009A019B22606360200002B010BD70B5C1
:1010F00084B0040016001D0002A8FFF7E7FF029A63
:10110000039B009601952000FFF798FE200004B095
:1011100070BD0000F0B583B0070001921D000AAB5E
:101120001C780BAB1E78002C0BD000682100FFF759
:10113000B7FE002809D0194B194A1A48672101F057
:101140009BF80068FFF7BBFE0400002C02D12000D2
:1011500003B0F0BD21003800FFF72AFE019B0360B9
:101160004560089B8360099BC36038682100FFF7D6
:1011700011FFA042EBD1387D019A2B0000F0C8FB93
:10118000051E01D0002E04D00C9B002BDFD01D705B
:10119000DDE73868210000F075FDF5E7C86F001045
:1011A00070710010606E0010F0B5DE4657464E4676
:1011B0004546E0B58FB00B900021794B8200D458A2
:1011C000894683E029002000FFF7F2FD804602688F
:1011D0004368921BBB41002B09DD43461A685B68DC
:1011E0000B9800F095FB0023984600268AE0002B20
:1011F00001D1002AF1D10021584600F039FD070045
:10120000A84215D143461A685B6808920993434681
:101210009E68DB689846002E10D029002000FFF75A
:1012200005FF037899461B021F432761002069E0F0
:101230005C4B5D4A5D488E2101F01EF85C4B5A4ABA
:101240005A48922101F018F82369002B00D177E069
:10125000BB4219D106980799002342428B41009264
:101260000193089A099B0CA8FFF7E8FD0C9A0D9BC7
:1012700000210491013103910295414601910096AC
:101280002000FFF747FF16E04A4B474A4748A12195
:1012900000F0F2FF069A079B002B01D1002A52D1E1
:1012A00020682900FFF794FE29002000FFF7BEFE0A
:1012B000037801330370002323616268BFF35F8FFB
:1012C00013608AF310880120002861D00CA8FFF772
:1012D000FDFE0C9E0D9F0022002308920993626878
:1012E000EFF3108A72B61368002BFCD0BFF35F8F48
:1012F00023689B465D7B002D00D063E70023984662
:10130000002600206368BFF35F8F00221A608AF313
:101310001088002ED8D04B461F022F43414638007C
:10132000B047069007916268EFF3108A72B61368AF
:10133000002BFCD0BFF35F8F079B002B00DA83E705
:10134000079B002BA6DD2369002BA9D0BB4219D136
:101350000CA8FFF7BBFE0C9A0D9B0698079900900E
:1013600001910CA8FFF76AFD0C9A0D9B00210491D6
:101370000131039102954146019100962000FFF74B
:10138000C9FE98E70B4B084A0848A42100F074FFF7
:101390000FB0F0BCBB46B246A946A046F0BDC04661
:1013A000F41F0020F06F0010A0710010606E00109C
:1013B000087000101470001010B50C4B5B68002B07
:1013C00004D00B480A21FFF7BBFC10BD074C094AAB
:1013D00020682300102100F0B6FB032000F006FA7D
:1013E00003212000FFF73AFEEBE7C0460013002080
:1013F00010220020E90D001010B5064B5B68002B91
:1014000001D0044810BD044B044A05485E2100F099
:1014100033FFC0460013002050700010047100100C
:10142000606E0010F0B5DE4657464E464546E0B5C4
:101430008DB0060090461F00169B9A46179B994652
:1014400018AB1B780793272302AA94466344002213
:101450001A7021E001003000FFF7E8FD00783CE061
:101460000698002B5CD0079B002B59D04946D047EB
:1014700004000D0003000B4359D0002940DB08A8ED
:10148000FFF724FE089A099B0094019508A8FFF72E
:10149000D5FC089B9846099F7268EFF3108B72B6D3
:1014A000136859424B41D9B20691002BF8D1BFF3D2
:1014B0005F8F273302AA9446634404930023039367
:1014C00002934B4601935346009342463B00300043
:1014D000FFF720FE0400051EBCD17368BFF35F8FC9
:1014E000002119608BF31088002D17D0272302AA42
:1014F000944663441B78002BB2D100022043B0E72E
:1015000000236242AB410092019342463B0008A88F
:10151000FFF794FC089B9846099FBDE701204042D5
:101520000DB0F0BCBB46B246A946A046F0BD069839
:10153000F6E7F0B5C64600B584B00500884616004B
:101540001F000AAB1C78FFF757FF02940197009623
:101550002A004346FFF766FF04B080BCB846F0BDE2
:10156000F0B5C64600B505000C1E42D04268EFF348
:10157000108772B61368002BFCD0BFF35F8FE6B202
:101580002B68984631001800FFF78AFC00282AD003
:101590002B69A34213D0240AE4B231002800FFF7DC
:1015A00045FD0378A34211D000206B68BFF35F8F25
:1015B00000221A6087F3108880BCB846F0BD0E4B3D
:1015C0000E4A2C210E48FF3100F056FE31004046F5
:1015D00000F058FB0028E8D10A4B084A9921084836
:1015E000490000F049FE2B69A342DED100232B61A4
:1015F000DBE70020E0E7C04674700010EC700010DC
:10160000606E00109870001010B50400FFF7F4FE33
:101610002100FFF7A5FF10BD30B587B004000D0015
:10162000EFF30583002B20D106225242D317121963
:101630006B418B4202D803D1824201D900220023A0
:1016400004A8FFF7E9FB02A8FFF740FD0298039901
:10165000049A059B121A8B41002B0BDC08D020004A
:10166000290000F0DBF807B030BD144800F09CFE04
:10167000002AF4D0124A0498059900230093FFF73A
:1016800058FF002813DAEAE70E4B1A68EFF31081CF
:1016900072B61368002BFCD0BFF35F8F094B1B6839
:1016A000BFF35F8F00221A6081F3108820BF049877
:1016B0000599FFF769FB0028E6D0D0E79C70001081
:1016C0009D1000101022002000B583B002000B0016
:1016D0006846FFF70CFD00980199FFF79DFF03B0E6
:1016E00000BD10B5FA2292000023002102F056FB43
:1016F000FFF7EAFF10BD000030B583B005000C0015
:10170000EFF30583002B0FD10B4A00230093FFF763
:1017100010FF00280BDD20BFFFF776FF2800210017
:10172000FFF732FB03B030BDFFF72EFBFAE72800CE
:101730002100FFF729FBF5E79D10001010B5002BE5
:1017400002DB0260436010BD024B034A03483F21A5
:1017500000F092FD986E00106C720010B46E0010D4
:1017600070B5EFF305801038EFF3108C72B6194B9B
:101770001B68002BFBD0BFF35F8F01221300834057
:1017800015494B6315490B60154909780C00C44095
:10179000224213D0104A546A124A8500AA58944231
:1017A00005D3114AAA580E4C9943217007E00A4A02
:1017B000031D9B0099589950002200E00022BFF3BE
:1017C0005F8F044B002119608CF31088002A00D031
:1017D000904770BD280100D0004005403C70054096
:1017E0002F22002014220020681D002010B50100C7
:1017F000024A034B1800FFF75BF810BDC8710010D8
:101800002D220020044B5B6A034A906A1900536A38
:101810009942F9D17047C04600400540084B5B6AC9
:1018200001E0074B5B6A8B42FBD301E0044B5B6A30
:101830008B4203D1024B9B6A8342F7D37047C04669
:1018400000400540F0B583B004000D00FFF7DAFF5B
:1018500006000F0022002B0092197B41994202D80A
:1018600004D1904202D901225242D3176846FFF7B1
:1018700065FF00980199FFF7D1FF03B0F0BD0000AC
:1018800070B504000E00EFF3108572B61B4B1B6899
:10189000002BFBD0BFF35F8F002E1CD02000FFF782
:1018A000D3F8174B83420BD019002000FFF7D4F870
:1018B00001212000FFF7C0F80123A340114A136063
:1018C000114BA400E650BFF35F8F0C4B00221A604F
:1018D00085F3108870BD0C4BA2000021D15001226D
:1018E000A2400A490B7893430B7005492000FFF78B
:1018F000DDF800212000FFF79FF8E4E7280100D081
:101900006117001038600540681D00202F2200205C
:10191000F0B5DE4600B584B00400150001921E004B
:101920000293FFF76FFF03958E4202D84ED1854296
:101930004CD9EFF3108B72B6274B1B68002BFBD0F2
:10194000BFF35F8F254A17780125A540EBB23B43D3
:101950001370234B5D63221D92000199D150214ADF
:10196000A100029888501B6A2B4212D11C4B1B6CA1
:101970002B4208D00020BFF35F8F174B00221A6064
:101980008BF3108823E0184B184A1948C52100F042
:1019900073FCFFF737FF8E4214D802D1039B8342BA
:1019A00010D80E4B1B78BB420ED00D4B1D625D63F1
:1019B0001F222240012393400E4A1360074B1F70E1
:1019C0000120D8E70020D6E70120D4E7012004B0A9
:1019D00080BCBB46F0BDC046280100D02F220020AD
:1019E0000040054014220020EC71001050720010DD
:1019F0001072001080E200E0EFF3108C72B60B4B17
:101A00001B68002BFBD0BFF35F8F01238340084A84
:101A1000136208490A789A430A70BFF35F8F034B39
:101A200000221A608CF310887047C046280100D04D
:101A3000004005402F22002010B5002908D0037B6C
:101A40008B4205D300684B005B18033BC01810BDE8
:101A5000024B034A0348682100F00EFCF86E0010A8
:101A600070730010146F0010F8B506000C0015001C
:101A7000FFF7E2FF0700002C0DD0002D11D0AC4283
:101A800015D029003000FFF7D7FF84703B78002B7A
:101A900013D13D70F8BD0A4B0A4A0B486F2100F084
:101AA000EBFB0A4B074A0848702100F0E5FB084BA6
:101AB000044A0548712100F0DFFB43703D70E9E7FF
:101AC0005C6F00105C730010146F0010686F0010E2
:101AD000746F001070B506000D001400002914D0BA
:101AE000002A14D0436880689847002806D0220056
:101AF00029003000FFF7B8FF280007E02A00210086
:101B00003000FFF7B1FF200000E0100070BD0800BA
:101B1000FCE770B505000023437301338373037B37
:101B2000C373012406E021002800FFF785FF01347C
:101B3000E4B24470297BA142F5D82800FFF77CFF6E
:101B40000023437070BD10B5017342608360FFF7DE
:101B5000E0FF10BDF0B5C64600B505000C1E03D170
:101B6000200080BCB846F0BDFFF766FF4678002E27
:101B7000F6D031002800FFF75FFF47780023984632
:101B8000437021002800FFF757FF4346437032009F
:101B900021002800FFF79EFF040039002800FFF70E
:101BA000D9FF020021002800FFF794FF0400D7E7C7
:101BB000F0B5C64600B504000D001700002927D077
:101BC000FFF73AFF4378002B28D18378002B2BD1E5
:101BD00001782000FFF7BEFF06008046002F0AD0E4
:101BE000E17B002926D1A37B002B03D1E37B002BD3
:101BF00025D1A573E5734346002B26D1290020008B
:101C0000FFF71AFF00234370300080BCB846F0BDD8
:101C1000114B124A1248382100F02EFB114B0F4A8B
:101C20000F483A2100F028FB0F4B0C4A0C483B218F
:101C300000F022FB2000FFF7FFFE4570D3E70B4BBF
:101C4000064A0748422100F017FB31002000FFF749
:101C5000F3FE00238370D1E78472001048730010F4
:101C60008C720010C4720010EC720010B46F00107F
:101C700070B504000A00457B2900FFF799FF6073E7
:101C8000280070BD70B506000C1E40D0437B8B420F
:101C900007D0FFF7D1FE05008178002906D100208A
:101CA00036E00121FFF7E4FF012031E03000FFF7CB
:101CB000C3FE0178A1420DD03000FFF7BDFE417890
:101CC000A1420AD00029F7D1124B134A13486B31B5
:101CD00000F0D2FA6B78037001E06B784370002358
:101CE000AB706B70012221003000FFF761FF020032
:101CF000717B814205D03000FFF7ECFE707301204C
:101D000006E0074B044A0548712100F0B5FA0020AF
:101D100070BDC046046D0010307300108C7200104E
:101D20001073001070B5046BE30701D4200070BD80
:101D300002003032C0239B0113430A4A1A60456AED
:101D4000836AAD01ED18AD02062000F0BDF9064929
:101D500001F08CFC0100280001F088FC0021FFF755
:101D600071FDE3E7010300004E0E000070B50400B2
:101D70000E001500FFF7D6FF22002C32E36A5E400A
:101D8000354080235B0113431D60206370BD00005C
:101D900070B505000C00062000F096F9C000210087
:101DA00001F064FCC60908D00E4B9E4216D87F2372
:101DB0000340013334005E0800E001246C62AE622F
:101DC000002200212800FFF7D1FF062000F07CF957
:101DD0008000A101891901F049FC70BD0026024C68
:101DE000ECE7C046FEFF0000FFFF000010B505391C
:101DF0004901013AD2001143002B09D002220A43C3
:101E0000012B07D0002111436E22FFF7AFFF10BD59
:101E10000022F4E70421F6E7002909D00A22064B44
:101E20009C46604443425841044B4000C2527047B4
:101E300080225200F3E7C0460080FCBF242200202D
:101E400070B505000C00062000F03EF9061E27D0F4
:101E5000164B9D4226D08022D203154B1A60154B9B
:101E60001A60154B9B6811009943FAD10021280094
:101E7000FFF7D2FF21002800FFF78AFF06000023AA
:101E8000012208212800FFF7B1FF2A002C3280230D
:101E90009B01134310221A60084B2B630323AB648E
:101EA000300070BD80221204D7E7C0460080034096
:101EB00000E0004000F0004000C0004001030000CE
:101EC000F8B5DE4657464E464546E0B506000F00DB
:101ED00015000A9A934250D31A0E92461B02984656
:101EE0000A9A00234046514601F0FEFB81467400E9
:101EF000A419A4002F4B9C4664446368834200D21B
:101F00006060331FDBB29B46012B3CD9C0239B0191
:101F10002343802212011A60274BB200D1580029B6
:101F200007D0586901F0A2FB013043001B18033BA6
:101F3000FDD26D0123685D40E0222A4080235B01D1
:101F400023431A605A46012A28D980239B01234340
:101F5000802212011A604B4663604A4600234046C5
:101F6000514601F0C1FB144BB60098510120F0BC62
:101F7000BB46B246A946A046F8BD104B104A1148D0
:101F8000332100F079F9012FC0D1C0239B012343F5
:101F900003221A60A368DB07FCD5CAE721687940F1
:101FA00003220A401A60A3680125BD401D42FAD0F1
:101FB000CBE7C04600800040801E00207C730010EC
:101FC000D47300109073001030B583B00C2000F073
:101FD00011F9FEF74DFC00280DD0002304E02E4A35
:101FE00099002E4888500133092BF8D92A4B2C4AE6
:101FF0005A6203B030BD2B4B00229A6700F002F901
:10200000294B01221A60274B5B6C012BFBD1274B1C
:1020100003221A60234B9B6B012BFBD101330093EE
:102020000433234A0121234800F054F80523009388
:10203000214A0121214800F04DF8214B0093002254
:1020400002210420FFF73CFF1E4D00952B000022CB
:1020500001210520FFF734FF104C009423000022DB
:1020600000210720FFF72CFF00942300002200210D
:102070000820FFF725FF0A4B0093230000220021D0
:102080000920FFF71DFF00952B00002200210620EC
:10209000FFF716FFADE7C046801E0020006CDC0293
:1020A0001BB70000008000403CB0004030B0004052
:1020B000002F685900800240008C864700C0024013
:1020C000001BB70040597307014B8000C058704790
:1020D000801E0020F0B5C64600B504000E001700B3
:1020E0001D00374801F0C2FA8046364BFA18364BCD
:1020F0009A4239D80100380001F0B8FA0200103ACB
:1021000098235B009A4235D86B1E062B38D8069B65
:10211000013B062B34D83F09474537D32D04069B96
:102120001B031D432368002B36DB284B9C4244D005
:1021300080235B01264A1360264A1360264A926870
:1021400019009143FAD12660A060221DC0239B0193
:10215000134321221A602268002AFCDAE560082273
:102160001A6080BCB846F0BD1C4B1D4A1D481121A9
:1021700000F082F81C4B1A4A1A48192100F07CF82A
:102180001A4B174A17481C2100F076F8184B144ACE
:102190001448232100F070F822683F231340B34213
:1021A000C3D1A3681B051B0D8342BED1E368EE2299
:1021B000D2021340AB42B8D1D3E780239B01B9E7E9
:1021C000001BB70080E84BD380F8A93200C0024062
:1021D00000E0004000F0004000C00040E473001048
:1021E0000475001044740010807400109C7400107A
:1021F000E874001080239B000343014AD3627047B8
:1022000000800540064BAA2212011A602F22DA60D4
:10221000044B054A1A60024B5B68002BFBDA7047DF
:10222000004002400060024000B0FA0000BEFDE73E
:1022300003000A4A1268002A08D0084A1068C31826
:10224000074A9A4206D3054A13607047034A054974
:102250001160F2E701204042F7E7C046F01F00207E
:10226000000004203022002000207047012040425E
:10227000704710B5FFF7DAFF30B583B00D001900D5
:10228000002A0BD0074B084C019200932B00020050
:10229000200002F001F80120FFF7C8FF034B1A00ED
:1022A000F1E7C04610750010207500101C75001075
:1022B00070B52B4B2B4A1A602B4B2C4A1A602C4BB7
:1022C0009A682A4B9343FAD12A4C01E008CC9847EC
:1022D000294B9C42FAD3FFF777FE234B274A1A601B
:1022E000234B9B68DB43DB01FAD1254B40229A67E5
:1022F0005A671A67DA66234C09E0234B234A2448BD
:102300008721FFF7B9FF2000FEF722FD0834214B9B
:102310009C4209D22368002BF5D0012BEDD120007F
:10232000FEF723FD0834F2E71B4DA9681B4CC022C1
:10233000200001F015FEAC60EFF30583002B00D008
:1023400000BEFEF7CFFAFEF7EDFCFFF735F8144CB0
:1023500001E008CC9847134B9C42FAD370BDC046AD
:1023600000E00040BFCDFBFE00F00040FE7F3C00DF
:1023700000C00040C01B0020D01B0020FFFFFF0159
:1023800000F00140B81B002050750010C07500100F
:1023900070750010C01B002000ED00E00000002060
:1023A000D01B0020E01B00200FB400B583B008480C
:1023B00001F042FF049B002B07D005A901911800F2
:1023C00001F04AFF034801F037FF0120FFF72EFF1D
:1023D000B0750010446B00109A4200D288547047C8
:1023E000704710B5002802D00B684968984710BDA7
:1023F0000100002007E083001B185B00501C0860F0
:102400001078C01830380A681378303BDBB2092BDB
:10241000F1D97047F0B5DE4657464E464546E0B521
:1024200083B093461F000C9B9A460D9C0E9B9946C9
:102430000F9B9B0703D0B8460F00060022E00192D5
:10244000A34688464E46B9460700B44207D2551CFB
:102450004B4641462020B84701342A00F5E73D00AD
:102460004F465C46019B9B46B1464646B846370000
:102470002E0007E0013C551C5346185D43463900C9
:10248000B0472A00002CF5D135003E0047460F9B8F
:102490009B0707D4100003B0F0BCBB46B246A94668
:1024A000A046F0BDB0464E46B9462F005D46531BD0
:1024B000B342EFD2541C4B4641462020B84722007D
:1024C000F5E7F0B5CE46474680B585B094469846C8
:1024D0000C9D0D9C0EAB1B789946109A119B129E79
:1024E000B7071CD4002B0CD0F7070AD54F46002F96
:1024F00002D10C37374204D0013B02E030272F5580
:102500000134944201D21F2CF8D9F70707D59C4219
:1025100005D21F2C03D830272F550134F5E7F706D5
:1025200012D5770505D4002C03D0944221D09C42CB
:102530001FD00F9A102A32D00F9A022A37D01F2CA0
:102540000AD830222A5501341F2C05D84A46002AC1
:1025500033D02D222A55013403960293019400951D
:1025600043466246FFF756FF05B0C0BCB946B046C9
:10257000F0BD621E012C10D00F9F102F0BD0140045
:102580000F9A102AD8D1B206D6D51F2CD4D85822EB
:102590002A550134D3E7023CCBE71400C9E7B20661
:1025A000EED41F2CECD878222A550134C7E71F2C13
:1025B000D2D860322A550134C1E7720703D52B22E5
:1025C0002A550134C8E73207C6D520222A550134DE
:1025D000C2E7F0B5DE4657464E464546E0B593B0F5
:1025E00081468A46089209931CAB10CB1B789B4608
:1025F0001E9D219B9846002C03D1102342469A43EE
:1026000090468023DB0046461E4042461A4212D0C6
:10261000002C22D000260EE03033D9B2771C0AAB52
:1026200099552900200001F021F8AC4216D31F2F44
:1026300014D83E0004002900200001F017F8CBB2A6
:10264000092BE9D94246920605D54121C918C9B2DC
:102650000A39C9B2E2E76121F8E727004346069349
:10266000209B05931F9B049303955B460293019760
:102670000AAB0093099B089A51464846FFF721FF91
:1026800013B0F0BCBB46B246A946A046F0BDF0B5BB
:10269000DE4657464E464546E0B597B00A900B9148
:1026A0000C929A46209B9946219F22AA13789B461A
:1026B000249B0993259C289B98464A463A4302D17D
:1026C0001032934398468022D20045461540434637
:1026D00013420AD04A463A4341D000252E005346C1
:1026E0000D934D46099B9A461BE02E0053460D93D1
:1026F0004D46099B9A4614E03033DAB2731C994672
:102700000EAB9A55524623002800390000F0ECFF2A
:10271000BC4226D819D04B461F2B1CD84E4605006C
:102720000F00524623002800390000F0DDFFD3B22D
:10273000092BE1D94246920605D54122D218D2B2E0
:102740000A3AD2B2DAE76122F8E7AA45E3D94E465F
:102750000D9B9A4608E04E460D9B9A4604E00026E3
:1027600002E04E460D9B9A4643460693279B0593EF
:10277000269B0493099B03935B46029301960EAB41
:10278000009353460C9A0B990A98FFF79AFE17B0DC
:10279000F0BCBB46B246A946A046F0BDF0B5DE4649
:1027A00057464E464546E0B591B0804689460C9264
:1027B0009A461A9C1B9D22002B002000290001F044
:1027C0000EFA002800D0ECE001225242D44B200047
:1027D000290001F0FFF9002800D0E2E00122524276
:1027E000D04B2000290001F0DFF9002800D0D8E00C
:1027F000002200232000290001F0D6F9002800D093
:10280000E4E0069407958023DB001E9A1A400D929F
:102810001E9A1A4201D106231C93069807990200BA
:102820000B000892099303000A00024300D1D9E08B
:10283000080D4005400DBC4EB44660440A03120B1F
:102840001E00BA4B13431F0001F0DCF9B84AB94B24
:1028500001F06BF9B84AB94B01F048F908900991B9
:102860000022B74B3000390001F03BF9B54AB64BB6
:1028700001F05BF902000B000898099901F036F9A4
:1028800001F0D8F9834601F0BDF906000F00AF4A08
:10289000AF4B01F04AF90022AE4B01F027F901F0ED
:1028A000C9F90890AC4AAD4B3000390001F03DF950
:1028B00006000F00089801F0A5F9A94AA94B01F0FC
:1028C00034F902000B003000390001F00AF906006B
:1028D0000F0002000B0001F028F90A900B91089BF1
:1028E000A14A9446634400210022089109921B05E5
:1028F00009930023089332003B003000390001F0B7
:10290000F5F80E900F9132003B0000208021C905A0
:1029100001F0E7F806000F000022944B0A980B998B
:1029200001F0E9F80022924B01F0E0F802000B0000
:102930000A980B9901F0DFF800228E4B01F0D6F8CF
:1029400002000B000A980B9901F0D5F802000B0069
:102950003000390001F0CAF802000B000E980F9900
:1029600001F0C9F80022714B01F0C0F8089A099BE8
:1029700001F0DBF806000F0008960997069A079BFE
:1029800001F028F900282FD001235B429C46E34444
:102990000022774B3000390001F0ADF80890099122
:1029A00022E01E9B04931D9B03931C9B02930094A7
:1029B000019553460C9A4946404600F0FFF811B085
:1029C000F0BCBB46B246A946A046F0BD002100229D
:1029D00006910792069480231B069C46AC446346EE
:1029E000079310E700239B465B466333C62B20D832
:1029F00004261E9B1B0528D5089A099B1900114324
:102A00000FD05D4A5D4B0698079901F0DBF800286E
:102A10007AD000225A4B0698079901F0C5F8002891
:102A200072D01C9B5B4506DD5A469B1A013B1C93EA
:102A300003E00526DDE700231C938023DB001E9ABC
:102A40001A431E92002600239B461D9B9E4265D280
:102A50009F1B02231E9A1A400A921E9A134202D00A
:102A6000002E00D000275B46002B07D0089A099B58
:102A70000698079901F03FF806900791002200237D
:102A80002000290001F090F8002800D07CE03D4BA8
:102A90001E9A1340049303971C9B0293069B079C6A
:102AA0000093019453460C9A4946404600F086F83C
:102AB000002E00D183E71E9B9B0671D54525441C43
:102AC0005346020049462800C0475A46D317D21839
:102AD0005A4005230593013E0496002303930A33CD
:102AE00002935B46DB0F0193009253462200494656
:102AF0004046FFF76EFD0A9B002B00D15FE7020006
:102B000047460C9E1D9D53E01C9B002B9DD00D9BAA
:102B1000002B9AD01C9B013B1C9396E7002798E75B
:102B2000FFFFEF7FFFFFEFFF01FCFFFF0000F03F23
:102B3000FB799F501344D33FB3C8608B288AC63FAC
:102B40000000F83F61436F63A787D23F71A3790903
:102B50004F930A400000E03F1655B5BBB16B0240F1
:102B6000EF39FAFE422EE63FFF03000000002C4042
:102B700000002440000018402D431CEBE2361A3FB1
:102B800080842E41FFF7FFFF069C079D220029004D
:102B900080200006844661440B000692079376E786
:102BA00065258CE7541C534649462020B84722002F
:102BB000931BAB42F6D3100001E7C046F0B5DE46EA
:102BC00057464E464546E0B595B006900791934668
:102BD0009946209F1E9A1F9B1000190000F0FFFFCE
:102BE000002831D101225242BF4B1E981F9900F09C
:102BF000DBFF002837D101225242BC4B1E981F999F
:102C000000F0E8FF00283DD10022B94B1E981F9923
:102C100000F0E0FF002850D10022B64B1E981F990B
:102C200000F0C2FF002848D1002200231E981F99FF
:102C300000F0BAFF002850D100239846229B5B0584
:102C400000D4B6E0002458E0229B0393219B02931A
:102C500003230193A84B00934B465A4607990698C5
:102C6000FFF7D8FB0EE1229B0393219B02930423E1
:102C70000193A24B00934B465A4607990698FFF7DB
:102C8000C9FBFFE00423229A1A4022990B4210D07C
:102C90009B4B002A0FD00422229903912199029183
:102CA000019200934B465A4607990698FFF7B2FBEC
:102CB000E8E0944BEDE70322EEE7229B0493219B8F
:102CC000039302971E9B1F9C009301944B465A4608
:102CD00007990698FFF762FDD4E01E9A1F9B00201B
:102CE000002100F0FEFE1E901F9101239846A5E7EB
:102CF0000CAB30221A55013F01341F2C01D8092F8B
:102D0000F6D81E981F9900F095FF050000F07AFF95
:102D100002000B001E981F9900F0E3FE7A4BFA00A8
:102D20009B181A685B680A920B9300F0FEFE0890ED
:102D3000099100F0A3FF060000F060FF02000B0005
:102D40000898099900F0CDFE0890099100226F4B78
:102D500000F040FF00282ED00136300000F04EFF7A
:102D600002000B000A980B9900F024FF002801D004
:102D700001350026002F2CD1280000F043FF02006F
:102D80000B001E981F9900F0ACFE06000F000022F9
:102D90005E4B00F009FF002846D100225B4B30005B
:102DA000390000F017FF00283ED1EB073CD5013574
:102DB0003AE0062746E70022544B0898099900F0AC
:102DC000F3FE0028D6D1002E01D0F307D2D501366C
:102DD000D0E7AA461F2C11D8013F0A21300000F08D
:102DE00045FC651C30310CAB19550A21300000F050
:102DF0003DFC092E0ED906002C00EBE755461F2C92
:102E00000CD87B1E002F09D00CAA302111551F00B1
:102E10000134F4E72B0055461C00F0E71F2C03D8C3
:102E20000CAB2E221A5501341F2C10D80A21280071
:102E300000F0F4FB661C30310CAB19550A21280058
:102E400000F0ECFB051E01D03400EDE73400032355
:102E5000229A1340012B1CD01F2C06D84346002B6E
:102E600032D00CAB2D221A550134229B0393219BA7
:102E7000029301940CAB00934B465A46079906986F
:102E8000FFF7C8FA15B0F0BCBB46B246A946A0464B
:102E9000F0BD219B002B13D04346002B02D10C33F5
:102EA00013420FD0219B013B2193190003E00CAB8F
:102EB00030221A5501348C42CED21F2CF7D9CBE7E1
:102EC0002199F8E72199F6E7229B5B0704D50CAB23
:102ED0002B221A550134C8E7229B1B07C5D50CAB22
:102EE00020221A550134C0E7FFFFEFFFFFFFEF7FFD
:102EF00065CDCD4165CDCDC1DC750010E07500100C
:102F0000D0750010D8750010887700100000E03FE1
:102F1000F0B5DE4657464E464546E0B593B082468C
:102F2000884693461193002900D106E300255646B2
:102F3000119B1878002800D102E3252809D06C1CC9
:102F40005B462A004146B047119B0133119325008F
:102F5000EEE701331193002720E001231F430132E4
:102F60001192012418E002231F430132119201241F
:102F700012E004231F430132119201240CE00823C4
:102F80001F4301321192012406E010231F43013236
:102F90001192012400E00024002C09D0119A13782A
:102FA000203BD9B21029F6D88B00C449CB589F4694
:102FB000119B1A781300303BDBB2092B10D92A2A57
:102FC00013D00B94119B1A782E2A1ED0119A1378C5
:102FD000683BD9B2122959D88B00B949CB589F46C2
:102FE00011A8FFF705FA0B90ECE71C9B1A1D1C9229
:102FF0001B68002B04DB0B93119B01331193E1E75A
:10300000022217435B420B93F6E78022D20017435C
:103010005A1C11925A781300303BDBB2092B0BD9A2
:103020002A2AD3D11C9B1A1D1C921C68002C08DB79
:10303000119B01331193C9E711A8FFF7D9F90400D7
:10304000C4E70024F4E780235B003B43511C11914B
:1030500051786C2901D01F0018E0C0239B001F434A
:103060000232119212E080233B43511C119151789E
:10307000682901D01F0009E0C0231F4302321192CA
:1030800004E080235B001F4301321192119B1878EA
:10309000672816D8252826D30300253BDAB2422A12
:1030A00021D89300874AD3589F4680239B001F4313
:1030B00001321192EAE780235B001F430132119233
:1030C000E4E778280FD869280DD30200693AD2B214
:1030D000012393407C4A13420FD11A0600D507E220
:1030E0005B0500D594E16C1C5B462A004146B04765
:1030F000119B0133119325001AE778280AD0622822
:103100003AD06F283BD058283CD010239F43063B31
:103110009C4601E010239C46582836D0692803D0ED
:10312000642801D00C2297437A0501D501229743E8
:1031300069282DD064282BD0BA0500D5A2E0FA0565
:1031400000D5C3E07A0600D4D5E01C9A111D1C916D
:103150001168FF220A4005970B9B04930394634672
:1031600002930023019300925B462A0041463000FF
:10317000FFF72FFA05002AE002239C46CCE708233C
:103180009C46C9E710239C46C6E720221743C5E7A3
:10319000BA0520D4FA0550D47A0666D51C9A111DBA
:1031A0001C911168FF220A40D01711184140059761
:1031B0000B9B0493039463460293D20F01920091F8
:1031C0005B462A0041463000FFF703FA0500119BD9
:1031D00001331193ACE61C9A073207218A43110090
:1031E00008311C91116853689946DB170C930D93B5
:1031F0000C9A0D9B100048400E904A4653400F9386
:103200000E980F990C9A0D9B801A99410E900F9170
:1032100008970B9B0793069463460493002305933A
:103220004B46DA0F0292009001915B462A0041461C
:103230003000FFF72CFA0500C9E71C9A111D1C91FC
:103240001268D0171118414005970B9B0493039403
:1032500063460293D20F019200915B462A004146D9
:103260003000FFF7B6F90500B1E73A0605D51C9A1C
:10327000111D1C910023D25E96E71C9A111D1C9112
:10328000126891E71C9A073207218A43110008311E
:103290001C9108970B9B07930694634604930023A5
:1032A0000593029353681268009201935B462A00CB
:1032B00041463000FFF7EBF9050088E7E87500109C
:1032C0002C76001078760010419000001C9A111D99
:1032D0001C9105970B9B0493039463460293002370
:1032E0000193136800935B462A0041463000FFF7C4
:1032F00070F905006BE73A0606D51C9A111D1C9162
:1033000012681204120C26E71C9A111D1C911268F7
:1033100021E7462819D01C9B0733072293431A0044
:1033200008321C9204970B9A039202941A685B6805
:10333000009201935B462A0041463000FFF73EFCB5
:103340000500119B01331193F2E520231F43E2E7AF
:10335000672801D0472802D180231B011F4345283D
:1033600001D0472801D120231F431C9B073307228C
:1033700093431A0008321C9204970B9A039202940A
:103380001A685B68009201935B462A004146300050
:10339000FFF704FA0500119B01331193C8E50223DE
:1033A0001A003A4091463B421DD001241C9B1A1D35
:1033B0001C926F1C18785B462A004146B0474B466A
:1033C000002B14D1119B013311933D00B0E5571C24
:1033D0005B4641462020B04723003A005C1C9D42DA
:1033E000F5D81500E2E701232A000B9DF6E73A0025
:1033F000B1460B9E06E0571C5B4641462020C8475D
:103400002C003A00651CA642F5D817004E46D9E7B5
:103410001C9B1A1D1C921B689A46002C25D1012268
:103420005242534601E001330A001978002902D0C4
:10343000511E002AF7D152469B1A8022D200390031
:1034400011408946174202D0A34200D9230002222C
:103450001100394010913A4209D02A002500574600
:103460009A4633004E46994621E02200D9E72A00C9
:103470004546A04606E0541C5B4629002020B04784
:103480003B0022005F1C0B999942F4D84446A846A1
:103490003B00250057469A4633004E46994606E0C3
:1034A0001D000137541C5B464146C847220038784E
:1034B000002804D0002EF4D06B1E002DF0D1150092
:1034C00053464E46109A002A03D1119B01331193A3
:1034D0002EE50B9F2A0006E0551C5B464146202046
:1034E000B04723002A005C1C9F42F5D81500ECE78A
:1034F00021233B431C9A111D1C911268059308233C
:1035000004930394083302930023019300925B46D3
:103510002A0041463000FFF75CF80500119B01339B
:10352000119305E56C1C5B462A0041462520B047F7
:10353000119B013311932500FAE40B4B9A46F5E4F5
:10354000B2465D450DD35B465A1E5B4641460020A0
:10355000D047280013B0F0BCBB46B246A946A046EF
:10356000F0BD2A00F1E7C046E12300100CB430B5ED
:1035700085B00A0008AC08CC0394054D0094010006
:103580002800FFF7C5FC05B030BC08BC02B01847E6
:10359000D923001000B585B00290039101210448A1
:1035A000009313004A4202A9FFF7B2FC05B000BD28
:1035B000E323001001480421014B18473013002079
:1035C000E535001010B5010018231B88142210885F
:1035D000984710BD10B5010018231B8816221088CB
:1035E000984710BDF0B5C64600B507000E0000258F
:1035F0000123984600E00135B5420AD2AC003C19DF
:103600002068FFF7DFFF20600028F4D100239846F0
:10361000F1E7404680BCB846F0BD0000124A936F07
:103620009B0815D29066D166002905D0FFE7FFE719
:10363000FFE7516F106F704704B580210906C2176C
:103640005140002800D0C84303F0FAF9002104BD1E
:10365000F0B5146E556E576F166FFFF7E3FF1466E3
:10366000556657671667F0BD000000D0114A936F8A
:103670009B0813D210665166002905D0FFE7FFE7CB
:10368000FFE7516F106F704704B5002801D000208C
:10369000C04303F0D5F9002104BDC046F0B5146E57
:1036A000556E576F166FFFF7E5FF1466556657673F
:1036B0001667F0BD000000D094464A4A926F920807
:1036C000624601D228E0C046F0B5464E346E756EB3
:1036D000776F366F00F020F89446424A14665566BC
:1036E000576716676246F0BD94463E4A926F92084D
:1036F000624601D254E0C046F0B53A4E346E756E63
:10370000776F366F00F04CF89446364A146655666B
:10371000576716676246F0BD002B24DB11D00029E5
:103720003EDA00B5C943404200D1013100F038F81B
:10373000C943404200D10131DB43524200D1013341
:1037400000BD002AEBD1002801D1002905D00020BE
:10375000C90FC90701D1C043410800B503F048F9BA
:103760000022002300BD00B500290ADBDB435242E2
:1037700000D1013300F014F8C943404200D10131B7
:1037800000BDC943404200D10131DB43524200D168
:10379000013300F005F8DB43524200D1013300BD94
:1037A000002923D1002B18D1002A0CD0BC460D4F84
:1037B00038667A6600210023FFE7FFE7FFE77A6FAC
:1037C000386F67467047002801D00748010000B5F0
:1037D00003F00EF90022002300BD02000B000020C0
:1037E00000217047000000D0FFFFFFFF002B00D03A
:1037F000BFE0130C28D1002AE7D080B4114F3966FE
:103800007A66FFE7FFE730B4040C7B6F396F1B0467
:1038100023433B667A66FFE7FFE7FFE7C04684B2D3
:103820007B6F3D6F1B0423433B667A66FFE7FFE730
:10383000C04600232C042D0C7A6F386F00196941A3
:10384000B0BC7047000000D0F0B594460025140EBF
:1038500001D112020835140F01D112010435940F61
:1038600001D192000235D40F01D152000135D40BA1
:103870000134254F7C66254C3C660E0C93B2FFE765
:10388000FFE7FFE73C6F6643360C7703BE467343A2
:10389000DF0B5B04C01AB941130C7343DB18C91A60
:1038A000CE086643360CB64493B273431F0F1B0118
:1038B000C01AB941130C73431F0B1B05C01AB94141
:1038C000860D8F023E436643360C092D24DB520AD7
:1038D0007243801A7703460A6643360C16235B1B35
:1038E000DE40DF40BF1964466643821B70460435E4
:1038F00006330100D940A840C01900D30131A242CB
:1039000006D20023F0BD0000000000D0FFFFFFFF43
:10391000121B0130F3D3F1E709277F1BFE406446F9
:10392000A2B27243801A00D20139220C7243130CE6
:103930001204821A99410B007046043513370100B6
:10394000F940A840801900D30131002B02D1A242D6
:103950000AD2F0BD013000D30131121BFAD2013B73
:10396000F8D1A24200D2F0BD013000D30131121BC8
:10397000F7E7F0B51C0C00D080E00CB400251C0A61
:1039800004D11B02160E3343120208351C0B04D15E
:103990001B01160F3343120104359C0B04D19B000D
:1039A000960F334392000235DC0B02D192185B4133
:1039B00001351C00971864410134464F7C66464C23
:1039C0003C660E0CFFE7FFE7FFE7C0463C6F66432F
:1039D000360C7703BE4697B27743C01B00D201393D
:1039E000C01B00D201399FB27743C91BC91B170CFA
:1039F00077437E04FF0B801BB941CE086643360C2B
:103A00000C2D33DBB644120B1F053A431B0B97B248
:103A10007743C01B00D201399FB27743C91B170CF3
:103A200077433E043F0C801BB941860D8F023E4315
:103A3000664329277F1BFE400C3D7746AF40BF19E8
:103A400030BCA2B2ABB272437343801A9941220CCC
:103A50007243130C1204801A994102000B000137C3
:103A6000001BA941F9D2781E0021F0BD0C277F1B55
:103A7000FE4077467F0BAF40FF19E0E700245D1C56
:103A800007D0144F7D663966FFE7FFE7FFE7FFE7E2
:103A90003C6F95B29EB265436643401BB141150C25
:103AA0001E0C6543664336042F0C3E432D04401B19
:103AB000B141994204D202000B0020000021F0BD68
:103AC00001D19042F7D3801A994101349942F2D33F
:103AD000F6E70000000000D0FFFFFFFF4840414034
:103AE000484018B4134B5B68019308BD18B4114BE0
:103AF0001B68019308BD94460F4A926F920805D245
:103B0000624618B40B4BDB68019308BD0A4AF0B556
:103B1000146E556E576F166F6246FFF7F2FF064A36
:103B20001466556657671667F0BD18B4014B9B685D
:103B3000019308BD0C200020000000D0FFB55040CC
:103B40004240504059404B40594000E0FFB5154FAE
:103B50004C00640D03D0BC4204D10C0314D80020E7
:103B6000090D09055C00640D03D0BC4204D11C039F
:103B70000AD800221B0D1B0501264B4009D44B40DF
:103B800003D58B4200D18242FFBD9942FCD19042C5
:103B9000FFBD0B43DB1803431343F5D0C94349185A
:103BA000FFBD0000FF07000000B5FFF7CFFF804119
:103BB00000BDC04600B5FFF7C9FF01D9002000BD18
:103BC000012000BD00B5FFF7B9FF01D9002000BDFD
:103BD000012000BD00B5FFF7B1FF804100BD01200D
:103BE00040054A00121804D85A00121801D80020C3
:103BF0007047012070470020704700000021002816
:103C000005D17047C1174840401AFAD0C90713B50B
:103C1000064B1B6898470CBC441CA2401005120BB5
:103C20000349091B09051943114310BD0C2100204C
:103C30001F04000010B54C00620D8023D218DB0079
:103C4000D21A5B057E2A10DD9E3A13DACC170903DF
:103C5000490819435242D140640001341532202AE8
:103C600005DAD0400843604310BD002010BD08466F
:103C7000604310BDC80FC018013810BD18B4024B06
:103C80005B6A019308BD00000C20002010B50148BC
:103C9000FEF78AFBD877001070B513231C78012C2F
:103CA00012D0012C12DC214B214A93642148FFF7EA
:103CB00089FC214B186070BD20491D4A9800815035
:103CC00001331F2BF8D9ECE70023FAE71C48FFF774
:103CD00081FC05001B48FFF77DFC023803789B0040
:103CE0007F2B09DD12488022290000F039F9022CCF
:103CF00008D0022CDADCD6E7134B144A14483221E0
:103D0000FEF7BAFA134B1A88B5231B029A4209D15F
:103D1000114B1A88114B9A4204D1114B1A88114B3E
:103D20009A42E6D00020FEF73FFBC046693D0010F6
:103D30000C2000204C3300000C2100208D3C001092
:103D40005344000053460000F07700108C780010B8
:103D50004478001054380000D8380000494600006C
:103D60009C3800005946000007B56046002800D185
:103D700000BE01880A0A0230DF2AFAD1C9B28208DD
:103D800004D3028840880004104300E00068024A1F
:103D90005050039007BD00000C20002051434343C6
:103DA000C9188C46110C83B24B4310B4040C614308
:103DB00092B280B2504362431C041B0C001910BC29
:103DC00059411304120CC01851416144704700005E
:103DD0004840414048400E4B5B6818470C4B1B68FD
:103DE00018470C4A936F9B0802D2094BDB681847AF
:103DF000F0B5146E556E576F166FFFF7F6FF054A54
:103E00001466556657671667F0BD014B9B681847E7
:103E100010210020000000D0491A002808D10846CF
:103E200070470000C10FC90700D54042002817D0D5
:103E3000F44603B40B4B1B68984706BC81409E3880
:103E40004042803107D20B0607D04900490AC0051D
:103E50001043084360470130F8E7490A8902F5E753
:103E6000704700000C210020014B5B6A18470000DE
:103E70001021002010B50148FEF796FA1C750010BD
:103E800070B513231E781848FFF7A4FB0500012E18
:103E900011D0012E09DDAB1E1B789B007F2B1DDD91
:103EA00012488022290000F05BF81148FFF78AFBD6
:103EB000104B186070BD0D485422290000F050F8D6
:103EC000002300E001331F2BE3D8084A9C00A258CE
:103ED000002AF7D10849054AA150F3E7074B084AE1
:103EE00008484221FEF7C8F953460000102100207F
:103EF0004C3300000C210020753E0010A07800100B
:103F000018790010D478001010B5002804D040189B
:103F1000034B984200D810BD0248FEF745FAC04650
:103F2000000004202C79001070B5050001F012FF8C
:103F300004002900FFF7E8FF200070BD10B501F074
:103F400013FF10BD01480421014B18474013002006
:103F5000E5350010014B1B68184700004013002096
:103F6000014B5B68184700004013002010B5FFF7B5
:103F7000DBFF10BD10B5FFF7E1FF10BD10B5FFF777
:103F8000DDFF10BD10B50300080011001B68984745
:103F900010BD0000F8B507000D001600437D002B92
:103FA00002D0002400200CE003681100280098478C
:103FB0002DE03B7D10E03B68154802219847601CCE
:103FC0000134B44214DA002CF3DD2B19013B1B78C9
:103FD0000D3B5A425341DBB22A5D0A2AF0D1002B35
:103FE000EED1A042E7DA3B68211A28189847E2E7A9
:103FF000B04203DA3B68311A28189847002E06DDD4
:10400000AD19013D2B780D3B5A4253413B75F8BD2C
:10401000AC79001070B505000368002B16D00C4B6E
:104020001C6805E0290004C92000FFF7B3FF2469DC
:10403000002C09D02368002BF9D0064B1B68002BFD
:10404000F0D0A342F3D1EDE700232B6070BDC04652
:10405000E81F0020EC1F002070B505000C000B6865
:10406000802B05D023685A1C2260E418257170BD8E
:104070000800FFF7CFFFF5E710B5002B02DB026069
:10408000436010BD024B034A03483F21FEF7F4F89A
:10409000986E0010B0790010B46E001010B582B0A8
:1040A0000400FDF7AFFB02000B006846FFF7E4FFDA
:1040B000009A019B22606360200002B010BD0000E6
:1040C00070B582B0060014001D00FA229200002391
:1040D00006980021FFF762FE02000B0012196B41E7
:1040E000002B09DB6846FFF7C7FF009A019B32608F
:1040F0007360300002B070BD01225242004BF1E704
:10410000FFFFFF7F30B585B004000D0002A8FFF768
:10411000C5FF029A039B00952000FFF7D1FF200006
:1041200005B030BD00B583B0FA2189006846FFF7BD
:10413000E9FF009A019B024802F0A2FC03B000BD17
:10414000B81B002010B5024802F04AFC10BDC04662
:10415000B81B0020F0B5CE46474680B583B00600B8
:104160000D0090461C00FFF7DDFF81466B1C05D05B
:10417000002C08D0194F1A4B1C6807E0300002F0E1
:1041800079FA0500F4E7174FF5E72469002C17D0FA
:104190002368002BF9D0144B1B68002B01D0A342DD
:1041A000F3D12A0031002000B8474346002BECD061
:1041B0006B46D91D0A230B7001222000B847E4E7A3
:1041C0004B46002B07D16B1E9D41E8B203B0C0BC2B
:1041D000B946B046F0BDFFF7B5FFF4E7853F0010E4
:1041E000E81F0020953F0010EC1F0020094A01E065
:1041F00010331A001368002B08D08342F8D100292D
:1042000007D1036913600023036102E0002900D095
:1042100010607047E81F002010B5064B1C6801E0D5
:1042200098472469002C03D06368002BF8D1F8E785
:1042300010BDC046E81F002070B5050002F01AFA54
:1042400004000023012201002800FFF783FFFFF78D
:10425000E3FF200070BD000070B5A2B004000E00A6
:10426000FFF760FF0500002301930A483300220096
:1042700001A9FFF78FF9040001A8FFF7CBFEFFF7B4
:10428000CBFF002D02D1200022B070BDFFF75AFFF6
:10429000F9E7C046594000100FB400B583B004A937
:1042A00001C90191FFF7D8FF03B008BC04B018475B
:1042B00010B500F0FFF8012010BD000010B582B06D
:1042C0000C00144BC3185A425341134A5B009B5EC7
:1042D0008B4204D06B46DA1D1470002115E06B464A
:1042E000DA1D0D23137000210029F3D183699B0689
:1042F000FCD41378036001310132F5E783699B0632
:10430000FCD413780360013101320029F6D002B0E9
:1043100010BDC0460080FCBF2422002082B00022D5
:104320006B46D91D06E08369DB06FCD403680B707D
:1043300001320131002AF6D06B46D87902B07047BD
:1043400070B506000D00002405E0315D034B1868D0
:10435000FFF7B4FF0134AC42F7DB70BD2822002028
:10436000F8B506000D00002705E07C1CF719FFF7E3
:10437000D5FF38702700AF4204DA0E4A1068826910
:10438000D206F2D50C4A1268002A0CD0094A1268EB
:104390005021916310003430526B18391140802243
:1043A000520102431160002F01D03800F8BD033FD5
:1043B000FBE7C04628220020781E002010B5064BDF
:1043C0001B68002B06D0054A126800219163044A3D
:1043D0001068984710BDC046781E00202822002093
:1043E0007C1E002070B505000E001C4B1A681C4B8B
:1043F000D31859424B4114331C0000281ED0194BCE
:104400001B68002B04D0174B1D60174B1E6070BD3E
:1044100016492000FCF720FB01212000FCF70CFBD3
:104420000E4B1B6850229A63190034315B6B183AAB
:104430001A4080235B010B431A60E4E7094B1B68B9
:10444000002BE0D00023936300212000FCF7F4FA56
:1044500006492000FCF72AFBD5E7C04628220020A9
:104460000080FCBF781E00207C1E0020BD43001091
:1044700070B50D001C000D4B1860002A0BDA002CE3
:104480000EDA0A4B18682900FDF7DAFC084801210A
:10449000FFF7ACFE70BD02211000FCF7B7F9EEE7A4
:1044A00002212000FCF7B2F9EBE7C04628220020E9
:1044B0005013002010B5064B1B78064B1B78E121EA
:1044C0000123002249020448FFF7D2FF10BDC04675
:1044D000048500100085001000400340F0B5DE4662
:1044E00057464E464546E0B583B005009246180053
:1044F00001930CAB1A7893460D9E0E9F2B680022F9
:10450000DA662B6859602B680132DA66814600232F
:1045100098460024C8453FDA019A541E2A68516F14
:104520001029FBD0414600290BD0002080024445D1
:104530000ED0002149020843802149000143116146
:1045400018E02979002901D10020EFE70120EDE7EB
:104550005946002901D00021ECE70121EAE73800A3
:10456000B04703000443E4B2002C15D12A68916FD0
:10457000002909D12A6880215158546D621E944146
:10458000E4B2002EEBD1EFE7126951460A70012226
:104590009446E044E244BDE7002C04D0002B0CD04C
:1045A00001235B4298465B462B71404603B0F0BC4A
:1045B000BB46B246A946A046F0BD02235B429846E0
:1045C000F1E70000F0B5D6464F464646C0B50500B7
:1045D0000C000520FDF778FD060060088019210019
:1045E000FFF744F8070043009946814405214846F7
:1045F000FFF73CF880463B1A9A46284B9C4224D849
:10460000700080192649FFF731F8441C4346023BED
:10461000A34221D32B680022DA6629680B68043292
:10462000534002321A4080235B010B431A602B680F
:104630005246DA612B6842461A624B464F2B11D91B
:1046400050214846FFF712F80DE070008019154917
:10465000FFF70CF8441CD9E7134B144A14485D21AA
:10466000FDF70AFE01202A68A023D0502B681A000B
:104670007C32DB6F5C402404240C80235B011343F9
:104680001C602B680122DA6639003000FEF7EEFF6D
:10469000E0BCBA46B146A846F0BDC0463F420F0056
:1046A0008096980040787D01087A0010647A0010A6
:1046B000287A001010B5114B98421DD01022104BD3
:1046C0001A60104B1A60104B9B6814009C43231E09
:1046D000F9D104710268D46602686624FF3414605C
:1046E0000268D3630268936302688833633CFF3CCB
:1046F000D450FFF767FF10BD0822E0E768130020E1
:1047000000E0004000F0004000C0004030B585B03F
:1047100008AC25780024029401940095FFF7DEFE92
:1047200005B030BD10B5024800F004F810BDC04619
:104730000420002070B588B0040004AD0026049663
:104740000922002105A8FFF705FC00960922002197
:1047500001A8FFF7FFFB4B232B700D2269462800B1
:1047600002F036F9002304E05A1D69468A5CE254DF
:104770000133072BF8DD08B070BD10B5040010221E
:104780000021FFF7E7FB80235B022360F8235B0235
:1047900063608023DB02A360C0231B03A3602000AF
:1047A00010BD00000523CB56002B01DB934211D135
:1047B000094B9C46604443425841084B8000C05816
:1047C000097901238B40013B9340184043425841F3
:1047D000C0B270470020FCE70000D0AF601D002091
:1047E00070B50A79202A19D8174B9C466044434279
:1047F0005841164B8000C45801239340013B49792E
:1048000049B2002910DB08002025AA1A914218DCC1
:104810008B401C4201D00120404270BD0C4B0D4A20
:104820000D484021FDF728FD2020801A002805DBD7
:104830001A0082401442F0D00138F7E701204042CC
:10484000EBE701204042E8E70000D0AF601D002008
:10485000E07B00105C7C00100C7C001070B5050043
:104860000C001600FFF79EFF002801D0002107E092
:104870001648FDF799FD8B1912339B005A510131EF
:1048800023798B4211D9227863781B021343A278D3
:1048900012041A43E3781B0613434A009A5A8023F2
:1048A0009B019A42E7D29219E5E701229A40130050
:1048B000013B074A944665446A4255410549AD00AB
:1048C0006A58B34013436B5070BDC046487C00101B
:1048D0000000D0AF601D0020F8B505000E00FBF70A
:1048E000D1FF070031002800FFF77AFF041E09DB23
:1048F000020031002800FFF7B1FF3800FBF7CEFFC0
:104900002000F8BD0148FDF74FFDC046487C00106F
:10491000F0B5C64600B506AC25784C006618F60022
:1049200086193700DC373F68BC46CC363668B0465F
:104930006418E400C83404190434C026B6013443B2
:104940008026B6022660002D01D01F2614E0002626
:1049500012E05401A0256D0525434C006418E400C5
:1049600004192700DC373D60114D3543D8342560EC
:10497000053B05321F242240052BEAD89B06520135
:1049800013434C006218D20082181500DC352B60EE
:10499000074B3343D832136063462B606418E4003E
:1049A0000019CC304346036080BCB846F0BDC04619
:1049B00080E0000070B584B004000D0016000268AD
:1049C0000121A9408A430260002B34D01868690095
:1049D0004919C90061180A00C832106058680432C9
:1049E0001060986804321060DB68DC310B606A008C
:1049F0005319DB00D033E318802149010B43802198
:104A0000090619601960164BAB40A3602B1D0121EC
:104A10000800984080239B01234318602800083039
:104A2000814019601F2333405219D200A418D83492
:104A3000236004B070BD6846FFF79FFE00996B00CD
:104A40005B19DB00E3181A00C832116001990432C7
:104A50001160029904321160039ADC331A60C6E7D0
:104A60000101010170B50500082000F0EFF82900F0
:104A7000040000F0B9FF2000044A054900F036FEAA
:104A8000200000F0F9F800F01DF9C046E1580010D0
:104A9000047E001070B50500082000F0D7F829004A
:104AA000040000F0E5FF2000044A054900F01EFE66
:104AB000200000F0E1F800F005F9C046215900108F
:104AC000247E001010B580240B68E405A34210D2A8
:104AD000581C934207D95200934204D2A24205D3F4
:104AE0002000054B0B60FFF741FA10BD0A60501C17
:104AF000F9E70248FFF7CEFFFFFFFF3F7C7C001085
:104B000003000068083310B5984201D0FFF732FA6D
:104B100010BDC04610B5012A05D0002A00D110BD35
:104B2000FFF71EFAFBE70B780370F8E770B5541A2D
:104B300082B005000E0001940F2C0ED80068012CE5
:104B400008D10B780370019C286800236C60035522
:104B500002B070BD002CF8D006E0002201A9FFF7DA
:104B6000B1FF019B2860AB6022003100FFF7F8F92C
:104B7000019C2868E9E7C04602000B0010B504005C
:104B80000832026006CB00238A18FFF7CFFF20000F
:104B900010BDC04670B5184C083863680668002B15
:104BA00024D08519AB4221D81CD05A680434002A7D
:104BB00006D10DE051681C1D1300002907D00A0022
:104BC0009542F7D303D12A68B6186A685A602368F9
:104BD0001A68991888420CD05B68066043602368A5
:104BE000586005E01A685B68921902604360606073
:104BF00070BD92191A60FBE7401D0020020030B51D
:104C00000832083000D3082207230F4907324868CA
:104C10009A430431002804D10DE0011D40680028AA
:104C200009D003689A42F8D89D1A072D04D8446821
:104C300003600C60083030BD436884186360086806
:104C400025600260F5E7C046401D002070B5803049
:104C50000500FFF769F9041E07D08022002120001B
:104C6000FFF778F92000803070BD2800FFF7C6FFFD
:104C7000041EF2D100F0DAFC074A8038936810B5C0
:104C8000984203D9D2689B18984202D3FFF756F98D
:104C900010BDFFF77FFFFBE7401D002070B59E258C
:104CA000074C2D012800E560FFF73EF9A0600028C1
:104CB00004D0002305604360606070BDE060FBE7E6
:104CC000401D00201EB400F091F81EBC01F0C0FE93
:104CD000F0B5C64600B51E0003780C0082B0472B25
:104CE0001FD00020274D2B6801909B682800984713
:104CF00001239846002804D0019B1B6801930223DE
:104D00009846236829001F692000012301AAB8479B
:104D1000002823D100239846404602B080BCB84604
:104D2000F0BD43784E2BDCD18378552BD9D1C37895
:104D3000432BD6D10379462B19D0432BD1D14379BC
:104D40002B2BCED183792B2BCBD1C379012BC8D878
:104D500007D00300203B1D685830C4E7019B336037
:104D6000DAE7203800680300783B1D68BBE7437929
:104D70004F2BB6D18379522BB3D1C079024D002885
:104D8000B1D0AEE72C7D0010007D001010B50400FE
:104D900000F0FCF822002378203A472B05D08368E6
:104DA000002B20D18260012010BD63784E2BF6D1FC
:104DB000A378552BF3D1E378432BF0D12379432B00
:104DC000EDD163792B2BEAD1A3792B2BE7D1E379B2
:104DD000012BE4D8D3690133D361012BE3D183687C
:104DE00093618260DFE700F021FCC04610B500F05F
:104DF000CDF80300806800282DD02022825C472A4D
:104E000003D000229A60203010BD263A825C4E2AE0
:104E1000F7D12C3A825C552AF3D1323A825C432A8C
:104E2000EFD11F3A825C432AEBD11E3A825C2B2AD7
:104E3000E7D1053A825C2B2AE3D1043A825C012A4D
:104E4000DFD8C269013AC261002ADCD182699A6066
:104E500000238361D7E700F0E9FBC04670B504008A
:104E600000F094F8220023780568203A472B04D0FC
:104E7000002D2BD10260280070BD63784E2BF7D136
:104E8000A378552BF4D1E378432BF1D12379432B2D
:104E9000EED163792B2BEBD1A3792B2BE8D1E379DE
:104EA000012BE5D85369002B0DDB013353614368B7
:104EB000013B4360954201D0156102602000656AA4
:104EC00001F0CEFDD7E70121CB1AEFE700F0AEFBF2
:104ED00010B500F057F80368002B09D020229A5C27
:104EE000472A06D0002220330260180001F098FD06
:104EF00010BD263A9A5C4E2AF4D12C3A9A5C552A77
:104F0000F0D1323A9A5C432AECD11F3A9A5C432A98
:104F1000E8D11E3A9A5C2B2AE4D1053A9A5C2B2AF6
:104F2000E0D1043A9A5C012ADCD85A69002A08DBED
:104F3000511E012A0CD04A1C01D05961D8E700F05B
:104F400075FB511C0132F8D11A6902605961CFE733
:104F50001A6920330260180001F062FDC8E7C046FC
:104F60007047C0467047C04600487047947C0010A8
:104F700010B504000421FFF701F8200010BDC04661
:104F80007047C04600487047341D002000487047F5
:104F9000341D002010B5034A0349044800F0A4FD65
:104FA00010BDC046B0120020814F0010341D0020FB
:104FB000F0B5D64646464F468A46C0B5060050284C
:104FC00024D00F2404400C2C00D96FE03848A400F2
:104FD00000598746547810782402044390780004DE
:104FE0002043D47824060443101D002C08D07025DB
:104FF0003540102D00D1924676B25444002E0ADB83
:105000001C60E0BCBA46B146A846F0BDD01C0322E5
:10501000904310C8F4E72468F2E75478107824022B
:105020000443907800042043D478240604431000FD
:105030000830DAE75478107824020443901CD4E74F
:10504000547810782402044324042414901CCCE7E0
:105050007F21150000240027884640462978013525
:105060000840B840044348B207370028F5DB280061
:105070001F2FBAD84D06B8D50125BD406D422C432F
:10508000B5E700218C467F3115000024884647464D
:1050900061462878013507408F400721894640B294
:1050A0003C43CC440028F2DB28009EE700F042FE9F
:1050B000487D0010020010B50800FF2A10D07023B0
:1050C0001340302B13D004D8202B07D101F078FCEB
:1050D00003E0402B06D101F0CBFC10BD202B04D8FF
:1050E0000020FAE70020502BF7D000F023FE01F05B
:1050F0009FFCF2E7F8B505000E0014000020002D1B
:1051000002D0280001F0B4FC2060771C3678FF2E16
:1051100028D160603B78781CFF2B32D0102300250B
:1051200000217F2623753200037801301A408A401F
:105130005BB215430731002BF5DB4519E560002212
:1051400000257F2603780130637531000378013034
:10515000194091405BB20D430732002BF5DB451936
:105160002561F8BD29003000FFF7A4FF3A000100D7
:10517000231D3000FFF71CFF07003B78781CFF2B36
:10518000CCD100252375D9E7F0B557464546DE4614
:105190004E460023E0B595B00A9303330F009046C6
:1051A0000340012B16D0022B0DD14146380001F0EF
:1051B0002FFC00280CD1082015B0F0BCBB46B2462D
:1051C000A946A046F0BD002B00D19DE000F0B2FD45
:1051D0000920F1E708231A000240034200D19DE0B4
:1051E00002231A430EAB9A4604920E910C22002120
:1051F00000934046002301F003FC404601F060FCB0
:1052000005900028D1D0524605994046FFF772FF1D
:1052100053461B7D4146040018000693FFF74AFFE2
:10522000534698600DAB0F22079000939B460021D8
:105230000023404601F02CFC01220D9B9343013BCF
:10524000994653461B6903939C423BD253465E7D6D
:105250000E9B7F2502934B46A1461C000021300087
:10526000FFF728FF4A4601000BAB3000FFF7A0FE16
:10527000002181463000FFF71DFF4A4601000CABBC
:105280003000FFF795FE002181463000FFF712FF46
:105290004A4601005B463000FFF78AFEA146002126
:1052A00000222C00037801301C4094405BB2214363
:1052B0000732002BF5DB029A0B9B944663444C4665
:1052C0004B4518D9002300251E000133049AD2074C
:1052D0007AD55B460D2200930021002340460A9CAC
:1052E00001F0D6FB0D9B06203B62059B7C62BE62F3
:1052F000FB623D6360E70C9A9B184B456ED8039B9D
:1053000081468342AAD8DDE7000700D54DE7012397
:1053100004930EAB9A4653460E9767E70EAB0C6AA2
:105320009A4600930D2200230021404601F0B0FB75
:105330000E9B9C4202D002230493ECE753460C22BE
:1053400000930021002340460E9701F059FB3D6B6E
:10535000BC6AFB6A002D3ED005930DAB26009B4630
:10536000002E00DAABE003265B460022002100930A
:10537000404600230D9701F043FB5B4601220021CC
:105380000093404600230D9401F03AFB5B460F2248
:10539000002100934046002301F07AFB01230D9A7F
:1053A000002113402B430D935B460F220093404690
:1053B000002301F025FB022E01D00720FCE6380077
:1053C000FFF7E4FC0720F7E6082204990A426DD1B2
:1053D0003400012BC4D1380000F028FC0D9B002BB9
:1053E00000D1E2E6524655685D19002900D100E17E
:1053F000039B4C1E9C466444002D00D1D5E6049AC4
:105400000823110019400991134200D1F4E03F3301
:105410003B7007337B700733BB70123BFB70033369
:105420003B7109337B710333BB710023FB71002394
:10543000069A029307331A40130042469846039592
:105440000892002300217F252A00207801340240A1
:105450008A40134342B20731002AF5DB1F2905D8E1
:10546000400603D501228A40524213439946200048
:10547000002500227F269C46310003780130194028
:1054800091400D4359B207320029F5DB19006346FC
:105490001F2A32D8490630D5012191404A4215438E
:1054A000002B3ED1012302936419CAE7012B00D1DE
:1054B000B1E0002E00DAAAE03400032654E7524699
:1054C00005994046FFF716FE53464146187DFFF703
:1054D000F1FD5246E343D1689B00C9180B68002BCD
:1054E00005D0002301339A008A58002AFAD1BB6202
:1054F0000423F8623B63796335E7002B11D1012364
:105500000293002DD0D1089B039D9846029B002B4F
:1055100000D14AE6049BDB0700D546E600240226BC
:1055200022E7002B12DC002F02D0099A002A36D085
:105530005246DB43D2689B009B58002BE1D14B467F
:105540001E00089B039D98460323BFE6069AFF2A88
:1055500045D04246022A3FD01BD9032A1CD0042A38
:1055600000D033E6DB005B425246D2680799D2187E
:1055700006985B46FFF71CFD0D990029DFD0002F30
:10558000BFD0002238000AABFFF7A2FB0028B8D03A
:10559000D5E7002A00D019E69B005B42E4E7DB4335
:1055A000119E0A999B00F6180D9131680029C6D00A
:1055B0005B46A3461C0003E071680436002910D046
:1055C0002300002238007118FFF782FB0028F3D077
:1055D00023005C469B4694E75B005B42C4E70023E4
:1055E000C2E74B461E00089BA3469846039D032333
:1055F0006CE6002D8ED1D8E53B00FA795833012AAC
:1056000001D00A9313E7783B1B680A930FE700F079
:1056100019F8FFF723FC00F009F8C04610B58047E1
:1056200000F088FBFFF71AFC00F084FB024B10B57A
:105630001868FFF7F3FFC0467413002010B58047C9
:10564000FFF7F4FF024B10B51868FFF7F7FFC046ED
:1056500070130020014B18687047C0467413002077
:10566000014B18687047C0467013002010B5012820
:1056700012D80B00283B1A68501E1860012A00D06F
:1056800010BDDB6858310C00002B01D00800984792
:105690002000FFF7F1FAF3E728394869FFF7BEFF6A
:1056A00070B505000026803DEA602E60A960040008
:1056B000FFF7D6FF2861FFF7CDFF23004722583BB5
:1056C00068611A7007325A7007329A7022004323B9
:1056D000553A13705370183B9370D370024B513C82
:1056E000280026702B6370BD6D56001070B5040045
:1056F0000D001600FFF74AFC436832000133290011
:1057000043602000FFF7CCFF04000123283403602E
:10571000200001F0CDF92000FFF7A0FBFFF786FF86
:1057200010B5FFF733FC4368046801334360002C75
:105730000CD02023E35C472B0AD0002303602034E5
:10574000200001F0ADF92000FFF788FBFFF76EFFA6
:10575000263BE35C4E2BF0D12C3BE35C552BECD18C
:10576000323BE35C432BE8D11F3BE35C432BE4D1AA
:105770001E3BE35C2B2BE0D1053BE35C2B2BDCD108
:10578000043BE35C012BD8D863695B426361D6E7D5
:1057900010B50400024B036000F0D2F9200010BDE8
:1057A000B87D001010B50400044B036000F0C8F988
:1057B00020000C21FEF7E2FB200010BDB87D001098
:1057C000F0B583B01E00089B05000F001400934243
:1057D0000AD0A868089A036800921D6A2200330064
:1057E0003900A84703B0F0BD310000F05FF8002891
:1057F000EFD00620F6E7C046F0B50E0085B01900E0
:10580000040017001D0000F051F8002814D10A9B75
:105810000C9A93422AD0A0680D9A036803920C9ABE
:10582000310002920B9A01920A9A0092DC693A00C6
:105830002B00A04705B0F0BD0D9B0A9A1F711A609E
:10584000002E0CDB93190C9AD31A5A1E9341042292
:105850005B4293430D9A063393710020EAE70236C8
:10586000FBD101230D9A00209371E3E720000B99EF
:1058700000F01CF80028CED00D9B00205F71D9E706
:10588000F8B507000C0015001E0000F091F9002883
:1058900006D1B8682A00036821009F693300B84721
:1058A000F8BDC0467047C0460020704710B5814221
:1058B00011D0406803782A2B0BD049680B782A3B1B
:1058C0005A425341C91800F091FE43425841C0B2B8
:1058D00010BD0020FCE70120FAE7C0464068704791
:1058E0000D4B10B503604368040018000B4A0C38D8
:1058F00082B0904205D12000FFF732FB200002B0B9
:1059000010BD043B1A68511E1960002AF3DC01A97E
:1059100000F0E6F8EFE7C046387E0010501D00208A
:105920000D4B10B503604368040018000B4A0C3897
:1059300082B0904205D12000FFF712FB200002B098
:1059400010BD043B1A68511E1960002AF3DC01A93E
:1059500000F0C6F8EFE7C046387E0010501D00206A
:105960000E4B10B503604368040018000C4A0C3855
:1059700082B0904208D12000FFF7F2FA2000FEF733
:10598000F9FA200002B010BD043B1A68511E1960DC
:10599000002AF0DC01A900F0A3F8ECE7387E001043
:1059A000501D00200E4B10B5036043680400180022
:1059B0000C4A0C3882B0904208D12000FFF7D0FA90
:1059C0002000FEF7D7FA200002B010BD043B1A6891
:1059D000511E1960002AF0DC01A900F081F8ECE703
:1059E000387E0010501D0020F0B5C64600B51C4B97
:1059F00004000D0082B00360002929D0080000F0E7
:105A000039FE061E02D1174B984611E0002101AA6B
:105A100000F038F80C23984607008044012E0ED081
:105A2000320029004046FEF79BFA0F4B9F4209D1F6
:105A300043462000636002B080BCB846F0BD2B78BE
:105A40000373F2E700233E60BB60BF193B73EFE7CF
:105A50000648FFF707F82000FFF782FAFFF732F950
:105A6000387E00105C1D0020501D0020587E001064
:105A700010B50400FFF7B8FF014B2000236010BDF4
:105A80004C7E0010144B10B50400984221D8884277
:105A900015D94B00984200D21C0023008022200020
:105AA0001D3352010D3093420BD9A14209D29446C5
:105AB0001B051B0D6444E41A074B9C4207D82000C9
:105AC0000D30FEF753FA00234460836010BD1C00C4
:105AD000F5E70248FEF7DEFFFCFFFF3F847E001083
