:020000041000EA
:1000000000B5324B212058609868022188439860DF
:10001000D860186158612E4B002199600221596106
:100020000121F02299502B49196001219960352056
:1000300000F044F80222904214D00621196600F024
:1000400034F8196E01211966002018661A6600F04E
:100050002CF8196E196E196E052000F02FF8012189
:100060000842F9D1002199601B49196000215960AB
:100070001A491B48016001219960EB211966A021F2
:10008000196600F012F800219960164914480160C1
:100090000121996001BC002800D000471248134993
:1000A000086003C880F30888084703B5996A0420EC
:1000B0000142FBD001200142F8D103BD02B5186610
:1000C0001866FFF7F2FF186E186E02BD00000240BE
:1000D000000000180000070000035F00212200005C
:1000E000F4000018222000A00001001008ED00E03C
:1000F00000000000000000000000000074B24E7A12
:1001000000200420F7010010C3010010C5010010F9
:10011000C1010010C1010010C1010010C101001097
:10012000C1010010C1010010C1010010C701001081
:10013000C1010010C1010010C9010010CB01001065
:10014000CD010010CD010010CD010010CD01001037
:10015000CD010010CD010010CD010010CD01001027
:10016000CD010010CD010010CD010010CD01001017
:10017000CD010010CD010010CD010010CD01001007
:10018000CD010010CD010010CD010010CD010010F7
:10019000CD010010CD010010CD010010CD010010E7
:1001A000CD010010CD010010CD010010CD010010D7
:1001B000CD010010CD010010CD010010CD010010C7
:1001C00000BE00BE00BE00BE00BE00BEEFF3058054
:1001D000103800BEF2EB8871088A0010308A0010D7
:1001E0003402001090A31AE700201F49086006C8D7
:1001F00081F3088810471D48006800282FD10DA4FE
:100200000ECC002902D000F012F8F9E71849194A7B
:10021000002000E001C19142FCD1174988471749ED
:1002200088471749884700BEFDE701C901C29A42C5
:10023000FBD37047308A0010C0000020F40D00206E
:100240006497001000000420000004206497001050
:10025000001004200010042000000000704709482E
:1002600003F066F80047000008ED00E0000000D051
:10027000F80D00201C1300204D20001081050010F7
:100280000D2000105756000006005250ABB36053CB
:100290001081001006005250861C030220810010BD
:1002A000060052505422A29D288100100500525091
:1002B000DE65F46864970010F8B5C0460448054B45
:1002C00010B5834203D0044B002B00D0984710BDDB
:1002D000F40D0020F40D002000000000064807493E
:1002E000091A8B10C90FC91810B5491003D0044B57
:1002F000002B00D0984710BDF40D0020F40D002015
:100300000000000010B5074C2378002B09D1FFF73F
:10031000D5FF054B002B02D0044800E000BF0123AD
:10032000237010BDF80E002000000000287300109C
:10033000054B10B5002B03D00449054800E000BF71
:10034000FFF7CCFF10BDC04600000000FC0E0020EF
:100350002873001070B506000D1C081C03F03AFC51
:1003600084B2002C12D0200003F00CFC011C281CCD
:1003700003F0E7FB8721C90503F0FDFB03F02AFC2E
:10038000C3B21B0224041C43346070BD0023F8E791
:1003900010B504001022002103F074FC80235B02DE
:1003A0002360F8235B0263608023DB02A360C02329
:1003B0001B03A360200010BD70B504000D00FFF703
:1003C000E7FFEA1C636809490B40ED012B43120368
:1003D00013436360E268D200D208802189050A4392
:1003E000E260034A13406360200070BD7F00FEFF9F
:1003F000FFFFFF9FF0B5CE46474680B587B00400AB
:100400000D00160098460EAB80CB1B7899462A4B00
:1004100098424DD00721404600F0E4F801230093B4
:1004200042462900200004F053F8310002A8FFF7EB
:10043000C3FF059B214A1340424692021343059392
:100440004B46002B36D0202204991D4B19408023A7
:100450009B020B435206F82189050A40134304937B
:100460009B009B088022D20513430493052001F0D2
:10047000FDFC03F087FB80461249381C03F07BFB30
:10048000011C404603F063FB011C02A8FFF762FF5A
:1004900002AB32002900200004F06CF8236801222E
:1004A000AA401343236007B0C0BCB946B046F0BDB4
:1004B0000621B0E71822C7E700002050FF83FFFFA6
:1004C000FFFFF5C10000204110B5044C044BE41AB5
:1004D0000448210003F0E4FD200010BD00000420CA
:1004E0001C1300202873001000B58BB0684604F080
:1004F000ADFBFFF7E9FF0799411A024803F0D0FD71
:100500000BB000BD40730010002207E0054B5B6894
:10051000DB03FBD4034B0021196101328242F5D386
:100520007047C0460000205010B5FFF7DDFFFFF711
:10053000CBFF082416E00F4B5B68DB03FBD40D4BAD
:10054000002018610132072A0BDC0B0093401B06C8
:10055000F1D5084B5B68DB03FBD4064B06481861FA
:10056000F0E701340F2C03DC044B19570022EAE7B3
:1005700010BDC046000020500050505008870010A9
:1005800010B582B003F098FD1248022103F088FDF7
:100590001149124C200003F07FFF02000023019359
:1005A0000F4B0093022300212000FFF723FFFFF7EA
:1005B0009BFFFFF789FF00214020FFF7A5FFFA24EA
:1005C0006400200000F05FFFFFF7AEFF200000F0A6
:1005D0005AFFF0E76073001078730010000020509D
:1005E0000050434910B58300084A944663441A6892
:1005F00040246240803414408022520113431C6026
:10060000C000034B9C466044416010BD04C00140E3
:1006100000400140034B1B6802201840431E9841D4
:10062000C0B2704700C00640EFF3108072B6034BB3
:100630001B68002BFBD0BFF35F8F70472C0100D0ED
:10064000BFF35F8F024B00221A6080F3108870475F
:100650002C0100D0F8B506000C001500FFF7E4FFF0
:10066000E308F718F15C07222240012393400B4274
:1006700005D1DBB20B433B70FFF7E2FFF8BD210071
:10068000280001F05FFD0000002307E0054A9A18EA
:100690009200BFF35F8F0021116001331F2BF5D94A
:1006A0007047C04640000034054A1078431CDBB256
:1006B0001370172B02D9130010221A707047C0460E
:1006C00078030020074B9B68103080001950BFF35F
:1006D0005F8FBFF35F8F044B0021196082F3108896
:1006E0007047C04600ED00E0240100D010B503883B
:1006F000DA0A1C2A05D15B055B1502335B00C018C2
:1007000010BD034B034A0448B12101F083FCC046ED
:100710008873001020750010A073001010B5091A1E
:100720000B1F0A4A88180A4A904208D8C90706D4FB
:100730005B105B055B0D0748184380B210BD064B8C
:10074000064A0748A32101F065FCC046FC070000EB
:10075000FE0F000000E0FFFFDC73001014750010B6
:10076000A073001010B5091A04394A08090B08D102
:100770004905490D064B0B430380064B1343438049
:1007800010BD054B054A0648AB2101F043FCC046AD
:1007900000F0FFFF00F8FFFF0C740010E874001079
:1007A000A073001001238340034A10681840431EC1
:1007B0009841C0B27047C04600E100E0002904D073
:1007C000034B1860034B18607047034B1860FBE73E
:1007D00080E200E000E100E080E100E010B50123EC
:1007E00083401800FFF7EAFF10BD0000024B9B6832
:1007F00010308000C058704700ED00E070B5040074
:100800000D00EFF3108672B60C4B1B68002BFBD06B
:10081000BFF35F8F2000FFF7E9FF094B984201D03B
:10082000A84205D1320029002000FFF74BFF70BD20
:10083000044B054A0548862101F0ECFB240100D059
:10084000CD0100101C74001030750010A073001052
:10085000F0B5CE46474680B583B006000D00EFF3F5
:10086000108872B64F4B1B68002BFBD0BFF35F8F15
:100870004D4B9A6834001034A300D7584B4B9F421D
:1008800007D0AF4200D18BE00197494BFB1A2F2BC9
:1008900009D9424639003000FFF714FF03B0C0BC4D
:1008A000B946B046F0BD3000FFF77CFF814600211D
:1008B0003000FFF793FFBFF35F8FEFF3058100294F
:1008C00001D08C4211D10123019C9C430020A368DC
:1008D000AB4212D00622A256002A0DDB53009B1811
:1008E0009B00334A2000D418F1E7324B324A3621BC
:1008F0003248FF3101F08EFB2000AB4249D1062582
:100900006557002D2BDB2A4B6A00521992009B1869
:100910009A68A260DA79E2719B795BB2A371002BCD
:100920000FDA2748A080224B6A00521992009B18C8
:10093000244A11789971157049463000FFF74EFF2F
:10094000A7E7680040198000194BC0180430FFF772
:10095000CDFE0100231D1800FFF7E0FEE2E70029AD
:1009600012D100280ED0FF238371174B83801549C5
:100970000B78A3710E4A154BA41A644163431B0DF7
:100980000B70D9E7094FF2E71149201DFFF7EAFE86
:10099000D2E7104B084A6A210848FF3101F03AFBC0
:1009A000024F76E7240100D000ED00E0CD010010F9
:1009B0007C0300205474001000750010A073001018
:1009C00001BD00001A13002001BDFFFFAAAA00000C
:1009D000B60300208874001070B5012202432E4B2C
:1009E000D31A2F2B28D8EFF30583002B2BD0EFF34E
:1009F000108C72B6294909680029FBD0BFF35F8FBC
:100A0000254C274905002D1B6D416943090D4CB24A
:100A1000244989689B00C95891421BD000210329B1
:100A200032D81D4B4A00521892009B189B795BB23A
:100A3000A3421FD00131F2E71B4B1C4AC7211C48BF
:100A4000490001F0E7FA1B4B184A92211848FF3180
:100A500001F0E0FA134A92681749D150174B1A78FF
:100A600082711C70BFF35F8F0C4B00221A608CF3F5
:100A7000108870BD084B4A005518AD005D19FF265F
:100A8000AE710F4AAA80E9E70E4B084AD121084807
:100A9000490001F0BFFAC0467C030020240100D0C9
:100AA000AAAA000000ED00E090740010CC740010C1
:100AB000A0730010B8740010CD0100101A130020AC
:100AC00001BDFFFFC47400100022044B02E0044982
:100AD00002C30132072AFAD97047C04600E400E099
:100AE00080808080024B9C46614489000160704791
:100AF0004000003410B50400FFF7D6FD01002000CF
:100B0000FFF7F0FFFF232371BFF35F8F10BD10B518
:100B10000400FFF7C9FD01002000FFF7E3FFFF23FA
:100B2000237100236371BFF35F8F10BD084B5B6AB5
:100B3000994209D8064A926A824207D2994201D064
:100B4000012002E0002000E0002070470120FCE7C7
:100B50000040054010B500290AD003681B7B8B427A
:100B600006D38068054B9C4661440901401810BDBE
:100B7000034B044A04483C2101F04CFAFFFFFF0FED
:100B8000FC7500107C79001020760010F8B5040088
:100B90001700FFF7DFFF0668456839002000FFF700
:100BA000D9FF026843680120AB4201D802D000207F
:100BB000C0B2F8BDB242FBD8F9E7000010B5002B77
:100BC00002DB0260436010BD024B034A03483F2131
:100BD00001F020FA58760010487900107476001061
:100BE00010B582B004000498059912184B41002BEF
:100BF00009DB6846FFF7E2FF009A019B2260636011
:100C0000200002B010BD01225242014BF1E7C04664
:100C1000FFFFFF7F10B5002908D0037B8B4205D36F
:100C200000684B005B18033BC01810BD024B034A21
:100C30000348682101F0EEF9B8760010247900101D
:100C4000D476001010B5437B8B4201D1012010BD3A
:100C5000FFF7E0FF8378002B01D10020F7E70120A8
:100C6000F5E770B50400857B002D01D1280070BD2B
:100C70002900FFF7CFFF4378A373002B00D1E37364
:100C80000023837043700370F0E70000F8B506009E
:100C90000C001500FFF7BEFF0700002C0DD0002D43
:100CA00011D0AC4215D029003000FFF7B3FF84709B
:100CB0003B78002B13D13D70F8BD0A4B0A4A0B4814
:100CC0006F2101F0A7F90A4B074A0848702101F08B
:100CD000A1F9084B044A0548712101F09BF94370C2
:100CE0003D70E9E71C77001000790010D476001001
:100CF000287700103477001070B506000D0014003E
:100D0000002914D0002A14D043688068984700282E
:100D100006D0220029003000FFF7B8FF280007E0C6
:100D20002A0021003000FFF7B1FF200000E0100092
:100D300070BD0800FCE7000070B504000D1E0CD06B
:100D4000FFF768FF0023837043700370617B2A0004
:100D50002000FFF7D1FF607370BD034B034A0448C6
:100D6000A52101F057F9C0464C7700101479001006
:100D7000D476001070B504000D1E0FD0FFF762FF8F
:100D800000280BD1E17B00290ED1A37B002B03D1DE
:100D9000E37B002B0DD1A573E57370BD084B094AA9
:100DA0000948F62101F036F92000FFF733FF4570BE
:100DB000EBE7064B034A0448FB2101F02BF9C04640
:100DC00050770010F0780010D4760010747700107F
:100DD00010B5002907D003681B7B8B4203D3C06882
:100DE0000139401810BD034B034A0448412101F06A
:100DF00011F9C046FC750010DC7800102076001058
:100E000070B505000C00080000F0C8FC094920007E
:100E100000F008FCFFF748FC074B9C46604480004C
:100E200068602C75D0231B061B786B75034BA400E0
:100E3000E55070BD4D0F001040000034E010002060
:100E40000A4B1A68EFF3108172B61368002BFCD0BE
:100E5000BFF35F8F054B1B68BFF35F8F00221A60E3
:100E600081F3108840BF002000217047FC12002051
:100E700010B582B0040000F097FB02000B0068463A
:100E8000FFF79CFE009A019B22606360200002B085
:100E900010BD70B584B0040016001D0002A8FFF755
:100EA000E7FF029A039B009601952000FFF798FE4A
:100EB000200004B070BD0000F0B583B007000192BF
:100EC0001D000AAB1C780BAB1E78002C0BD0006801
:100ED0002100FFF7B7FE002809D0194B194A1A481C
:100EE000672101F097F80068FFF7BBFE0400002CB3
:100EF00002D1200003B0F0BD21003800FFF72AFE28
:100F0000019B03604560089B8360099BC360386850
:100F10002100FFF711FFA042EBD1387D019A2B0091
:100F200000F0C8FB051E01D0002E04D00C9B002B46
:100F3000DFD01D70DDE73868210000F075FDF5E7B2
:100F4000887700103079001020760010F0B5DE466A
:100F500057464E464546E0B58FB00B900021794B81
:100F60008200D458894683E029002000FFF7F2FD73
:100F7000804602684368921BBB41002B09DD434653
:100F80001A685B680B9800F095FB002398460026D2
:100F90008AE0002B01D1002AF1D10021584600F04F
:100FA00039FD0700A84215D143461A685B680892CC
:100FB000099343469E68DB689846002E10D02900AE
:100FC0002000FFF705FF037899461B021F432761A6
:100FD000002069E05C4B5D4A5D488E2101F01AF803
:100FE0005C4B5A4A5A48922101F014F82369002BAD
:100FF00000D177E0BB4219D10698079900234242FD
:101000008B4100920193089A099B0CA8FFF7E8FD19
:101010000C9A0D9B002104910131039102954146E8
:10102000019100962000FFF747FF16E04A4B474A20
:101030004748A12100F0EEFF069A079B002B01D143
:10104000002A52D120682900FFF794FE29002000D1
:10105000FFF7BEFE0378013303700023236162684B
:10106000BFF35F8F13608AF310880120002861D0DE
:101070000CA8FFF7FDFE0C9E0D9F00220023089296
:1010800009936268EFF3108A72B61368002BFCD0E4
:10109000BFF35F8F23689B465D7B002D00D063E725
:1010A00000239846002600206368BFF35F8F00226C
:1010B0001A608AF31088002ED8D04B461F022F43A7
:1010C00041463800B047069007916268EFF3108AF6
:1010D00072B61368002BFCD0BFF35F8F079B002B09
:1010E00000DA83E7079B002BA6DD2369002BA9D03C
:1010F000BB4219D10CA8FFF7BBFE0C9A0D9B0698BA
:101100000799009001910CA8FFF76AFD0C9A0D9BBE
:10111000002104910131039102954146019100960D
:101120002000FFF7C9FE98E70B4B084A0848A421A6
:1011300000F070FF0FB0F0BCBB46B246A946A04617
:10114000F0BDC046E0100020B077001060790010BC
:1011500020760010C8770010D477001010B50C4B23
:101160005B68002B04D00B480A21FFF7BBFC10BDC5
:10117000074C094A20682300102100F0B6FB032029
:1011800000F006FA03212000FFF73AFEEBE7C04625
:10119000C4030020FC1200208D0B001010B5064B7C
:1011A0005B68002B01D0044810BD044B044A05487D
:1011B0005E2100F02FFFC046C4030020107800100D
:1011C000C478001020760010F0B5DE4657464E4633
:1011D0004546E0B58DB0060090461F00169B9A4626
:1011E000179B994618AB1B780793272302AA9446AE
:1011F000634400221A7021E001003000FFF7E8FD8F
:1012000000783CE00698002B5CD0079B002B59D05F
:101210004946D04704000D0003000B4359D0002974
:1012200040DB08A8FFF724FE089A099B009401956B
:1012300008A8FFF7D5FC089B9846099F7268EFF352
:10124000108B72B6136859424B41D9B20691002BEC
:10125000F8D1BFF35F8F273302AA94466344049307
:101260000023039302934B46019353460093424657
:101270003B003000FFF720FE0400051EBCD1736860
:10128000BFF35F8F002119608BF31088002D17D0FA
:10129000272302AA944663441B78002BB2D1000294
:1012A0002043B0E700236242AB41009201934246E3
:1012B0003B0008A8FFF794FC089B9846099FBDE7F0
:1012C000012040420DB0F0BCBB46B246A946A04644
:1012D000F0BD0698F6E7F0B5C64600B584B0050047
:1012E000884616001F000AAB1C78FFF757FF0294D0
:1012F000019700962A004346FFF766FF04B080BCC2
:10130000B846F0BDF0B5C64600B505000C1E42D08B
:101310004268EFF3108772B61368002BFCD0BFF35E
:101320005F8FE6B22B68984631001800FFF78AFC01
:1013300000282AD02B69A34213D0240AE4B231003A
:101340002800FFF745FD0378A34211D000206B6809
:10135000BFF35F8F00221A6087F3108880BCB84605
:10136000F0BD0E4B0E4A2C210E48FF3100F052FE0C
:101370003100404600F058FB0028E8D10A4B084AEB
:1013800099210848490000F045FE2B69A342DED1AF
:1013900000232B61DBE70020E0E7C0463478001033
:1013A000AC780010207600105878001010B50400BA
:1013B000FFF7F4FE2100FFF7A5FF10BD30B587B0A1
:1013C00004000D00EFF30583002B20D106225242CA
:1013D000D31712196B418B4202D803D1824201D933
:1013E0000022002304A8FFF7E9FB02A8FFF740FD55
:1013F00002980399049A059B121A8B41002B0BDC6F
:1014000008D02000290000F0DBF807B030BD1448F8
:1014100000F098FE002AF4D0124A0498059900239F
:101420000093FFF758FF002813DAEAE70E4B1A681B
:10143000EFF3108172B61368002BFCD0BFF35F8FFF
:10144000094B1B68BFF35F8F00221A6081F310887D
:1014500020BF04980599FFF769FB0028E6D0D0E784
:101460005C780010410E0010FC12002000B583B023
:1014700002000B006846FFF70CFD00980199FFF78A
:101480009DFF03B000BD10B5FA2292000023002199
:1014900002F03AFBFFF7EAFF10BD000030B583B061
:1014A00005000C00EFF30583002B0FD10B4A00233E
:1014B0000093FFF710FF00280BDD20BFFFF776FF3A
:1014C00028002100FFF732FB03B030BDFFF72EFBF1
:1014D000FAE728002100FFF729FBF5E7410E00108D
:1014E00010B5002B02DB0260436010BD024B034AC3
:1014F00003483F2100F08EFD58760010347A00102A
:101500007476001070B5EFF305801038EFF3108C8F
:1015100072B6194B1B68002BFBD0BFF35F8F012203
:101520001300834015494B6315490B601549097831
:101530000C00C440224213D0104A546A124A85005B
:10154000AA58944205D3114AAA580E4C99432170C7
:1015500007E00A4A031D9B0099589950002200E0B9
:101560000022BFF35F8F044B002119608CF31088B9
:10157000002A00D0904770BD280100D000400540EF
:101580003C7005401B13002000130020540F002066
:1015900010B50100024A034B1800FFF75BF810BDBD
:1015A0009079001019130020044B5B6A034A906A7B
:1015B0001900536A9942F9D17047C046004005406E
:1015C000084B5B6A01E0074B5B6A8B42FBD301E08F
:1015D000044B5B6A8B4203D1024B9B6A8342F7D375
:1015E0007047C04600400540F0B583B004000D00D0
:1015F000FFF7DAFF06000F0022002B0092197B4153
:10160000994202D804D1904202D901225242D31702
:101610006846FFF765FF00980199FFF7D1FF03B017
:10162000F0BD000070B504000E00EFF3108572B637
:101630001B4B1B68002BFBD0BFF35F8F002E1CD011
:101640002000FFF7D3F8174B83420BD0190020007E
:10165000FFF7D4F801212000FFF7C0F80123A340D1
:10166000114A1360114BA400E650BFF35F8F0C4B7F
:1016700000221A6085F3108870BD0C4BA200002177
:10168000D1500122A2400A490B7893430B700549BF
:101690002000FFF7DDF800212000FFF79FF8E4E7C6
:1016A000280100D00515001038600540540F0020B7
:1016B0001B130020F0B5DE4600B584B00400150011
:1016C00001921E000293FFF76FFF03958E4202D82E
:1016D0004ED185424CD9EFF3108B72B6274B1B6865
:1016E000002BFBD0BFF35F8F254A17780125A5405B
:1016F000EBB23B431370234B5D63221D92000199B3
:10170000D150214AA100029888501B6A2B4212D165
:101710001C4B1B6C2B4208D00020BFF35F8F174B74
:1017200000221A608BF3108823E0184B184A1948DE
:10173000C52100F06FFCFFF737FF8E4214D802D1AD
:10174000039B834210D80E4B1B78BB420ED00D4B2F
:101750001D625D631F222240012393400E4A1360E5
:10176000074B1F700120D8E70020D6E70120D4E7FF
:10177000012004B080BCBB46F0BDC046280100D0AB
:101780001B1300200040054000130020B479001016
:10179000187A0010D879001080E200E0EFF3108C86
:1017A00072B60B4B1B68002BFBD0BFF35F8F01237E
:1017B0008340084A136208490A789A430A70BFF3C3
:1017C0005F8F034B00221A608CF310887047C0466D
:1017D000280100D0004005401B13002010B500294F
:1017E00008D0037B8B4205D300684B005B18033B9A
:1017F000C01810BD024B034A0348682100F00AFCE0
:10180000B8760010387B0010D4760010F8B50600CA
:101810000C001500FFF7E2FF0700002C0DD0002D93
:1018200011D0AC4215D029003000FFF7D7FF8470EB
:101830003B78002B13D13D70F8BD0A4B0A4A0B4888
:101840006F2100F0E7FB0A4B074A0848702100F0BF
:10185000E1FB084B044A0548712100F0DBFB4370B3
:101860003D70E9E71C770010247B0010D47600104F
:10187000287700103477001070B506000D001400B2
:10188000002914D0002A14D04368806898470028A3
:1018900006D0220029003000FFF7B8FF280007E03B
:1018A0002A0021003000FFF7B1FF200000E0100007
:1018B00070BD0800FCE770B50500002343730133D9
:1018C0008373037BC373012406E021002800FFF724
:1018D00085FF0134E4B24470297BA142F5D8280089
:1018E000FFF77CFF0023437070BD10B501734260A9
:1018F0008360FFF7E0FF10BDF0B5C64600B50500F8
:101900000C1E03D1200080BCB846F0BDFFF766FF77
:101910004678002EF6D031002800FFF75FFF4778A9
:1019200000239846437021002800FFF757FF4346E5
:101930004370320021002800FFF79EFF04003900A9
:101940002800FFF7D9FF020021002800FFF794FFCD
:101950000400D7E7F0B5C64600B504000D00170037
:10196000002927D0FFF73AFF4378002B28D183784E
:10197000002B2BD101782000FFF7BEFF0600804628
:10198000002F0AD0E17B002926D1A37B002B03D1B5
:10199000E37B002B25D1A573E5734346002B26D1AD
:1019A00029002000FFF71AFF00234370300080BC9D
:1019B000B846F0BD114B124A1248382100F02AFBFC
:1019C000114B0F4A0F483A2100F024FB0F4B0C4AF1
:1019D0000C483B2100F01EFB2000FFF7FFFE457086
:1019E000D3E70B4B064A0748422100F013FB3100B6
:1019F0002000FFF7F3FE00238370D1E74C7A00103C
:101A0000107B0010547A00108C7A0010B47A001009
:101A10007477001070B504000A00457B2900FFF7B9
:101A200099FF6073280070BD70B506000C1E40D091
:101A3000437B8B4207D0FFF7D1FE05008178002958
:101A400006D1002036E00121FFF7E4FF012031E05C
:101A50003000FFF7C3FE0178A1420DD03000FFF740
:101A6000BDFE4178A1420AD00029F7D1124B134A9A
:101A700013486B3100F0CEFA6B78037001E06B789D
:101A800043700023AB706B70012221003000FFF720
:101A900061FF0200717B814205D03000FFF7ECFE50
:101AA0007073012006E0074B044A0548712100F0DD
:101AB000B1FA002070BDC046C4740010F87A00105E
:101AC000547A0010D87A001070B5046BE30701D483
:101AD000200070BD02003032C0239B0113430A4A2C
:101AE0001A60456A836AAD01ED18AD02062000F068
:101AF000BDF9064901F070FC0100280001F06CFC02
:101B00000021FFF771FDE3E7010300004E0E000026
:101B100070B504000E001500FFF7D6FF22002C322E
:101B2000E36A5E40354080235B0113431D60206300
:101B300070BD000070B505000C00062000F096F99D
:101B4000C000210001F048FCC60908D00E4B9E429F
:101B500016D87F230340013334005E0800E00124DF
:101B60006C62AE62002200212800FFF7D1FF062040
:101B700000F07CF98000A101891901F02DFC70BDF5
:101B80000026024CECE7C046FEFF0000FFFF00000D
:101B900010B505394901013AD2001143002B09D093
:101BA00002220A43012B07D0002111436E22FFF7C6
:101BB000AFFF10BD0022F4E70421F6E7002909D0A9
:101BC0000A22064B9C46604443425841044B400065
:101BD000C252704780225200F3E7C0460080FCBF2B
:101BE0001013002070B505000C00062000F03EF92F
:101BF000061E27D0164B9D4226D08022D203154BBD
:101C00001A60154B1A60154B9B6811009943FAD165
:101C100000212800FFF7D2FF21002800FFF78AFFEC
:101C200006000023012208212800FFF7B1FF2A0047
:101C30002C3280239B01134310221A60084B2B6324
:101C40000323AB64300070BD80221204D7E7C04686
:101C50000080034000E0004000F0004000C0004071
:101C600001030000F8B5DE4657464E464546E0B54E
:101C700006000F0015000A9A934250D31A0E92469E
:101C80001B0298460A9A00234046514601F0E2FBA7
:101C900081467400A419A4002F4B9C4664446368D9
:101CA000834200D26060331FDBB29B46012B3CD9DC
:101CB000C0239B012343802212011A60274BB200EC
:101CC000D158002907D0586901F086FB0130430044
:101CD0001B18033BFDD26D0123685D40E0222A40C2
:101CE00080235B0123431A605A46012A28D98023A6
:101CF0009B012343802212011A604B4663604A46CF
:101D000000234046514601F0A5FB144BB600985104
:101D10000120F0BCBB46B246A946A046F8BD104B18
:101D2000104A1148332100F075F9012FC0D1C023AA
:101D30009B01234303221A60A368DB07FCD5CAE793
:101D40002168794003220A401A60A3680125BD403A
:101D50001D42FAD0CBE7C046008000406C10002046
:101D6000447B00109C7B0010587B001030B583B082
:101D70000C2000F011F9FEF74DFC00280DD00023D7
:101D800004E02E4A99002E4888500133092BF8D9D7
:101D90002A4B2C4A5A6203B030BD2B4B00229A6763
:101DA00000F002F9294B01221A60274B5B6C012BD2
:101DB000FBD1274B03221A60234B9B6B012BFBD1DA
:101DC000013300930433234A0121234800F054F8DF
:101DD00005230093214A0121214800F04DF8214BB1
:101DE0000093002202210420FFF73CFF1E4D0095C6
:101DF0002B00002201210520FFF734FF104C009436
:101E00002300002200210720FFF72CFF009423006D
:101E1000002200210820FFF725FF0A4B0093230032
:101E2000002200210920FFF71DFF00952B00002252
:101E300000210620FFF716FFADE7C0466C1000201A
:101E4000006CDC021BB70000008000403CB000408A
:101E500030B00040002F685900800240008C864757
:101E600000C00240001BB70040597307014B8000BF
:101E7000C05870476C100020F0B5C64600B504008D
:101E80000E0017001D00374801F0A6FA8046364BB9
:101E9000FA18364B9A4239D80100380001F09CFA02
:101EA0000200103A98235B009A4235D86B1E062B2D
:101EB00038D8069B013B062B34D83F09474537D31A
:101EC0002D04069B1B031D432368002B36DB284B88
:101ED0009C4244D080235B01264A1360264A13604B
:101EE000264A926819009143FAD12660A060221D0B
:101EF000C0239B01134321221A602268002AFCDAC6
:101F0000E56008221A6080BCB846F0BD1C4B1D4A33
:101F10001D48112100F07EF81C4B1A4A1A4819215D
:101F200000F078F81A4B174A17481C2100F072F895
:101F3000184B144A1448232100F06CF822683F2300
:101F40001340B342C3D1A3681B051B0D8342BED10E
:101F5000E368EE22D2021340AB42B8D1D3E780232C
:101F60009B01B9E7001BB70080E84BD380F8A9328A
:101F700000C0024000E0004000F0004000C000400F
:101F8000AC7B0010CC7C00100C7C0010487C001056
:101F9000647C0010B07C001080239B000343014A46
:101FA000D362704700800540064BAA2212011A60D6
:101FB0002F22DA60044B054A1A60024B5B68002B43
:101FC000FBDA7047004002400060024000B0FA00B7
:101FD00000BEFDE703000A4A1268002A08D0084A3A
:101FE0001068C318074A9A4206D3054A136070471F
:101FF000034A05491160F2E701204042F7E7C04675
:10200000DC100020000004201C13002010B5FFF796
:10201000DFFF000030B583B00D001900002A0BD09F
:10202000074B084C019200932B000200200002F0A5
:1020300037F80120FFF7CCFF034B1A00F1E7C04649
:10204000D87C0010E87C00103C73001070B52B4B5E
:102050002B4A1A602B4B2C4A1A602C4B9A682A4B3D
:102060009343FAD12A4C01E008CC9847294B9C4273
:10207000FAD3FFF77BFE234B274A1A60234B9B685A
:10208000DB43DB01FAD1254B40229A675A671A6776
:10209000DA66234C09E0234B234A24488721FFF7C3
:1020A000B9FF2000FEF726FD0834214B9C4209D2DF
:1020B0002368002BF5D0012BEDD12000FEF727FD82
:1020C0000834F2E71B4DA9681B4CC022200001F028
:1020D000DFFDAC60EFF30583002B00D000BEFEF700
:1020E000D3FAFEF7F1FCFFF739F8144C01E008CC05
:1020F0009847134B9C42FAD370BDC04600E00040A5
:10210000BFCDFBFE00F00040FE7F3C0000C0004061
:10211000DC0D0020EC0D0020FFFFFF0100F001406E
:10212000D40D0020187D00108C7D0010387D00102B
:10213000DC0D002000ED00E000000020EC0D002090
:10214000F40D00200FB400B583B0084801F078FF0B
:10215000049B002B07D005A90191180001F080FF16
:10216000034801F06DFF0120FFF732FF787D00107A
:10217000887D0010704710B5002802D00B684968B0
:10218000984710BD0100002007E083001B185B008A
:10219000501C08601078C01830380A681378303B3B
:1021A000DBB2092BF1D97047F0B5DE4657464E46F3
:1021B0004546E0B583B093461F000C9B9A460D9CA4
:1021C0000E9B99460F9B9B0703D0B8460F00060055
:1021D00022E00192A34688464E46B9460700B44223
:1021E00007D2551C4B4641462020B84701342A00EF
:1021F000F5E73D004F465C46019B9B46B14646468F
:10220000B84637002E0007E0013C551C5346185DC8
:1022100043463900B0472A00002CF5D135003E0076
:1022200047460F9B9B0707D4100003B0F0BCBB468A
:10223000B246A946A046F0BDB0464E46B9462F006C
:102240005D46531BB342EFD2541C4B4641462020FF
:10225000B8472200F5E7F0B5CE46474680B585B0D1
:10226000944698460C9D0D9C0EAB1B789946109A8F
:10227000119B129EB7071CD4002B0CD0F7070AD570
:102280004F46002F02D10C37374204D0013B02E009
:1022900030272F550134944201D21F2CF8D9F7076B
:1022A00007D59C4205D21F2C03D830272F55013467
:1022B000F5E7F70612D5770505D4002C03D0944234
:1022C00021D09C421FD00F9A102A32D00F9A022A96
:1022D00037D01F2C0AD830222A5501341F2C05D89C
:1022E0004A46002A33D02D222A5501340396029300
:1022F0000194009543466246FFF756FF05B0C0BC07
:10230000B946B046F0BD621E012C10D00F9F102FB1
:102310000BD014000F9A102AD8D1B206D6D51F2C94
:10232000D4D858222A550134D3E7023CCBE7140015
:10233000C9E7B206EED41F2CECD878222A55013416
:10234000C7E71F2CD2D860322A550134C1E7720783
:1023500003D52B222A550134C8E73207C6D52022DF
:102360002A550134C2E7F0B5DE4657464E4645468B
:10237000E0B593B081468A46089209931CAB10CB16
:102380001B789B461E9D219B9846002C03D1102351
:1023900042469A4390468023DB0046461E40424612
:1023A0001A4212D0002C22D000260EE03033D9B2CF
:1023B000771C0AAB99552900200001F00DF8AC42BA
:1023C00016D31F2F14D83E0004002900200001F06E
:1023D00003F8CBB2092BE9D94246920605D5412133
:1023E000C918C9B20A39C9B2E2E76121F8E7270082
:1023F00043460693209B05931F9B049303955B46DE
:10240000029301970AAB0093099B089A51464846EC
:10241000FFF721FF13B0F0BCBB46B246A946A04669
:10242000F0BDF0B5DE4657464E464546E0B597B09E
:102430000A900B910C929A46209B9946219F22AAC2
:1024400013789B46249B0993259C289B98464A46D3
:102450003A4302D11032934398468022D200454637
:102460001540434613420AD04A463A4341D000251C
:102470002E0053460D934D46099B9A461BE02E00B5
:1024800053460D934D46099B9A4614E03033DAB219
:10249000731C99460EAB9A5552462300280039000A
:1024A00000F0D8FFBC4226D819D04B461F2B1CD8B1
:1024B0004E4605000F00524623002800390000F068
:1024C000C9FFD3B2092BE1D94246920605D5412274
:1024D000D218D2B20A3AD2B2DAE76122F8E7AA45B4
:1024E000E3D94E460D9B9A4608E04E460D9B9A4610
:1024F00004E0002602E04E460D9B9A4643460693B2
:10250000279B0593269B0493099B03935B460293A9
:1025100001960EAB009353460C9A0B990A98FFF75D
:102520009AFE17B0F0BCBB46B246A946A046F0BD25
:10253000F0B5DE4657464E464546E0B591B080467A
:1025400089460C929A461A9C1B9D22002B00200063
:10255000290001F0FAF9002800D0ECE001225242F3
:10256000D44B2000290001F0EBF9002800D0E2E074
:1025700001225242D04B2000290001F0CBF9002863
:1025800000D0D8E0002200232000290001F0C2F989
:10259000002800D0E4E0069407958023DB001E9A13
:1025A0001A400D921E9A1A4201D106231C930698D6
:1025B000079902000B000892099303000A000243E6
:1025C00000D1D9E0080D4005400DBC4EB446604432
:1025D0000A03120B1E00BA4B13431F0001F0C8F987
:1025E000B84AB94B01F057F9B84AB94B01F034F980
:1025F000089009910022B74B3000390001F027F90B
:10260000B54AB64B01F047F902000B00089809994A
:1026100001F022F901F0C4F9834601F0A9F906009E
:102620000F00AF4AAF4B01F036F90022AE4B01F07C
:1026300013F901F0B5F90890AC4AAD4B3000390000
:1026400001F029F906000F00089801F091F9A94A54
:10265000A94B01F020F902000B003000390001F015
:10266000F6F806000F0002000B0001F014F90A90C2
:102670000B91089BA14A94466344002100220891D3
:1026800009921B0509930023089332003B00300098
:10269000390001F0E1F80E900F9132003B0000206C
:1026A0008021C90501F0D3F806000F000022944BE9
:1026B0000A980B9901F0D5F80022924B01F0CCF862
:1026C00002000B000A980B9901F0CBF800228E4B08
:1026D00001F0C2F802000B000A980B9901F0C1F852
:1026E00002000B003000390001F0B6F802000B00C8
:1026F0000E980F9901F0B5F80022714B01F0ACF87B
:10270000089A099B01F0C7F806000F000896099780
:10271000069A079B01F014F900282FD001235B4291
:102720009C46E3440022774B3000390001F099F8D1
:102730000890099122E01E9B04931D9B03931C9B10
:1027400002930094019553460C9A4946404600F086
:10275000FFF811B0F0BCBB46B246A946A046F0BD9A
:102760000021002206910792069480231B069C46B6
:10277000AC446346079310E700239B465B466333F4
:10278000C62B20D804261E9B1B0528D5089A099B1A
:10279000190011430FD05D4A5D4B0698079901F06F
:1027A000C7F800287AD000225A4B0698079901F002
:1027B000B1F8002872D01C9B5B4506DD5A469B1A77
:1027C000013B1C9303E00526DDE700231C938023D7
:1027D000DB001E9A1A431E92002600239B461D9B77
:1027E0009E4265D29F1B02231E9A1A400A921E9A8D
:1027F000134202D0002E00D000275B46002B07D0EA
:10280000089A099B0698079901F02BF80690079102
:10281000002200232000290001F07CF8002800D0CD
:102820007CE03D4B1E9A1340049303971C9B02933C
:10283000069B079C0093019453460C9A49464046D8
:1028400000F086F8002E00D183E71E9B9B0671D511
:102850004525441C5346020049462800C0475A46B5
:10286000D317D2185A4005230593013E049600233E
:1028700003930A3302935B46DB0F019300925346A6
:10288000220049464046FFF76EFD0A9B002B00D10F
:102890005FE7020047460C9E1D9D53E01C9B002BEA
:1028A0009DD00D9B002B9AD01C9B013B1C9396E75F
:1028B000002798E7FFFFEF7FFFFFEFFF01FCFFFF1F
:1028C0000000F03FFB799F501344D33FB3C8608BA7
:1028D000288AC63F0000F83F61436F63A787D23F55
:1028E00071A379094F930A400000E03F1655B5BB2C
:1028F000B16B0240EF39FAFE422EE63FFF030000C3
:1029000000002C4000002440000018402D431CEB28
:10291000E2361A3F80842E41FFF7FFFF069C079D99
:102920002200290080200006844661440B000692A4
:10293000079376E765258CE7541C534649462020CB
:10294000B8472200931BAB42F6D3100001E7C04604
:10295000F0B5DE4657464E464546E0B595B0069082
:10296000079193469946209F1E9A1F9B10001900BD
:1029700000F0EBFF002831D101225242BF4B1E98DC
:102980001F9900F0C7FF002837D101225242BC4BEB
:102990001E981F9900F0D4FF00283DD10022B94BAA
:1029A0001E981F9900F0CCFF002850D10022B64B92
:1029B0001E981F9900F0AEFF002848D10022002386
:1029C0001E981F9900F0A6FF002850D100239846BA
:1029D000229B5B0500D4B6E0002458E0229B0393C1
:1029E000219B029303230193A84B00934B465A4625
:1029F00007990698FFF7D8FB0EE1229B0393219BD2
:102A0000029304230193A24B00934B465A46079925
:102A10000698FFF7C9FBFFE00423229A1A40229987
:102A20000B4210D09B4B002A0FD004222299039115
:102A300021990291019200934B465A4607990698B4
:102A4000FFF7B2FBE8E0944BEDE70322EEE7229BB1
:102A50000493219B039302971E9B1F9C0093019458
:102A60004B465A4607990698FFF762FDD4E01E9A36
:102A70001F9B0020002100F0EAFE1E901F91012301
:102A80009846A5E70CAB30221A55013F01341F2CA4
:102A900001D8092FF6D81E981F9900F081FF050074
:102AA00000F066FF02000B001E981F9900F0CFFE99
:102AB0007A4BFA009B181A685B680A920B9300F035
:102AC000EAFE0890099100F08FFF060000F04CFF2D
:102AD00002000B000898099900F0B9FE08900991CE
:102AE00000226F4B00F02CFF00282ED00136300062
:102AF00000F03AFF02000B000A980B9900F010FF5B
:102B0000002801D001350026002F2CD1280000F02C
:102B10002FFF02000B001E981F9900F098FE060080
:102B20000F0000225E4B00F0F5FE002846D1002287
:102B30005B4B3000390000F003FF00283ED1EB076B
:102B40003CD501353AE0062746E70022544B089869
:102B5000099900F0DFFE0028D6D1002E01D0F3073E
:102B6000D2D50136D0E7AA461F2C11D8013F0A2141
:102B7000300000F031FC651C30310CAB19550A21D6
:102B8000300000F029FC092E0ED906002C00EBE7DE
:102B900055461F2C0CD87B1E002F09D00CAA3021C3
:102BA00011551F000134F4E72B0055461C00F0E7D7
:102BB0001F2C03D80CAB2E221A5501341F2C10D811
:102BC0000A21280000F0E0FB661C30310CAB1955DF
:102BD0000A21280000F0D8FB051E01D03400EDE7E3
:102BE00034000323229A1340012B1CD01F2C06D83B
:102BF0004346002B32D00CAB2D221A550134229BB8
:102C00000393219B029301940CAB00934B465A46CD
:102C100007990698FFF7C8FA15B0F0BCBB46B24654
:102C2000A946A046F0BD219B002B13D04346002BA4
:102C300002D10C3313420FD0219B013B2193190089
:102C400003E00CAB30221A5501348C42CED21F2C3B
:102C5000F7D9CBE72199F8E72199F6E7229B5B07A3
:102C600004D50CAB2B221A550134C8E7229B1B0755
:102C7000C5D50CAB20221A550134C0E7FFFFEFFF8A
:102C8000FFFFEF7F65CDCD4165CDCDC1A87D0010A3
:102C9000AC7D00109C7D0010A47D0010507F0010C2
:102CA0000000E03FF0B5DE4657464E464546E0B5EB
:102CB00093B08246884693461193002900D106E3DB
:102CC00000255646119B1878002800D102E32528DC
:102CD00009D06C1C5B462A004146B047119B01336A
:102CE00011932500EEE701331193002720E0012323
:102CF0001F4301321192012418E002231F430132C5
:102D00001192012412E004231F4301321192012485
:102D10000CE008231F4301321192012406E0102326
:102D20001F4301321192012400E00024002C09D03D
:102D3000119A1378203BD9B21029F6D88B00C449D8
:102D4000CB589F46119B1A781300303BDBB2092BFE
:102D500010D92A2A13D00B94119B1A782E2A1ED030
:102D6000119A1378683BD9B2122959D88B00B94906
:102D7000CB589F4611A8FFF705FA0B90ECE71C9B78
:102D80001A1D1C921B68002B04DB0B93119B013353
:102D90001193E1E7022217435B420B93F6E780228F
:102DA000D20017435A1C11925A781300303BDBB201
:102DB000092B0BD92A2AD3D11C9B1A1D1C921C68E3
:102DC000002C08DB119B01331193C9E711A8FFF711
:102DD000D9F90400C4E70024F4E780235B003B43F7
:102DE000511C119151786C2901D01F0018E0C023AB
:102DF0009B001F430232119212E080233B43511C7F
:102E000011915178682901D01F0009E0C0231F43A8
:102E10000232119204E080235B001F4301321192C1
:102E2000119B1878672816D8252826D30300253B40
:102E3000DAB2422A21D89300874AD3589F4680238A
:102E40009B001F4301321192EAE780235B001F437E
:102E500001321192E4E778280FD869280DD30200D7
:102E6000693AD2B2012393407C4A13420FD11A0629
:102E700000D507E25B0500D594E16C1C5B462A0097
:102E80004146B047119B0133119325001AE778287A
:102E90000AD062283AD06F283BD058283CD0102363
:102EA0009F43063B9C4601E010239C46582836D0A1
:102EB000692803D0642801D00C2297437A0501D5F4
:102EC0000122974369282DD064282BD0BA0500D55C
:102ED000A2E0FA0500D5C3E07A0600D4D5E01C9A3A
:102EE000111D1C911168FF220A4005970B9B04934A
:102EF0000394634602930023019300925B462A00E9
:102F000041463000FFF72FFA05002AE002239C46D5
:102F1000CCE708239C46C9E710239C46C6E720223D
:102F20001743C5E7BA0520D4FA0550D47A0666D50A
:102F30001C9A111D1C911168FF220A40D01711180C
:102F4000414005970B9B0493039463460293D20F71
:102F5000019200915B462A0041463000FFF703FAD8
:102F60000500119B01331193ACE61C9A073207212F
:102F70008A43110008311C91116853689946DB1788
:102F80000C930D930C9A0D9B100048400E904A46EE
:102F900053400F930E980F990C9A0D9B801A9941EC
:102FA0000E900F9108970B9B07930694634604932A
:102FB000002305934B46DA0F0292009001915B4685
:102FC0002A0041463000FFF72CFA0500C9E71C9A99
:102FD000111D1C911268D0171118414005970B9BC9
:102FE0000493039463460293D20F019200915B46CF
:102FF0002A0041463000FFF7B6F90500B1E73A066E
:1030000005D51C9A111D1C910023D25E96E71C9ACF
:10301000111D1C91126891E71C9A073207218A43FF
:10302000110008311C9108970B9B07930694634687
:10303000049300230593029353681268009201934E
:103040005B462A0041463000FFF7EBF9050088E7B0
:10305000B47D0010F87D0010447E00104190000007
:103060001C9A111D1C9105970B9B049303946346B6
:10307000029300230193136800935B462A004146A4
:103080003000FFF770F905006BE73A0606D51C9A89
:10309000111D1C9112681204120C26E71C9A111DB6
:1030A0001C91126821E7462819D01C9B0733072280
:1030B00093431A0008321C9204970B9A03920294CD
:1030C0001A685B68009201935B462A004146300013
:1030D000FFF73EFC0500119B01331193F2E520231D
:1030E0001F43E2E7672801D0472802D180231B0154
:1030F0001F43452801D0472801D120231F431C9B93
:103100000733072293431A0008321C9204970B9A44
:10311000039202941A685B68009201935B462A004E
:1031200041463000FFF704FA0500119B013311936B
:10313000C8E502231A003A4091463B421DD00124C3
:103140001C9B1A1D1C926F1C18785B462A00414676
:10315000B0474B46002B14D1119B013311933D0016
:10316000B0E5571C5B4641462020B04723003A009B
:103170005C1C9D42F5D81500E2E701232A000B9D57
:10318000F6E73A00B1460B9E06E0571C5B46414607
:103190002020C8472C003A00651CA642F5D817002D
:1031A0004E46D9E71C9B1A1D1C921B689A46002CA0
:1031B00025D101225242534601E001330A00197819
:1031C000002902D0511E002AF7D152469B1A8022B4
:1031D000D200390011408946174202D0A34200D9DB
:1031E000230002221100394010913A4209D02A00EE
:1031F000250057469A4633004E46994621E0220064
:10320000D9E72A004546A04606E0541C5B46290043
:103210002020B0473B0022005F1C0B999942F4D854
:103220004446A8463B00250057469A4633004E4682
:10323000994606E01D000137541C5B464146C847CD
:1032400022003878002804D0002EF4D06B1E002D08
:10325000F0D1150053464E46109A002A03D1119B17
:10326000013311932EE50B9F2A0006E0551C5B46A7
:1032700041462020B04723002A005C1C9F42F5D81D
:103280001500ECE721233B431C9A111D1C91126889
:1032900005930823049303940833029300230193B6
:1032A00000925B462A0041463000FFF75CF80500BB
:1032B000119B0133119305E56C1C5B462A004146C6
:1032C0002520B047119B013311932500FAE40B4BE5
:1032D0009A46F5E4B2465D450DD35B465A1E5B4601
:1032E00041460020D047280013B0F0BCBB46B24690
:1032F000A946A046F0BD2A00F1E7C046752100109E
:1033000000B585B002900391012104480093130099
:103310004A4202A9FFF7C6FC05B000BD77210010A4
:1033200001480421014B1847F003002051330010DD
:1033300010B5010018231B8814221088984710BD6F
:1033400010B5010018231B8816221088984710BD5D
:10335000F0B5C64600B507000E00002501239846CB
:1033600000E00135B5420AD2AC003C192068FFF7F5
:10337000DFFF20600028F4D100239846F1E74046A3
:1033800080BCB846F0BD0000124A936F9B0815D26E
:103390009066D166002905D0FFE7FFE7FFE7516F90
:1033A000106F704704B580210906C21751400028EC
:1033B00000D0C84303F0A8FF002104BDF0B5146E8F
:1033C000556E576F166FFFF7E3FF14665566576724
:1033D0001667F0BD000000D0114A936F9B0813D20E
:1033E00010665166002905D0FFE7FFE7FFE7516F40
:1033F000106F704704B5002801D00020C04303F0CF
:1034000083FF002104BDC046F0B5146E556E576FA2
:10341000166FFFF7E5FF1466556657671667F0BD30
:10342000000000D094464A4A926F9208624601D248
:1034300028E0C046F0B5464E346E756E776F366F35
:1034400000F020F89446424A14665566576716679E
:103450006246F0BD94463E4A926F9208624601D29F
:1034600054E0C046F0B53A4E346E756E776F366FE5
:1034700000F04CF89446364A14665566576716674E
:103480006246F0BD002B24DB11D000293EDA00B5E6
:10349000C943404200D1013100F038F8C9434042ED
:1034A00000D10131DB43524200D1013300BD002A7B
:1034B000EBD1002801D1002905D00020C90FC90790
:1034C00001D1C043410800B503F016FF00220023DC
:1034D00000BD00B500290ADBDB43524200D10133B5
:1034E00000F014F8C943404200D1013100BDC94386
:1034F000404200D10131DB43524200D1013300F0A0
:1035000005F8DB43524200D1013300BD002923D12D
:10351000002B18D1002A0CD0BC460D4F38667A66B5
:1035200000210023FFE7FFE7FFE77A6F386F674668
:103530007047002801D00748010000B503F0DCFE09
:103540000022002300BD02000B0000200021704774
:10355000000000D0FFFFFFFF002B00D0BFE0130CE6
:1035600028D1002AE7D080B4114F39667A66FFE788
:10357000FFE730B4040C7B6F396F1B0423433B66B9
:103580007A66FFE7FFE7FFE7C04684B27B6F3D6FD7
:103590001B0423433B667A66FFE7FFE7C046002330
:1035A0002C042D0C7A6F386F00196941B0BC70473C
:1035B000000000D0F0B594460025140E01D112028F
:1035C0000835140F01D112010435940F01D1920076
:1035D0000235D40F01D152000135D40B0134254FEF
:1035E0007C66254C3C660E0C93B2FFE7FFE7FFE7D5
:1035F0003C6F6643360C7703BE467343DF0B5B04B8
:10360000C01AB941130C7343DB18C91ACE086643BC
:10361000360CB64493B273431F0F1B01C01AB94155
:10362000130C73431F0B1B05C01AB941860D8F0283
:103630003E436643360C092D24DB520A7243801A3E
:103640007703460A6643360C16235B1BDE40DF40D9
:10365000BF1964466643821B704604350633010079
:10366000D940A840C01900D30131A24206D200239C
:10367000F0BD0000000000D0FFFFFFFF121B013073
:10368000F3D3F1E709277F1BFE406446A2B27243E1
:10369000801A00D20139220C7243130C1204821AD0
:1036A00099410B007046043513370100F940A840DA
:1036B000801900D30131002B02D1A2420AD2F0BD01
:1036C000013000D30131121BFAD2013BF8D1A242E2
:1036D00000D2F0BD013000D30131121BF7E7F0B585
:1036E0001C0C00D080E00CB400251C0A04D11B0285
:1036F000160E3343120208351C0B04D11B01160FA2
:103700003343120104359C0B04D19B00960F3343C5
:1037100092000235DC0B02D192185B4101351C008E
:10372000971864410134464F7C66464C3C660E0C4B
:10373000FFE7FFE7FFE7C0463C6F6643360C7703C1
:10374000BE4697B27743C01B00D20139C01B00D2DE
:1037500001399FB27743C91BC91B170C77437E04FD
:10376000FF0B801BB941CE086643360C0C2D33DBB2
:10377000B644120B1F053A431B0B97B27743C01B8D
:1037800000D201399FB27743C91B170C77433E041F
:103790003F0C801BB941860D8F023E4366432927AB
:1037A0007F1BFE400C3D7746AF40BF1930BCA2B234
:1037B000ABB272437343801A9941220C7243130CCB
:1037C0001204801A994102000B000137001BA94125
:1037D000F9D2781E0021F0BD0C277F1BFE407746F2
:1037E0007F0BAF40FF19E0E700245D1C07D0144FAA
:1037F0007D663966FFE7FFE7FFE7FFE73C6F95B2BD
:103800009EB265436643401BB141150C1E0C6543D7
:10381000664336042F0C3E432D04401BB1419942B0
:1038200004D202000B0020000021F0BD01D1904223
:10383000F7D3801A994101349942F2D3F6E7000098
:10384000000000D0FFFFFFFF48404140484018B44F
:10385000134B5B68019308BD18B4114B1B680193AF
:1038600008BD94460F4A926F920805D2624618B47A
:103870000B4BDB68019308BD0A4AF0B5146E556E18
:10388000576F166F6246FFF7F2FF064A14665566D9
:1038900057671667F0BD18B4014B9B68019308BDCC
:1038A000F8100020000000D0FFB5504042405040CA
:1038B00059404B40594000E0FFB5154F4C00640D96
:1038C00003D0BC4204D10C0314D80020090D090513
:1038D0005C00640D03D0BC4204D11C030AD8002252
:1038E0001B0D1B0501264B4009D44B4003D58B42D1
:1038F00000D18242FFBD9942FCD19042FFBD0B43F3
:10390000DB1803431343F5D0C9434918FFBD00003A
:10391000FF07000000B5FFF7CFFF804100BDC046A4
:1039200000B5FFF7C9FF01D9002000BD012000BD8F
:1039300000B5FFF7B9FF01D9002000BD012000BD8F
:1039400000B5FFF7B1FF804100BD012040054A00EE
:10395000121804D85A00121801D80020704701200C
:1039600070470020704700000021002805D17047F3
:10397000C1174840401AFAD0C90713B5064B1B6857
:1039800098470CBC441CA2401005120B0349091BAC
:1039900009051943114310BDF81100201F04000050
:1039A00010B54C00620D8023D218DB00D21A5B05E3
:1039B0007E2A10DD9E3A13DACC1709034908194311
:1039C0005242D140640001341532202A05DAD04039
:1039D0000843604310BD002010BD0846604310BD81
:1039E000C80FC018013810BD18B4024B5B6A0193B0
:1039F00008BD0000F810002010B50148FEF7A2FB3A
:103A0000A07F001070B513231C78012C12D0012C5C
:103A100012DC214B214A93642148FFF789FC214B9A
:103A2000186070BD20491D4A9800815001331F2B3A
:103A3000F8D9ECE70023FAE71C48FFF781FC050002
:103A40001B48FFF77DFC023803789B007F2B09DDC4
:103A500012488022290000F01BF9022C08D0022C09
:103A6000DADCD6E7134B144A14483221FEF7D2FAB7
:103A7000134B1A88B5231B029A4209D1114B1A889D
:103A8000114B9A4204D1114B1A88114B9A42E6D03D
:103A90000020FEF757FBC046D53A0010F810002072
:103AA0004C330000F8110020F93900105344000095
:103AB00053460000B87F0010548000100C800010A6
:103AC00054380000D8380000494600009C380000F7
:103AD0005946000007B56046002800D100BE0188A5
:103AE0000A0A0230DF2AFAD1C9B2820804D3028856
:103AF00040880004104300E00068024A50500390E0
:103B000007BD0000F810002051434343C9188C46FC
:103B1000110C83B24B4310B4040C614392B280B2D7
:103B2000504362431C041B0C001910BC5941130480
:103B3000120CC01851416144704700004840414098
:103B400048400E4B5B6818470C4B1B6818470C4AE3
:103B5000936F9B0802D2094BDB681847F0B5146ECF
:103B6000556E576F166FFFF7F6FF054A14665566D8
:103B700057671667F0BD014B9B681847FC11002082
:103B8000000000D0491A002808D1084670470000FC
:103B9000C10FC90700D54042002817D0F44603B42E
:103BA0000B4B1B68984706BC81409E3840428031D1
:103BB00007D20B0607D04900490AC0051043084345
:103BC00060470130F8E7490A8902F5E770470000CD
:103BD000F8110020014B5B6A18470000FC1100201F
:103BE00010B50148FEF7AEFA3C73001070B5132310
:103BF0001E781848FFF7A4FB0500012E11D0012EF6
:103C000009DDAB1E1B789B007F2B1DDD1248802237
:103C1000290000F03DF81148FFF78AFB104B1860AF
:103C200070BD0D485422290000F032F8002300E056
:103C300001331F2BE3D8084A9C00A258002AF7D171
:103C40000849054AA150F3E7074B084A08484221B2
:103C5000FEF7E0F953460000FC1100204C33000051
:103C6000F8110020E13B001068800010E080001097
:103C70009C80001001480421014B184700040020DB
:103C800051330010014B1B6818470000000400204E
:103C9000014B5B681847000000040020084B5B6A7A
:103CA000994209D8064A926A824207D2994201D0C3
:103CB000012002E0002000E0002070470120FCE726
:103CC0000040054010B50300080011001B6898472C
:103CD00010BD0000F8B507000D001600437D002B55
:103CE00002D0002400200CE003681100280098474F
:103CF0002DE03B7D10E03B68154802219847601C91
:103D00000134B44214DA002CF3DD2B19013B1B788B
:103D10000D3B5A425341DBB22A5D0A2AF0D1002BF7
:103D2000EED1A042E7DA3B68211A28189847E2E76B
:103D3000B04203DA3B68311A28189847002E06DD96
:103D4000AD19013D2B780D3B5A4253413B75F8BDEF
:103D50006481001070B505000368002B16D00C4B71
:103D60001C6805E0290004C92000FFF7B3FF24699F
:103D7000002C09D02368002BF9D0064B1B68002BC0
:103D8000F0D0A342F3D1EDE700232B6070BDC04615
:103D9000D4100020D810002070B505000C000B686E
:103DA000802B05D023685A1C2260E418257170BD51
:103DB0000800FFF7CFFFF5E710B5002B02DB02602C
:103DC000436010BD024B034A03483F21FEF722F92E
:103DD00058760010688100107476001010B582B01B
:103DE0000400FDF7E1FB02000B006846FFF7E4FF6B
:103DF000009A019B22606360200002B010BD0000A9
:103E000070B582B0060014001D00FA229200002353
:103E100006980021FFF778FE02000B0012196B4193
:103E2000002B09DB6846FFF7C7FF009A019B326051
:103E30007360300002B070BD01225242004BF1E7C6
:103E4000FFFFFF7F30B585B004000D0002A8FFF72B
:103E5000C5FF029A039B00952000FFF7D1FF2000C9
:103E600005B030BDF8B5CE46474680B507000E0018
:103E7000914698461BE0A368002B04D0310038001F
:103E80009847002818DC2469002C06D00C4D2D68BA
:103E9000002DF0D0A542F6D1EDE748464146FFF7A8
:103EA000FDFE002806D101200021FDF79DFB054BFA
:103EB0001C68E9E701204042C0BCB946B046F8BDE5
:103EC000D8100020D410002000B583B0FA2189005A
:103ED0006846FFF7B7FF009A019B024803F01CFAFF
:103EE00003B000BDD40D002010B5024803F0FCF96A
:103EF00010BDC046D40D0020F0B5CE46474680B573
:103F000083B006000D0090461C00FFF7DDFF8146E0
:103F10006B1C05D0002C08D0194F1A4B1C6807E009
:103F2000300001F08BF80500F4E7174FF5E724693E
:103F3000002C17D02368002BF9D0144B1B68002BE2
:103F400001D0A342F3D12A0031002000B8474346F4
:103F5000002BECD06B46D91D0A230B7001222000E8
:103F6000B847E4E74B46002B07D16B1E9D41E8B2F2
:103F700003B0C0BCB946B046F0BDFFF7B5FFF4E7EB
:103F8000C53C0010D4100020D53C0010D8100020F3
:103F900010B5030008001100002B05D1044B1A686E
:103FA0005B68FFF75FFF10BD01204042FBE7C046A2
:103FB0008879001010B5030008001400013B012BA4
:103FC00006D8002300222100FFF796FF200010BD35
:103FD00001204042FBE7012040427047012040425F
:103FE00070470120404270470300002002229A429D
:103FF00040417047094A01E010331A001368002B52
:1040000008D08342F8D1002907D103691360002347
:10401000036102E0002900D010607047D410002036
:1040200010B5064B1C6801E098472469002C03D0AA
:104030006368002BF8D1F8E710BDC046D41000200B
:1040400070B5050000F0FAFF040000230122010012
:104050002800FFF751FFFFF7E3FF200070BD0000CD
:1040600070B5A2B004000E00FFF72EFF050000237C
:1040700001930A483300220001A9FFF741F9040027
:1040800001A8FFF767FEFFF7CBFF002D02D120004C
:1040900022B070BDFFF728FFF9E7C046993D001038
:1040A0000FB400B583B004A901C90191FFF7D8FF8F
:1040B00003B008BC04B0184710B500F0FFF80120A9
:1040C00010BD000010B582B00C00144BC3185A424A
:1040D0005341134A5B009B5E8B4204D06B46DA1D52
:1040E0001470002115E06B46DA1D0D2313700021BA
:1040F0000029F3D183699B06FCD413780360013156
:104100000132F5E783699B06FCD413780360013123
:1041100001320029F6D002B010BDC0460080FCBFBD
:104120001013002082B000226B46D91D06E083697F
:10413000DB06FCD403680B7001320131002AF6D093
:104140006B46D87902B0704770B506000D000024A8
:1041500005E0315D034B1868FFF7B4FF0134AC4252
:10416000F7DB70BD14130020F8B506000D00002722
:1041700005E07C1CF719FFF7D5FF38702700AF4228
:1041800004DA0E4A10688269D206F2D50C4A126827
:10419000002A0CD0094A1268502191631000343073
:1041A000526B183911408022520102431160002FD6
:1041B00001D03800F8BD033FFBE7C04614130020D0
:1041C0006410002010B5064B1B68002B06D0054A72
:1041D000126800219163044A1068984710BDC046D8
:1041E00064100020141300206810002070B5050032
:1041F0000E001C4B1A681C4BD31859424B41143308
:104200001C0000281ED0194B1B68002B04D0174B34
:104210001D60174B1E6070BD16492000FCF7EEFABA
:1042200001212000FCF7DAFA0E4B1B6850229A633A
:10423000190034315B6B183A1A4080235B010B4341
:104240001A60E4E7094B1B68002BE0D0002393635E
:1042500000212000FCF7C2FA06492000FCF7F8FA1A
:10426000D5E7C046141300200080FCBF6410002076
:1042700068100020C541001070B50D001C000D4BEA
:104280001860002A0BDA002C0EDA0A4B1868290095
:10429000FDF7A8FC08480121FFF7ACFE70BD022124
:1042A0001000FCF79FF9EEE702212000FCF79AF9D5
:1042B000EBE7C046141300201004002010B5064B95
:1042C0001B78064B1B78E121012300224902044898
:1042D000FFF7D2FF10BDC0462C8A0010288A0010BC
:1042E0000040034010B5024800F004F810BDC0467D
:1042F000F010002070B588B0040004AD00260496CC
:104300000922002105A8FFF7BDFC00960922002123
:1043100001A8FFF7B7FC4B232B700D22694628003C
:1043200002F0DAFF002304E05A1D69468A5CE25479
:104330000133072BF8DD08B070BD10B50400102262
:104340000021FFF79FFC80235B022360F8235B02C0
:1043500063608023DB02A360C0231B03A3602000F3
:1043600010BD00000523CB56002B01DB934211D179
:10437000094B9C46604443425841084B8000C0585A
:10438000097901238B40013B934018404342584137
:10439000C0B270470020FCE70000D0AF4C0F0020F7
:1043A00070B50A79202A19D8174B9C4660444342BD
:1043B0005841164B8000C45801239340013B497972
:1043C00049B2002910DB08002025AA1A914218DC06
:1043D0008B401C4201D00120404270BD0C4B0D4A65
:1043E0000D484021FDF716FE2020801A002805DB2D
:1043F0001A0082401442F0D00138F7E70120404211
:10440000EBE701204042E8E70000D0AF4C0F00206E
:1044100028830010A48300105483001070B5050099
:104420000C001600FFF79EFF002801D0002107E0D6
:104430001648FDF787FE8B1912339B005A51013144
:1044400023798B4211D9227863781B021343A27817
:1044500012041A43E3781B0613434A009A5A802336
:104460009B019A42E7D29219E5E701229A40130094
:10447000013B074A944665446A4255410549AD00EF
:104480006A58B34013436B5070BDC0469083001010
:104490000000D0AF4C0F0020F8B505000E00FCF76F
:1044A000C3F8070031002800FFF77AFF041E09DB7C
:1044B000020031002800FFF7B1FF3800FCF7C0F818
:1044C0002000F8BD0148FDF73DFEC0469083001076
:1044D000F0B5C64600B506AC25784C006618F60067
:1044E00086193700DC373F68BC46CC363668B046A4
:1044F0006418E400C83404190434C026B6013443F7
:104500008026B6022660002D01D01F2614E000266A
:1045100012E05401A0256D0525434C006418E40009
:1045200004192700DC373D60114D3543D834256030
:10453000053B05321F242240052BEAD89B06520179
:1045400013434C006218D20082181500DC352B6032
:10455000074B3343D832136063462B606418E40082
:104560000019CC304346036080BCB846F0BDC0465D
:1045700080E0000070B584B004000D0016000268F1
:104580000121A9408A430260002B34D018686900D9
:104590004919C90061180A00C8321060586804320D
:1045A0001060986804321060DB68DC310B606A00D0
:1045B0005319DB00D033E318802149010B438021DC
:1045C000090619601960164BAB40A3602B1D012131
:1045D0000800984080239B0123431860280008307E
:1045E000814019601F2333405219D200A418D834D7
:1045F000236004B070BD6846FFF79FFE00996B0012
:104600005B19DB00E3181A00C8321160019904320B
:104610001160029904321160039ADC331A60C6E714
:1046200001010101F0B54E464546DE465746E0B56C
:104630000D000B35060083B0162D22D8102900D9A5
:10464000B2E000F0FFFA102518230220CC4FFB182F
:104650001A005C68083A944200D1B5E0032362680E
:104660009A431300E268A168CA6091600122E318CE
:10467000596830000A435A6000F0E6FA200008301A
:1046800095E007239D4300D58EE0A94200D98BE039
:1046900000F0D8FAFC235B009D4200D2A1E1680A39
:1046A00000D18BE0042800D974E138239846A8098A
:1046B00080443930C100B24F79184C680839A142A2
:1046C0000ED003239C4604E0002ACBDAE468A14222
:1046D00006D06246636893435A1B0F2AF4DD4046B6
:1046E0003A003C690832944200D178E003236168C3
:1046F000994389460B00491B0F2900DD75E17A615A
:104700003A610029B2DA80229200914500D310E18B
:104710005909DA0801238B40D2007968D2190B437A
:1047200091687B60E260A1609460CC60012182109E
:104730009140994259D80B4205D103229043490038
:1047400004300B42FBD003239846C3009946B9447A
:10475000CC4682466346DC68A44507D126E1002AA0
:1047600000DB2FE1E468A44500D11FE14246636805
:1047700093435A1B0F2AF2DD01208046611905433D
:104780006560A068E5680837C560A86040461043CA
:10479000F960B9604860CF6030008F60E25000F08F
:1047A00053FA2000083002E00C230020336003B0ED
:1047B000F0BCBB46B246A946A046F0BD80213F23CF
:1047C00040209846890076E7DC680230A34200D09A
:1047D00044E73A003C690832944200D086E7012160
:1047E0007B68821091409942A5D90323BC68626816
:1047F0009A439146954203D8531B0F2B00DD8AE064
:1048000023004B445F4A01935F4B93469A461268DC
:104810001B68EB18013200D136E15C4A94466344D0
:104820001B0B1B0300933000009900F0F5FB030005
:104830008046013300D1F3E0019B834200D9EDE0D3
:1048400052460098526803009446514663444B60B8
:1048500001991A00414500D14BE15B461B680133C9
:1048600000D150E1434601995B1A9A1853465A60A9
:104870000723424641461A400192194200D10DE1F8
:1048800008239846881A424B0099804441449B1A59
:104890005B1A1B051B0D0091300019009B4600F0B0
:1048A000BBFB431C00D14AE14346C01A03005B44F2
:1048B0000093534652465B6801215B445360424675
:1048C0004046BA60009A0A434260BC4200D11EE1F1
:1048D0004A460F2A00D81CE107200C3A8243606840
:1048E0000140052011436160A118486088600F2ACB
:1048F00000D92FE14246444652685146C96A99425E
:1049000001D25146CB625146096B994200D389E0EE
:1049100051460B6386E001222900134311436519B8
:1049200061603000BD606B6000F08EF920000830DF
:104930003DE75A0A042A6BD9142A00D9BEE01100B7
:104940005C325B31D20008235B429C46BA18944427
:1049500063469A6803239846944500D197E04346FE
:1049600051689943494502D992689445F7D1D36873
:104970009C467B686146A260E1608C60D460D5E6AD
:104980006008002058080020140F00200F100000BD
:1049900008100000142852D9542800D996E06E233C
:1049A0009846280B80446F30C10084E608239B465C
:1049B000073BDC449B46DA4443465246134200D050
:1049C000C8E64CE00122E318596830000A435A60F7
:1049D000E368A268D3609A6000F036F920000830DE
:1049E000E5E62B00E808083330E6012360191D4393
:1049F000656078613861C26082601A004B460A4384
:104A000042603000E15000F01FF920000830CEE68F
:104A10009A09110039323831D20094E7BC4260D093
:104A2000BC68626803239A43531B954202D80F2B3C
:104A300000DD70E7300000F007F90020B7E65B23E7
:104A4000984680445C30C10035E608235B429C46B2
:104A5000E1444B469B6801384B4500D097E0434604
:104A60000342F2D17B688B437B604900994200D9B5
:104A7000BBE6002904D1B8E6042294464900E2448A
:104A80000B42F9D0504660E610330093CBE6891014
:104A9000023B8B4079680B437B606BE7009B3000E7
:104AA00043445B421B051B0D19009B4600F0B4FA02
:104AB000431C00D0F8E600239B46FAE6542A2AD885
:104AC0001A0B11006F326E31D2003CE7AA235B0053
:104AD00098422AD8DD3B9846E80B80447830C100E4
:104AE000E9E553465B68009A9C46534662445A6027
:104AF000B3E6090500D0B0E60200BC684A440131C3
:104B00000A436260F9E65B4642461A60B0E64446F4
:104B1000F3E641608EE7AA2149008A4224D8DA0BE5
:104B2000110078327731D2000DE71A4B984224D821
:104B30007C239846A80C80447D30C100BBE5009AD8
:104B4000019B94464246083B63449B1A0093002312
:104B50009B46AEE621003000083100F009FB5346C9
:104B6000BC685B686268C8E60A498A420BD89A0C3E
:104B700011007D327C31D200E5E6FE217E237F20CC
:104B80009846890097E5FE227E219200DBE67B684D
:104B90006BE7C04654050000F0B588420AD98B186F
:104BA000984207D2531E002A03D0CA5CC254013B6C
:104BB000FBD2F0BD0F2A0BD80500561E002AF8D0F4
:104BC0000023CC5C1A00EC5401339642F9D1F0E793
:104BD00003270D003E0005430C0003002E402F422A
:104BE0002BD11500103D2D09AC462F013F1825682B
:104BF0001D6065685D60A5689D60E5681034DD60D6
:104C00001D001033BD42F2D165460F230C2401353F
:104C10002D01491913404519144211D08C59AC513A
:104C200004369C1B032CF9D8043B9B0801339B00E2
:104C3000ED18C91803231A40BFE70500561EBFE749
:104C40001A00BAE77047C0467047C04610B5040066
:104C5000024B196800F09CFB200010BD28040020C6
:104C600010B5024B186800F0DFFB10BD28040020CF
:104C7000030010B50A0003490868190000F0A2FB00
:104C800010BDC0462804002010B504000A00C0680A
:104C9000034900F00DFA200000F0C6FB10BDC0462D
:104CA000C8830010054B10B51C6802000449E06879
:104CB00000F0FEF9200000F0B7FB10BD2804002032
:104CC000C8830010F0B557464546DE464E46E0B56F
:104CD0000C000700904683B0002900D1A8E04546AB
:104CE0000B35FFF7AFFF162D70D810251023A84500
:104CF00070D82600083E7168032208009043814660
:104D00000096984200DB77E0C24A301893469268DA
:104D1000824200D1CAE0426801900092012292468C
:104D20005046009A8243019894468346DC4462468A
:104D300050465268024200D071E00320009ACB46F0
:104D400082439446E3449B4550DA52460A4211D1CD
:104D500003213268B21A924652688A43614651185A
:104D600049448B46994200DB78E04A4493469A4294
:104D700000DB78E041463800FFF754FC804600280D
:104D800020D07368B4460093012300990200994330
:104D90000B00083A6344934200D1F7E04A46043AD4
:104DA000242A00D9F7E003002100132A00D9C8E023
:104DB0000A681A604A685A608A689A602100380056
:104DC00000F0D6F93800FFF73FFF07E007239D43C7
:104DD0002B1E8CDA0C233B6000239846404603B020
:104DE000F0BCBB46B246A946A046F0BDD946019AE2
:104DF000D3689268D3609A604B465B1B0F2B1CD81C
:104E000001214A4673680B40134373604E44736834
:104E1000194371603800FFF717FFA046DEE708422C
:104E2000A8D103213268B21A924652688A439CE79D
:104E30001100FFF7F7FB8046D0E701207268711977
:104E400002400343154375604B604E44736808315C
:104E500018437060380000F08BF9DBE7019AD368E3
:104E60009268D3609A6053465246DB689268564611
:104E7000D3609A604A46043A0836242A6BD8330035
:104E8000132A09D95346216899606168D9601B2AA1
:104E900000D98EE0083410332268D9461A6062685F
:104EA0005A60A26834009A605646A5E7506803220B
:104EB00090430D3282469446CA44AC44E24552DAED
:104EC000CA0700D556E73168721A03219246526824
:104ED0008A4310180100494400918C4500DD44E7E5
:104EE00053465246DB689268D3609A6008234A466C
:104EF0005344043A9846242A75D8132A08D95346AD
:104F0000216899606168D9601B2A71D80834103310
:104F100022681A6062685A60A2689A6053465919FA
:104F20005B469960009B38005A1B01231A434A6074
:104F30005246526813401D4353465D60FFF784FE9E
:104F40004CE721680160616841601B2A27D8210075
:104F5000083308312CE7210030003400FFF71CFE35
:104F6000D946564648E75B460098A04641199960E5
:104F700053465A1B01231A434A6041680B401D43A4
:104F8000456038000091FFF75FFE27E703225B686A
:104F90009343994430E72100FFF7FEFD0EE7A16837
:104FA0008160E168C160242A0CD0210010331031E7
:104FB000FEE6A1681961E1685961242A0BD010341A
:104FC000183369E722692100026102006069183123
:104FD00018335061ECE622699A61524661692033C8
:104FE000D161183458E721001800FFF7D5FD95E787
:104FF000A1681961E1685961242A02D0103418337C
:1050000086E722699A61524661692033D16118347A
:105010007EE7C04660080020002370B5064D0400FE
:1050200008002B60FCF7D6FF431C00D070BD2B6836
:10503000002BFBD02360F9E7480F002010B5830751
:105040000AD00300032102E001330B4205D01A7895
:10505000002AF9D1181A10BD030019680C4A0D4C2A
:105060008A188A4322420FD15968094A04338A18A0
:105070008A43224208D15968054A04338A188A4370
:105080002242F1D000E001331A78002AFBD1E1E797
:10509000FFFEFEFE808080800CB400B583B004ABC0
:1050A00004CB019300F038FA03B008BC02B01847F3
:1050B0000EB400B582B003AB0100054804CB006814
:1050C000019300F029FA02B008BC03B01847C046AB
:1050D00028040020F8B50C000500FFF7B3FD204FB1
:1050E000BB685E6803239E431E4B341B9C4664448E
:1050F000240B013C113324039C4207DB00212800D0
:10510000FFF78AFFBB689B19984204D02800FFF77D
:105110009BFD0020F8BD28006142FFF77DFF431C86
:105120000DD00122BB68361B16435E600E4B280073
:105130001A68141B1C60FFF787FD0120EAE70021B5
:105140002800FFF769FFBA68831A0F2BDEDD0749D5
:105150000968401A0449086001210B435360D5E7F0
:1051600060080020EF0F0000180F002058080020F2
:10517000F0B5C64605000C0000B500294FD0FFF77A
:1051800061FD210008394C68012622000320B2434A
:105190008F187B688343624898468368BB426AD015
:1051A00043467B6026421ED108239C460C688444FB
:1051B000091B12198C6864454FD0CB68E3609C6072
:1051C0004346FC186468344211D1BB68554C4244D4
:1051D000A34200D17EE0FC68DC60A360012313439E
:1051E0004B608A5006E0FC1864683442EDD01643E8
:1051F0004E603A6080239B009A4213D25409D30830
:105200000122A2404468DB002243426018188368F0
:10521000C8608B608160D9602800FFF715FD80BCF5
:10522000B846F0BD530A042B3ED894092600393401
:105230003836E40004192368083C03279C4242D016
:105240005868B843904202D99B689C42F8D1DC6808
:10525000CC608B60A160D960DEE74346F8184068F7
:10526000304257D1FB68B86842441643C360986027
:105270004E608A50D0E713004344264206D10A68A4
:10528000891A8C689B18CA68E260946001221A43EC
:105290004A60254A816012689A42BDD8234B280093
:1052A0001968FFF717FFB7E7142B07D9542B1AD843
:1052B000140B26006F346E36E400BBE71E005C332F
:1052C0005B36DC00B6E70122B610B24046683243D6
:1052D0004260BDE7D9609960CB608B6001231343C6
:1052E0004B608A5098E7AA246400A34205D8D40BE7
:1052F000260078347736E4009CE70D4CA34205D8AD
:10530000940C26007D347C36E40093E7FE247E2650
:10531000A4008FE7330013434B603A607CE7C0463C
:1053200060080020680800205C080020140F00209E
:1053300054050000134BF0B59B6801215F680323FF
:10534000380098430F2800DC0021FE2303250E4C73
:105350009B00E618E368A34206D05A68DB68AA43BC
:1053600080180131A342F8D10834A642F2D1074B8C
:105370001A685960121ADA61032297435F62186251
:10538000F0BDC0466008002068080020180F00200B
:1053900070B5040008000D00FFF754FCFFF7CAFFCA
:1053A0002200074B43CB43C243CB43C243CB43C250
:1053B0001B6828001360FFF747FC200070BDC04643
:1053C000180F002070B50C0006001500FFF73AFC1E
:1053D000A31C13D0631C08DA231D1BD0E31C14D1BB
:1053E0003000FFF731FC012070BD631C0DD10C4B68
:1053F00030001D60FFF728FC0120F5E7094B300065
:105400001D60FFF721FC0120EEE73000FFF71CFCD8
:105410000020E9E73000FFF717FC68426841E3E746
:105420005C080020140F0020F8B50400FFF70AFC08
:10543000FFF780FF0C4B20001F680C4B1E68DD69D6
:10544000FFF702FCE4683A0020000949FFF730FE4C
:10545000320020000749FFF72BFE2A0020000649F2
:10546000FFF726FEF8BDC046440F0020180F0020AD
:10547000EC8300100884001024840010F8B54E4618
:105480004546DE4657464B6EE0B5914606000D0098
:105490009B0433D513689A469368002B2CD0524650
:1054A00012689046524652689346970819D00024D5
:1054B00002E00134A74212D04246A300D158300086
:1054C0002A0001F085F9431CF3D14A46002393607A
:1054D0005360F0BCBB46B246A946A046F8BD4B4659
:1054E0009B685A4603218A439B1A4A4693600822C6
:1054F0009446E244002BD2D10020E6E701F09AF96D
:10550000E3E7C046936810B5002B02D0FFF7B6FF63
:1055100010BD00205360FBE7F0B5DE4657464E460F
:105520004546E0B5ADB08346894692461C000793D8
:10553000002803D0836B002B00D1D4E14B460C2113
:10554000595E4B469A8980239B011A4209D10B432D
:105550004A4649469381496ED24A0A4049464A66BC
:105560009AB2130740D54B461B69002B3CD01A2337
:105570001A400A2A46D01CAB0F930023C846554652
:10558000119310931CAE0B9306932B78002B00D134
:1055900059E12C0004E063780134002B00D195E040
:1055A000252BF8D1671BAC4200D093E02378002B69
:1055B00000D148E100230CAAD37101225242924645
:1055C00000229146039240326378651C002000243B
:1055D0002027944601351A00203A582A00D998E02D
:1055E000B14992008A5897464946584600F032FE23
:1055F000002801D000F0CCFD4B469A891A231A40AE
:105600000A2AB8D14B460E229B5E002BB3DB230047
:1056100052464946584600F0E3FD069020E14A46CE
:1056200010231A4391464B469B0600D43EE10723C4
:10563000079A07329A4318CA0792012204930594E5
:1056400000230CA9CB7108935346013300D138E2F3
:1056500080234946994301910498059903000B431F
:1056600000D0C9E35346002B01D000F035FD002ADD
:1056700001D000F0B5FC01234A461A4002924A4686
:105680001CAC134201D000F0C4FC53460093029BB3
:105690009A4500DA0093089B5A1E9341009A94465B
:1056A0009C446346009347E04A4610231A439146C0
:1056B0004B469B0600D40AE10723079A07329A4318
:1056C00018CA0792049305940022B9E7671BAC42FD
:1056D00000D1B8E0119B3560FA18109B77600093F9
:1056E0000133119210930836072B0CDD002A01D1EB
:1056F00000F05EFC414658460FAAFFF7BFFE0028A7
:1057000000D059E31CAE069B9C46BC4463460693FE
:105710004CE7002801D000F01AFD002B00D192E0E8
:1057200012AC237000230CAAD371013300930293AF
:105730004B46019300239A46019A02231100194017
:105740000891134202D0009B02330093019A8423F4
:10575000110019400991134205D1039B009A9F1A29
:10576000002F00DD69E3109A1198511C0CABDB7916
:10577000002B0DD00CAB0733336001230130736075
:1057800011901091072900DD1CE30A000836013151
:10579000089B002B19D00EAB3360022302307360DC
:1057A00011901091072900DC22E3002801D100F0BC
:1057B00012FC414658460FAAFFF760FE002800D0B1
:1057C000FAE2109A1198511C1CAE099B802B00D153
:1057D00047E25346029FDF1B002F00DD9BE2029B46
:1057E00034609C466044736011901091072900DC7E
:1057F00034E2002800D16BE3414658460FAAFFF778
:105800003DFE002800D0D7E211981CAB019A520748
:1058100005D5039A0099541A002C00DD62E3039B1E
:10582000009A934200DA1300069A94469C44634619
:105830000693002800D0B7E2002310932B781CAE0B
:10584000002B00D0A5E6119BC1460093002B01D090
:1058500000F097FC4B469B895B0601D500F098FC55
:1058600006982DB0F0BCBB46B246A946A046F0BD96
:105870001A0029004B460025009381462B00303A40
:105880009800C3185B00D3180A00157801312A006C
:10589000303A092AF4D9009A4846039391462B00DE
:1058A0000D0098E6FFDFFFFF708400104B46DB061B
:1058B00000D5D2E34B46079A5B0600D4CEE308CA74
:1058C0009BB204930023079205930122B8E64B464E
:1058D000DB0600D5B8E34B46079A5B0600D4B4E379
:1058E00008CA9BB2B2E300F0FFFE27E6002801D011
:1058F00000F03AFC4B469B0600D4C6E00723079A0B
:1059000007329A4301339C46944463460793536895
:10591000126805930492002B00DAC2E0534601336B
:1059200000D1D5E30CABDB794A46089380239A4338
:105930009146049A059B1100194300D1A1E3049BF1
:10594000059C002C00D05CE1092B00D959E12722ED
:10595000049B12A930338B544B46019301230293CD
:105960000CAB3F249C4664448FE6079A08CA039315
:10597000002B00DB49E3039B07925B420393042364
:105980004A461A4391462B7824E62B78691C0091ED
:105990002A2B01D100F00AFC1A000025303AAA4651
:1059A0000D00092A00D916E65546AB005D190B001B
:1059B0001B786D00AD181A00303A0131092AF4D96C
:1059C000AA460D0007E64B468022134399462B78E2
:1059D00000E601202B242B78FCE501234A461A43DC
:1059E00091462B78F6E52B78002C00D0F2E50120CB
:1059F0002034EFE5079A12AC08CA0CA923700023E3
:105A0000CB71013307920093029391E62B786C2BB4
:105A100000D167E34A4610210A439146DAE54B4636
:105A20006246134399462B78D4E5002800D095E3CD
:105A3000D74A0B924A46920600D4D2E00721079A31
:105A400007328A43100006C8049105920790494620
:105A50000222C90700D4F3E50498059904000C4319
:105A600000D1EDE50EA94B704B463020134399460B
:105A70000870E5E5002800D073E310234A461A4376
:105A800091464B469B0600D538E74B46DB0600D4D3
:105A9000CEE2079A08CA0493DB170593079200D455
:105AA0003CE70499059A00244B42944104930594E1
:105AB0002D230CAAD371089353460122013300D041
:105AC000C6E5012A00D13AE71CAC022A00D196E1D2
:105AD00007239C464B46B14600935346AA46019382
